:020000040800F2
:1070000000C00020F1720008F9720008FD7200084B
:1070100001730008057300080973000800000000F0
:107020000000000000000000000000000D730008D8
:1070300011730008000000001573000819730008A0
:107040001D7300081D7300081D7300081D730008E0
:107050001D7300081D7300081D7300081D730008D0
:107060001D7300081D7300081D7300081D730008C0
:107070001D7300081D7300081D7300081D730008B0
:107080001D7300081D7300081D7300081D730008A0
:107090001D7300081D7300081D7300081D73000890
:1070A0001D7300081D7300081D7300081D73000880
:1070B000DDC900081D7300081D7300081D7300085A
:1070C0001D7300081D7300081D7300081D73000860
:1070D0001D73000879CE00082DCF00081D7300082D
:1070E00035C300081D7300081D7300081D730008D8
:1070F0001D7300081D7300081D7300081D73000830
:107100001D7300081D7300081D7300081D7300081F
:107110001D7300081D7300081D7300081D7300080F
:107120001D7300081D7300081D7300081D730008FF
:10713000000000000000000000000000000000004F
:10714000000000000000000000000000000000003F
:10715000000000000000000000000000000000002F
:10716000000000000000000000000000000000001F
:10717000000000000000000000000000000000000F
:1071800000000000000000000000000000000000FF
:1071900000000000000000000000000000000000EF
:1071A00000000000000000000000000000000000DF
:1071B00000000000000000000000000000000000CF
:1071C00000000000000000000000000000000000BF
:1071D00000000000000000000000000000000000AF
:1071E0005FF8E0F1314B324A1360324A1360324BA0
:1071F00002E000221A600433304A9342F9D32C4B48
:107200001B6813B92B4B1B6803B1FEE7274B2C4AB5
:1072100013602C4A13602C4B2C4A03E01168196050
:10722000043304322A498B42F8D3254B1A68294B80
:107230009A4204D1234B1A681B689A4200D0FEE799
:1072400000B583B001F00EFF694601A801F0D6FE3B
:10725000214C224B1C1BA410002504E01E4B53F8AC
:10726000253098470135AC42F8DC1D4C1D4B1C1BEA
:10727000A410002504E01A4B53F825309847013537
:10728000AC42F8DC009901980BF0ACFE0546164CB8
:10729000164B1C1BA41004E0013C134B53F8243084
:1072A0009847002CF8DC284601F080FEBABADECA06
:1072B00078020020A81D002078020020AC1D0020CC
:1072C000000000207402002000000020F852010895
:1072D00078020020785634122073000820730008CA
:1072E0002073000820730008207300082073000832
:1072F00008B5FFF777FF00BFFEE700BFFEE700BF5E
:10730000FEE700BFFEE700BFFEE700BFFEE700BFED
:10731000FEE700BFFEE700BFFEE700BFFEE700BFDD
:1073200010B50446C378012B03D975211F4801F01D
:1073300095FE63780F2B03D976211C4801F08EFE51
:10734000A3780F2B03D97721184801F087FEE37843
:10735000FBB1174BDB68DB43C3F30223C3F104012A
:107360000F22DA40637803FA01F1A37813400B434C
:107370001B012278DBB20F490A4482F800332378DC
:10738000580903F01F03012202FA03F341F82030E9
:1073900010BD23785A0903F01F03012101FA03F3FA
:1073A0002032044941F8223010BD00BF7447010863
:1073B00000ED00E000E100E038B505460C46B0F114
:1073C000005F06D0B0F1006F03D0AA21084801F099
:1073D00045FE084B9C4203D9AB21054801F03EFE17
:1073E00024F0604121F07F012943034B996038BDAF
:1073F00074470108FEFF0F0000ED00E010B50446E1
:10740000042806D010F1050F03D0D521084801F05B
:1074100025FE042C05D1074A136843F004031360CA
:1074200010BD044A136823F00403136010BD00BFAD
:107430007447010810E000E010B50446431E012B1C
:1074400033D9042831D008282FD010282DD0202857
:107450002BD0402829D0802827D0B0F5807F24D099
:10746000B0F5007F21D0B0F5806F1ED0B0F5006F71
:107470001BD0B0F5805F18D0B0F5005F15D0B0F527
:10748000804F12D0B0F5004F0FD0B0F5803F0CD038
:10749000B0F5003F09D0B0F5802F06D0B0F5002F31
:1074A00003D0E521074801F0D9FD074A13682340BE
:1074B0005269144202D01BB9002010BD002010BD3B
:1074C000012010BD9C4701080004014010B504468E
:1074D000030D1B0503B918B9FC21034801F0BEFDDB
:1074E000024B5C6110BD00BF9C47010800040140D5
:1074F00010B50446022804D940F20311044801F0F3
:10750000ADFD044B186800F038002043186010BD32
:10751000D04701080020024010B50446102805D0CD
:1075200020B140F22F11064801F098FD054B1A6872
:1075300022F010021A6018682043186010BD00BFC6
:10754000D047010800200240F8B505460C46464BDE
:1075500098421BD003F58063984217D003F58063EF
:10756000984213D003F5806398420FD003F58063EF
:1075700098420BD003F58063984207D003F58063EF
:10758000984203D0B221394801F068FDE3788BB10D
:10759000042B0FD0282B0DD0482B0BD0142B09D047
:1075A000102B07D01C2B05D0182B03D0B3212F484C
:1075B00001F054FD23881BB9B4212C4801F04EFD85
:1075C000E37803F00F06304613F0100F0AD0A378CB
:1075D000013BDBB2022B03D9BB21244801F03EFD65
:1075E000A07830432378E3B12E68002316E001220F
:1075F0009A40218832EA01010FD199000F278F406C
:1076000026EA070600FA01F10E43E178282901D1A4
:107610006A6102E0482900D12A610133072BE6D9CB
:107620002E602388FF2B1ED96E68002318E003F11B
:10763000080101228A40218832EA01010FD1990014
:107640000F278F4026EA070600FA01F10E43E17882
:10765000282900D16A61E178482900D12A610133E3
:10766000072BE4D96E60F8BD00080140044801080A
:1076700038B504460D462A4B98421CD003F580636A
:10768000984218D003F58063984214D003F58063C4
:10769000984210D003F5806398420CD003F58063C4
:1076A000984208D003F58063984204D04FF48F715C
:1076B0001C4801F0D3FC6B1E9BB2012B28D9042D72
:1076C00026D0082D24D0102D22D0202D20D0402DC2
:1076D0001ED0802D1CD0B5F5807F19D0B5F5007F68
:1076E00016D0B5F5806F13D0B5F5006F10D0B5F595
:1076F000805F0DD0B5F5005F0AD0B5F5804F07D09B
:10770000B5F5004F04D040F21F11064801F0A6FC69
:10771000A3681D4201D0012038BD002038BD00BF44
:10772000000801400448010838B504460D46144BD2
:1077300098421CD003F58063984218D003F580630B
:10774000984214D003F58063984210D003F580630B
:1077500098420CD003F58063984208D003F580630B
:10776000984204D040F26911064801F077FC25B92F
:107770004FF4B571034801F071FC256138BD00BFBD
:10778000000801400448010838B504460D46144B72
:1077900098421CD003F58063984218D003F58063AB
:1077A000984214D003F58063984210D003F58063AB
:1077B00098420CD003F58063984208D003F58063AB
:1077C000984204D040F27911064801F047FC25B9EF
:1077D0004FF4BD71034801F041FC656138BD00BF45
:1077E0000008014004480108F0B587B004460D4682
:1077F000544B984207D003F58063984203D0C621CA
:10780000514801F02BFC2B68013B504A934203D9AD
:10781000C7214D4801F022FCAB883BB1022B05D0BB
:107820000A2B03D0C821484801F018FCEB88B3F5B7
:10783000804F07D04BF6FF72934203D0C9214248D4
:1078400001F00CFC2B89B3F5806F03D3CA213E48AD
:1078500001F004FC6B89B3F5806F04D01BB1CB2120
:10786000394801F0FBFBAB89B3F5804F06D0B3F587
:10787000404F03D0CC21344801F0F0FBA688B6B2CB
:1078800026F03F06B6B201A800F074FB0398304919
:10789000A1FB0031890C8FB23E43A680228892B2B0
:1078A00022F0010292B222802B682A4A934209D820
:1078B0005B00B0FBF3F39BB2032B00D8042301372A
:1078C000278427E0EE884BF6FF72964205D103EB42
:1078D0004302B0FBF2F39BB208E003EB830303EB3C
:1078E0008303B0FBF3F39BB243F48043C3F30B0277
:1078F0000AB943F0010343F400434FF4967201FBCD
:1079000002F1154A82FB0102C917C1EBA211013134
:1079100089B22184A38323889BB243F0010323808F
:1079200023889BB223F4816323F00203A9886A8928
:107930000A4313432380AA892B891343238107B069
:10794000F0BD00BF00540040384801087F1A06000F
:1079500083DE1B43A0860100D34D621038B5044678
:107960000D46104B984208D003F58063984204D02E
:107970004FF4A9710C4801F071FB012D04D940F2BC
:107980005311094801F06AFB2DB123889BB243F0E3
:107990000103238038BD23889BB223F001039BB2EF
:1079A000238038BD005400403848010838B50446EB
:1079B0000D46104B984208D003F58063984204D0DE
:1079C0004FF4CD710C4801F049FB012D04D940F270
:1079D0009B11094801F042FB2DB123889BB243F46F
:1079E0008073238038BD23889BB223F480739BB2BD
:1079F000238038BD005400403848010838B504469B
:107A00000D46104B984208D003F58063984204D08D
:107A10004FF4D9710C4801F021FB012D04D940F23B
:107A2000B311094801F01AFB2DB123889BB243F42E
:107A30000073238038BD23889BB223F400739BB26C
:107A4000238038BD005400403848010838B504464A
:107A50000D46104B984208D003F58063984204D03D
:107A60004FF4E5710C4801F0F9FA012D04D940F208
:107A7000CB11094801F0F2FA2DB123889BB243F4EF
:107A80008063238038BD23889BB223F480639BB23C
:107A9000238038BD005400403848010838B50546F9
:107AA0000C46074B984208D003F58063984204D0F7
:107AB00040F25521034801F0D1FAA4B22C8238BD1E
:107AC000005400403848010810B50446074B98425E
:107AD00008D003F58063984204D040F26221044844
:107AE00001F0BCFA208AC0B210BD00BF00540040B3
:107AF0003848010870B505460C4616460D4B9842AD
:107B000008D003F58063984204D04FF41D710A48F1
:107B100001F0A4FA012E04D940F27521064801F0C3
:107B20009DFA16B144F0010401E004F0FE04A4B291
:107B30002C8270BD005400403848010838B5054615
:107B40000C462F4B984208D003F58063984204D02E
:107B50004FF487612B4801F081FA2B4B9C4240D0B7
:107B6000B4F1021F3DD0294B9C423AD0B4F5020F2C
:107B700037D0B4F5901F34D0254B9C4231D003F55B
:107B800000039C422DD0A3F5E0039C4229D0214B59
:107B90009C4226D003F500039C4222D0A3F5E003CB
:107BA0009C421ED0102C1CD01B4B9C4219D01B4B4E
:107BB0009C4216D01A4B9C4213D03E339C4210D0AC
:107BC000184B9C420DD0043B9C420AD0164B9C4261
:107BD00007D0B4F5806F04D040F23941094801F074
:107BE0003DFAAB8A9BB22A8B43EA024323F07F43E0
:107BF00034EA030301D1012038BD002038BD00BFA5
:107C000000540040384801088200060080008600C9
:107C1000400002008400060001000300820007000B
:107C200002000300840007000800030030B583B0A1
:107C300005460C46002301930093364B984208D02A
:107C400003F58063984204D040F29E41324801F02F
:107C500005FAB4F5000F45D0B4F5800F42D0B4F565
:107C6000001F3FD0B4F5801F3CD0B4F5802F39D031
:107C7000B4F5003F36D0B4F5803F33D0274B9C425B
:107C800030D0A3F580439C422CD0B4F1102F29D0E2
:107C9000A3F560539C4225D0A3F580639C4221D07C
:107CA000A3F500739C421DD0A3F580739C4219D0AC
:107CB000803B9C4216D0403B9C4213D0303B9C42C0
:107CC00010D0083B9C420DD0043B9C420AD0023BA2
:107CD0009C4207D0013B9C4204D040F29F410E4899
:107CE00001F0BCF90095230F019324F07F44019B20
:107CF0001BB1009B1433009303E0240C009B18334A
:107D00000093009B1B681C4201D0012000E0002072
:107D100003B030BD00540040384801080080001016
:107D20000D4B1A6842F001021A6059680B4A0A406A
:107D30005A601A6822F0847222F480321A601A683B
:107D400022F480221A605A6822F4FE025A604FF42C
:107D50001F029A60704700BF001002400000FFF849
:107D600010B5044650B1B0F5803F07D0B0F5802F74
:107D700004D040F211110F4801F070F90E4B1A684F
:107D800022F480321A601A6822F480221A60B4F554
:107D9000803F03D0B4F5802F06D010BD064A13688B
:107DA00043F48033136010BD034A136843F4A023E7
:107DB000136010BD684801080010024038B50C4639
:107DC000054650B1B0F5803F07D0B0F5403F04D034
:107DD00040F27F111D4801F041F974B3B4F5802FD2
:107DE0002BD0B4F5002F28D0B4F5402F25D0B4F512
:107DF000801F22D0B4F5A01F1FD0B4F5C01F1CD027
:107E0000B4F5E01F19D0B4F5001F16D0B4F5101F5B
:107E100013D0B4F5201F10D0B4F5301F0DD0B4F539
:107E2000401F0AD0B4F5501F07D0B4F5601F04D02E
:107E30004FF4C071054801F011F9054A536823F465
:107E40007C132C431C43546038BD00BF68480108B4
:107E50000010024010B50446012804D94FF4CA713D
:107E6000024801F0FBF8024B1C6010BD6848010895
:107E70006000424210B50446022804D94FF40E7146
:107E8000044801F0EBF8044B586820F0030020434D
:107E9000586010BD6848010800100240024B586845
:107EA00000F00C00704700BF0010024010B50446FF
:107EB000A0B1802812D0902810D0A0280ED0B028D1
:107EC0000CD0C0280AD0D02808D0E02806D0F0284E
:107ED00004D04FF41971054801F0C0F8044B5868FC
:107EE00020F0F0002043586010BD00BF6848010832
:107EF0000010024010B5044680B1B0F5806F0DD07F
:107F0000B0F5A06F0AD0B0F5C06F07D0B0F5E06F44
:107F100004D040F27E21054801F0A0F8044B5868D7
:107F200020F4E0602043586010BD00BF684801089D
:107F30000010024010B5044680B1B0F5806F0DD03E
:107F4000B0F5A06F0AD0B0F5C06F07D0B0F5E06F04
:107F500004D04FF42671054801F080F8044B5868AE
:107F600020F4605040EAC400586010BD6848010821
:107F70000010024010B4294B5B6803F00C03042B83
:107F800005D0082B06D013BB254B036021E0254B01
:107F900003601EE0214A53685268C3F383430233EF
:107FA00012F4803F04D1204A02FB03F3036010E087
:107FB0001A4A526812F4003F04D01C4A02FB03F331
:107FC000036006E0174A02FB03F3036001E0144B71
:107FD000036012494B68C3F30313154CE35CDAB238
:107FE0000368D34043604A68C2F30222A25CD2B263
:107FF00023FA02F282604A68C2F3C222A25CD2B2C1
:10800000D340C3604A68C2F381320A498A5CD2B263
:10801000B3FBF2F3036110BC704700BF00100240D5
:1080200000127A00001BB70000093D00808D5B0044
:10803000080000200400002038B504460D460E4B11
:10804000034003B920B940F24A410C4801F006F858
:10805000012D04D940F24B41084800F0FFFF25B143
:10806000074A93691C43946138BD054A936923EA22
:108070000404946138BD00BF0200C0FF68480108D5
:108080000010024038B504460D460E4B184200D190
:1080900020B940F269410C4800F0E0FF012D04D9FD
:1080A00040F26A41084800F0D9FF25B1074AD36978
:1080B0001C43D46138BD054AD36923EA0404D46162
:1080C00038BD00BF00360181684801080010024039
:1080D00010B50446212818D0312816D0392814D0DC
:1080E000412812D0612810D07A280ED07B280CD0DD
:1080F0007C280AD07D2808D07E2806D07F2804D08E
:1081000040F234510D4800F0A9FF6309012B02D160
:108110000B4B1B6806E0022B02D1094B1B6A01E0E6
:10812000074B5B6A04F01F0423FA04F414F0010FF8
:1081300001D0012010BD002010BD00BF684801081B
:108140000010024000B583B0002301933120FFF7F7
:10815000BFFF019B01330193019BB3F5A06F01D0D9
:108160000028F3D03120FFF7B3FF08B1012000E071
:10817000002003B05DF804FB2DE9F04105460C46F4
:10818000464B98420BD0A3F57843984207D003F5AD
:108190008063984203D0A321414800F05FFF238809
:1081A00063B1B3F5806F09D0B3F5004F06D0B3F5D6
:1081B000404F03D0A6213A4800F050FF6388B3F542
:1081C000827F04D01BB1A721354800F047FFA38868
:1081D000B3F5006F04D01BB1A821314800F03EFF79
:1081E000E3882BB1022B03D0A9212D4800F036FFE4
:1081F0002389012B03D9AA21294800F02FFF638985
:10820000B3F5007F04D01BB1AB21254800F026FF59
:10821000A3898BB1082B0FD0102B0DD0182B0BD0AE
:10822000202B09D0282B07D0302B05D0382B03D09A
:10823000AC211B4800F012FFE3892BB1802B03D047
:10824000AD21174800F00AFF238A1BB9AE2114485C
:1082500000F004FF2B8803F4415720886688A1882A
:10826000B4F806802289B4F80AC0A389B4F80EE0F5
:108270003043084348EA000111434CEA01021A4323
:108280004EEA02033B432B80AB8B9BB223F400638B
:108290009BB2AB83238A2B82BDE8F0810030014082
:1082A0009848010838B504460D46124B98420CD048
:1082B000A3F57843984208D003F58063984204D030
:1082C00040F2B7110C4800F0C9FE012D04D94FF45B
:1082D000DC71094800F0C2FE2DB123889BB243F047
:1082E0004003238038BD23889BB223F040039BB218
:1082F000238038BD003001409848010838B5044655
:108300000D46094B98420CD0A3F57843984208D00B
:1083100003F58063984204D040F23A21034800F00C
:108320009DFEA58138BD00BF00300140984801087E
:1083300010B50446094B98420CD0A3F578439842F7
:1083400008D003F58063984204D040F24A210448E3
:1083500000F084FEA08980B210BD00BF0030014053
:108360009848010838B505460C46164B98420CD083
:10837000A3F57843984208D003F58063984204D06F
:1083800040F21631104800F069FE802C12D0402CCB
:1083900010D0202C0ED0102C0CD0082C0AD0042C7D
:1083A00008D0022C06D0012C04D040F21731064828
:1083B00000F054FE2B891C4201D0012038BD002062
:1083C00038BD00BF003001409848010838B5044668
:1083D0000D46524B984242D0B0F1804F3FD0A3F5AA
:1083E000943398423BD003F58063984237D003F52D
:1083F0008063984233D003F5806398422FD003F511
:10840000806398422BD003F59033984227D003F530
:10841000C053984223D003F5806398421FD003F5E0
:10842000806398421BD0A3F59E33984217D003F582
:108430008063984213D003F5806398420FD003F510
:10844000903398420BD003F58063984207D003F530
:108450008063984203D0E721314800F0FFFD6B882C
:108460005BB1102B09D0202B07D0402B05D0602BFF
:1084700003D0E8212A4800F0F1FDEB884BB1B3F5B9
:10848000807F06D0B3F5007F03D0E921244800F0B7
:10849000E5FD23889BB2214A944212D002F5006286
:1084A00094420ED0B4F1804F0BD0A2F59832944292
:1084B00007D002F58062944203D002F580629442B4
:1084C00003D123F070036A881343164A944208D0FC
:1084D00002F58062944204D023F440739BB2EA8890
:1084E00013432380AB88A3852B8823850B4B9C42A9
:1084F0000FD003F500639C420BD003F540639C4210
:1085000007D003F580639C4203D003F580639C424F
:1085100001D12B7A23860123A38238BD002C014090
:10852000C84801080010004038B504460D462E4BDF
:10853000984243D0B0F1804F40D0A3F59433984295
:108540003CD003F58063984238D003F580639842AD
:1085500034D003F58063984230D003F580639842AD
:108560002CD003F59033984228D003F5C05398429D
:1085700024D003F58063984220D003F580639842AD
:108580001CD0A3F59E33984218D003F5806398421F
:1085900014D003F58063984210D003F590339842CD
:1085A0000CD003F58063984208D003F580639842AD
:1085B00004D040F229310D4800F050FD012D04D9BE
:1085C00040F22A31094800F049FD2DB123889BB2C1
:1085D00043F00103238038BD23889BB223F00103BD
:1085E0009BB2238038BD00BF002C0140C848010861
:1085F00070B504460D461646314B984243D0B0F153
:10860000804F40D0A3F5943398423CD003F580636B
:10861000984238D003F58063984234D003F58063E4
:10862000984230D003F5806398422CD003F5903304
:10863000984228D003F5C053984224D003F58063B4
:10864000984220D003F5806398421CD0A3F59E3356
:10865000984218D003F58063984214D003F58063E4
:10866000984210D003F5903398420CD003F5806304
:10867000984208D003F58063984204D040F26B31F1
:10868000104800F0EBFC15F47F4F00D125B94FF4F2
:108690005B710C4800F0E2FC012E04D940F26D3110
:1086A000084800F0DBFC26B1A3899BB21D43A581DD
:1086B00070BDA389ED43ADB21D40A58170BD00BF63
:1086C000002C0140C848010870B504460E46154606
:1086D000284B984243D0B0F1804F40D0A3F594335B
:1086E00098423CD003F58063984238D003F580630C
:1086F000984234D003F58063984230D003F580630C
:1087000098422CD003F59033984228D003F5C053FB
:10871000984224D003F58063984220D003F580630B
:1087200098421CD0A3F59E33984218D003F580637D
:10873000984214D003F58063984210D003F590332B
:1087400098420CD003F58063984208D003F580630B
:10875000984204D040F29B41074800F07FFC012D75
:1087600004D940F29C41044800F078FC2685A5829B
:1087700070BD00BF002C0140C848010838B5044650
:108780000D462A4B984243D0B0F1804F40D0A3F51C
:10879000943398423CD003F58063984238D003F577
:1087A0008063984234D003F58063984230D003F55B
:1087B000806398422CD003F59033984228D003F57B
:1087C000C053984224D003F58063984220D003F52B
:1087D000806398421CD0A3F59E33984218D003F5CD
:1087E0008063984214D003F58063984210D003F55B
:1087F000903398420CD003F58063984208D003F57B
:108800008063984204D040F63621094800F026FCE7
:1088100015F4614F00D125B940F63721044800F026
:108820001DFCED43ADB2258238BD00BF002C0140D8
:10883000C848010838B504460D46344B984243D029
:10884000B0F1804F40D0A3F5943398423CD003F56B
:108850008063984238D003F58063984234D003F5A2
:108860008063984230D003F5806398422CD003F5A2
:108870009033984228D003F5C053984224D003F592
:108880008063984220D003F5806398421CD0A3F502
:108890009E33984218D003F58063984214D003F5B4
:1088A0008063984210D003F5903398420CD003F5C2
:1088B0008063984208D003F58063984204D040F664
:1088C0005821134800F0CAFB6B1E9BB2012B10D934
:1088D000042D0ED0082D0CD0102D0AD0202D08D03C
:1088E000402D06D0802D04D040F65921084800F0D4
:1088F000B5FB228AA3892B40154202D01BB9002068
:1089000038BD002038BD012038BD00BF002C01401B
:10891000C848010838B504460D462A4B984243D052
:10892000B0F1804F40D0A3F5943398423CD003F58A
:108930008063984238D003F58063984234D003F5C1
:108940008063984230D003F5806398422CD003F5C1
:108950009033984228D003F5C053984224D003F5B1
:108960008063984220D003F5806398421CD0A3F521
:108970009E33984218D003F58063984214D003F5D3
:108980008063984210D003F5903398420CD003F5E1
:108990008063984208D003F58063984204D040F683
:1089A0008221094800F05AFB15F47F4F00D125B908
:1089B00040F68321044800F051FBED43ADB225821F
:1089C00038BD00BF002C0140C848010830B587B051
:1089D00004460D46644B984213D0A3F57443984265
:1089E0000FD003F5806398420BD003F58063984263
:1089F00007D003F58063984203D0B8215B4800F0AC
:108A00002DFB2B68013B5A4A934203D9B9215748A1
:108A100000F024FBAB8833B1B3F5805F03D0BA21FB
:108A2000524800F01BFBEB8863B1B3F5805F09D0BF
:108A3000B3F5005F06D0B3F5405F03D0BB214B48D0
:108A400000F00CFB2B894BB1B3F5806F06D0B3F56A
:108A5000C06F03D0BC21454800F000FB6A8922F0BA
:108A60000C039BB203B91AB9BD21404800F0F6FAD5
:108A7000AB8963B1B3F5807F09D0B3F5007F06D031
:108A8000B3F5407F03D0BE21384800F0E7FAAB8948
:108A900073B1354B9C420BD0A3F574439C4207D075
:108AA00003F580639C4203D0C221304800F0D6FA1F
:108AB000238A9BB2EA8823F4405313432382A38979
:108AC0009BB2AA88298968890A43024323F4B053D8
:108AD00023F00C031343A381A38A9BB2AA8923F436
:108AE00040731343A38201A8FFF744FA1E4B9C4234
:108AF00001D1049A00E0039AA38913F4004F08D02F
:108B000002EB820202EB820229684900B2FBF1F11A
:108B100007E002EB820202EB820229688900B2FBC5
:108B2000F1F1144BA3FB01235B091B011A0964201B
:108B300000FB1212A18911F4004F08D0D20032328A
:108B40000C49A1FB0212C2F342121A4307E01201C0
:108B500032320849A1FB0212C2F343121A4392B205
:108B6000228107B030BD00BF00380140F84801083D
:108B70001FAA44001F85EB5170B505460C46234BD8
:108B800098420CD0A3F57443984208D003F5806353
:108B9000984204D04FF499711D4800F05FFA238881
:108BA0003BB1B3F5006F04D040F23311184800F028
:108BB00055FA63883BB1B3F5806F04D04FF49A71D6
:108BC000134800F04BFAA3883BB1B3F5007F04D003
:108BD00040F235110E4800F041FAE3883BB1B3F59D
:108BE000807F04D04FF49B71094800F037FA2B8A3C
:108BF0009BB226886188A288E08831430A430243F9
:108C000023F4706313432B8270BD00BF0038014012
:108C1000F848010838B504460D46164B984214D062
:108C2000A3F57443984210D003F5806398420CD0AA
:108C300003F58063984208D003F58063984204D01E
:108C40004FF4B1710C4800F009FA012D04D940F23B
:108C50006311094800F002FA2DB1A3899BB243F4D5
:108C60000053A38138BDA3899BB223F400539BB268
:108C7000A38138BD00380140F848010870B50446AA
:108C80000D461646364B984214D0A3F574439842CD
:108C900010D003F5806398420CD003F580639842AE
:108CA00008D003F58063984204D040F289112D4822
:108CB00000F0D4F9282D1ED040F227739D421AD01F
:108CC00040F226639D4216D040F225539D4212D0B9
:108CD00040F224439D420ED040F646039D420AD006
:108CE00040F66A139D4206D0602D04D04FF4C57142
:108CF0001C4800F0B3F9012E04D940F28B11194839
:108D000000F0ACF940F66A139D420FD1144B9C421F
:108D10000CD0A3F574439C4208D003F580639C42B9
:108D200004D040F28F110F4800F098F9C5F34212B9
:108D300005F01F05012303FA05F59A4201D10C3411
:108D400004E0022A01D1103400E014341EB123687B
:108D50001D43256070BD236823EA0505256070BDAD
:108D600000380140F848010838B504460D46124B5A
:108D7000984214D0A3F57443984210D003F5806351
:108D800098420CD003F58063984208D003F58063C5
:108D9000984204D040F25F21084800F05FF9B5F531
:108DA000007F04D34FF41871044800F057F9C5F35D
:108DB0000805A58038BD00BF00380140F84801080B
:108DC00010B504460D4B984214D0A3F57443984255
:108DD00010D003F5806398420CD003F5806398426D
:108DE00008D003F58063984204D04FF41C71044806
:108DF00000F034F9A088C0F3080010BD003801402D
:108E0000F848010838B505460C46264B984214D060
:108E1000A3F57443984210D003F5806398420CD0B8
:108E200003F58063984208D003F58063984204D02C
:108E300040F286311C4800F011F9012C18D0802C2A
:108E400016D0402C14D0202C12D0102C10D0B4F5F9
:108E5000807F0DD0B4F5007F0AD0082C08D0042CF8
:108E600006D0022C04D040F287310F4800F0F6F80B
:108E7000B4F5007F0FD10B4B9D420CD0A3F574438A
:108E80009D4208D003F580639D4204D040F28B31AF
:108E9000054800F0E3F82B881C4201D0012038BDC2
:108EA000002038BD00380140F848010838B50546B3
:108EB0000C463C4B984214D0A3F57443984210D012
:108EC00003F5806398420CD003F58063984208D084
:108ED00003F58063984204D040F2D931324800F063
:108EE000BDF8282C25D040F227739C4221D040F2B7
:108EF00026639C421DD040F225539C4219D040F27B
:108F000024439C4215D040F646039C4211D040F6C3
:108F10006A139C420DD0B4F5587F0AD0B4F5187F7F
:108F200007D0B4F5B07F04D040F2DA311E4800F02B
:108F300095F840F66A139C420FD11A4B9D420CD013
:108F4000A3F574439D4208D003F580639D4204D08D
:108F500040F2DE31144800F081F8C4F3421204F00C
:108F60001F0101238B40012A03D1AA8992B2134029
:108F700008E0022A03D12A8A92B2134002E0AA8AA8
:108F800092B21340240A012202FA04F42A8892B20F
:108F9000144013B11CB9002038BD002038BD012099
:108FA00038BD00BF00380140F8480108FEE700BFA7
:108FB00008B50120FFF7FAFF08B50D4B1B6813B980
:108FC0000C4A0B4B1A600A4B1A68C31C23F00303AC
:108FD000134409498B4206D90AF0DCF80C230360DC
:108FE0004FF0FF3008BD02490B60104608BD00BFBE
:108FF0007C020020AC1D002000B80020012303608B
:10900000014B0B60704700BF1800002008B50AF044
:10901000C1F8582303604FF0FF3008BD08B50AF0CF
:10902000B9F8582303604FF0FF3008BD08B50AF0C7
:10903000B1F858230360002008BD00BF08B50AF04E
:10904000A9F8582303604FF0FF3008BD08B50AF0B7
:10905000A1F8582303604FF0FF3008BD08B5FFF7B3
:10906000A7FF00BF08B500F067F808BD82B0002375
:10907000019300932C4A136843F4803313602A4B06
:109080001B6803F400330093019B01330193009BA1
:109090001BB9019BB3F5A06FF1D1234B1B6813F4EF
:1090A000003F02D00123009301E000230093009BC6
:1090B000012B36D11D4B1A6842F010021A601A6853
:1090C00022F003021A601A6842F002021A60A3F545
:1090D00080535A685A605A685A605A6842F48062EB
:1090E0005A605A6822F47C125A605A6842F4E812B4
:1090F0005A601A6842F080721A600B4B1B6813F0BA
:10910000007FFAD0084B5A6822F003025A605A686E
:1091100042F002025A60044B5B6803F00C03082B18
:10912000F9D102B0704700BF001002400020024099
:1091300008B5FFF79BFF08BD08B5104B1A6842F051
:1091400001021A6059680E4A0A405A601A6822F0F1
:10915000847222F480321A601A6822F480221A6023
:109160005A6822F4FE025A604FF41F029A60FFF719
:10917000DFFF4FF00062034B9A6008BD0010024011
:109180000000FFF800ED00E00278437803EB0220D6
:1091900080B270470A0A034603F8022B4170184652
:1091A000704700BF2DE9F0410027BE463E4601F161
:1091B000010C0C78A5B2BEF1000F00D1013604F00D
:1091C000C008B8F1C00F0ED1BEF1000F00D10136BA
:1091D000240204F47C544978214401F1010C8444B4
:1091E000455C4FF0010ECDB15B1B013B1BB2002B68
:1091F0001DDBBEF1000F00D12E44614605E091F960
:10920000005015702546013101326C1EA4B2002DAC
:10921000F5D12E24147001370132C8E717B92E2377
:1092200013700132002313703046BDE8F0814FF017
:10923000FF30BDE8F08100BF10B586B00C461823A2
:109240006A46FFF7AFFFB0F1FF3F02D02044043081
:1092500000E0002006B010BDF0B587B007460C4610
:10926000164618236A46FFF79DFFB0F1FF3F52D024
:1092700004442046FFF788FF04F10A0501380E2850
:109280004BD8DFE800F008134A4A13321313134A8D
:109290004A131E4A2600A37A3370E37A7370237B45
:1092A000B370637BF37004F10E003FE018236A464D
:1092B00029463846FFF776FFB0F1FF3F2FD028440C
:1092C00034E004F10B00A37AC25C01331344184468
:1092D0002CE00C3418236A4621463846FFF762FF1B
:1092E000B0F1FF3F1DD0204420E018236A462946F4
:1092F0003846FFF757FFB0F1FF3F14D0054418235D
:109300006A4629463846FFF74DFFB0F1FF3F0CD0C3
:10931000284414300AE0002008E0284606E0002037
:1093200004E0002002E0002000E0002007B0F0BDD3
:10933000F8B505460E461746002303600846FFF7BA
:1093400023FF2880B01CFFF71FFF10F4004F01D04F
:109350000123AB70C0F3C323EB7000F480639BB2B6
:109360000BB101232B7100F400739BB20BB10123ED
:109370006B7100F480739BB20BB10123AB7100F0F1
:1093800080039BB20BB10123EB7100F00F00287238
:10939000301DFFF7F9FE6881B01DFFF7F5FEA881CB
:1093A00006F10800FFF7F0FEE88106F10A00FFF77A
:1093B000EBFE288206F10C01002406E03046FFF7A0
:1093C0003BFF014618B30134A4B26B899C42F5D32C
:1093D000002407E03A463046FFF73EFF0146C8B199
:1093E0000134A4B2AB899C42F4D3002301E00133E1
:1093F0009BB2EA899342FAD3002301E001339BB286
:109400002A8A9342FAD32B7A3BB90120F8BD4FF058
:10941000FF30F8BD4FF0FF30F8BD0020F8BD00BFB1
:109420002DE9F04786B004460D4691462B4B19882E
:10943000013189B219801046FFF7ACFEE10241F418
:10944000807101F47941FFF7A5FE0121FFF7A2FE2B
:109450000021FFF79FFE0021FFF79CFE0021FFF790
:1094600099FE0646294668460AF084F868460AF0DE
:1094700089F81FFA80FA6D462E2128460AF062F814
:10948000074610B1431B9CB200E0544606F10108A8
:109490003470ACB12246294640460AF07BF808EB0E
:1094A000040627B906F101080023337008E0631CA5
:1094B0001D44C4EB0A04A4B2013C1FFA84FADBE7A2
:1094C00001214046FFF766FE0121FFF763FEC9EB6D
:1094D000000000B206B0BDE8F08700BF840C002099
:1094E0000B4B1B68022B10D90022094B1A60094B49
:1094F0001B78012B04D9074B1A704FF0FF307047CF
:109500000133044A1370002070470120704700BFE8
:109510007C0C002081020020044B1870044B196061
:1095200041F22212034B1A80704700BF780C0020D2
:10953000800C0020840C00202DE9F0418AB0064602
:1095400088461746264C00231A460221207801F04F
:109550002DF8244D4FF480732A6841460020FFF710
:109560005FFF2968247835230093334682B2204672
:1095700001F0E0FA1A4B187800F038FF0446D0B139
:10958000B0F5807F01D94FF48074164E144D2878C1
:109590000DF10E03009304AB2246316801F074FB19
:1095A0003A46316805A8FFF7C3FE0446287800F064
:1095B000C1FF204611E0FFF793FF00280CDB0028D5
:1095C000D8D1084B1968064B1878352300933346D9
:1095D000224601F0AFFACDE700200AB0BDE8F081E5
:1095E000780C0020800C0020024A136801331360BD
:1095F000704700BF7C0C002008B5042208494FF4D6
:10960000706000F08BFE042206494FF4A06000F069
:1096100085FE042204494FF4807000F07FFE08BDEF
:1096200094020020840200209002002008B58021CE
:10963000002000F001FE002000F0CCFDFFF7DCFF71
:10964000062203494FF4106000F068FE08BD00BF19
:10965000880C002008B58021002000F0EDFD0020DE
:1096600000F0B8FD062203494FF4106000F056FEEA
:1096700008BD00BF880C002010B40A4C0A4B1C60C7
:109680000A4C0B4B1C600B4C0B4B1C6010B103467F
:109690000548036009B1064B19600AB1064B1A6010
:1096A00010BC7047F9950008280000202D9600088E
:1096B00024000020559600082C00002010B582B030
:1096C000062269464FF4106000F0EAFD32490A684C
:1096D000012313700A6853700A68062393700868A0
:1096E0000022C27008682D4909680C0E0471C1F38C
:1096F00007444471C1F307248471C1710281802140
:109700008172C272027342738273C27302744274B2
:109710008274C274027542758275C2750276427691
:109720008276C2761E4A1178017751784177917816
:109730008177D178C177117980F82010527980F83B
:10974000212004E0C218002111770133DBB20F2B76
:10975000F8D9002305E0C218002182F82C1001334B
:10976000DBB23F2BF7D9002305E0C218002182F8B5
:109770006C100133DBB213F0800FF6D0632380F856
:10978000EC30822280F8ED20532280F8EE2080F821
:10979000EF3002B010BD00BF980C0020900C0020EC
:1097A000880C0020F0B585B0FFF788FF534B19688F
:1097B000352381F8F030012381F8F13081F8F2305F
:1097C0003D2281F8F320072281F8F42081F8F5305A
:1097D0004B4B1A7881F8F6205A7881F8F7209A785E
:1097E00081F8F820DF7881F8F9701E7981F8FA6045
:1097F0005D7981F8FB500C2381F8FC30002281F860
:10980000FD20122308E0581C3E4CA45C0B4483F856
:10981000EC40013292B283B214463A48805C002890
:10982000F1D1581C80B201EB030E8EF8EC709F1C36
:10983000BFB2084480F8EC60D81C80B2CE1986F81C
:10984000EC500434041B0C44033284F8EC201C1D3F
:10985000A4B20844372280F8EC205A1D92B20819AD
:10986000062480F8EC40181980B20A44012582F8D9
:10987000EC50DA1D92B20844032580F8EC5003F155
:10988000080080B20A4482F8EC4003F1090292B267
:1098900008440F2480F8EC4003F10A0080B20A4427
:1098A0003A2482F8EC4003F10B0292B208443B24C4
:1098B00080F8EC400C339BB20A44FF2082F8EC00A5
:1098C00005E0CA18002082F8EC0001339BB2B3F522
:1098D0009C7FF6D3FF238DF80C308DF80D308DF87A
:1098E0000E308DF80F30084B18784323009303ABEC
:1098F0004FF4097201F01EF905B0F0BD980C00207C
:10990000880C0020340000209C0C0020F0B585B0AD
:10991000FFF7D4FE814B1B78033BDBB2012B1BD836
:109920007F4B1B6800229A72DA727E4A1178197393
:109930005178597391789973D278DA737A4B1A788F
:109940008DF80C205A788DF80D209A788DF80E201D
:10995000DB788DF80F3008E0FF238DF80C308DF8A0
:109960000D308DF80E308DF80F306D4B19683523A2
:1099700081F8F030012381F8F130032281F8F220E0
:109980003D2281F8F320072281F8F42081F8F53098
:10999000664B1A7881F8F6205A7881F8F7209A7881
:1099A00081F8F820DF7881F8F9701E7981F8FA6083
:1099B0005D7981F8FB509DF80F30FF2B26D13223C3
:1099C00081F8FC30042281F8FD20564B187881F88C
:1099D000FE00587881F8FF00987881F80001DB7864
:1099E00081F80131362381F8023181F803214E4B91
:1099F0001A7881F804215A7881F805219A7881F83B
:109A00000621DB7881F807311C2300E01023581C65
:109A1000CA180C2482F8EC4002330844002280F873
:109A2000EC2005E05C1C0B4483F8EC000132A3B28F
:109A30003F48805C0028F5D1581C80B2CC1884F8CF
:109A4000EC709C1CA4B2084480F8EC60D81C80B276
:109A50000C4484F8EC50141D041B0C44033284F8AD
:109A6000EC201C1DA4B20844372280F8EC205A1DBB
:109A700092B20819082480F8EC40981D80B20A447C
:109A8000012482F8EC40DA1D92B20844032480F8E5
:109A9000EC4003F1080080B20A44062482F8EC404E
:109AA00003F1090292B208440F2480F8EC4003F15C
:109AB0000A0080B20A443A2482F8EC4003F10B0217
:109AC00092B208443B2480F8EC4003F10C0080B2D1
:109AD0000A441F2482F8EC4003F10D0292B20844BC
:109AE000212480F8EC400E330A44FF2082F8EC0079
:109AF0009BB204E0CA18002082F8EC000133B3F5F1
:109B00009C7FF7DB0B4B18784323009303AB4FF498
:109B1000097201F00FF805B0F0BD00BF820200200D
:109B2000980C002094020020940C0020880C002047
:109B3000340000209C0C002000B585B0FFF7BEFD6E
:109B4000374B196800238B72CB72352381F8F030C4
:109B5000012381F8F130042281F8F2203D2081F8C0
:109B6000F300072081F8F40081F8F5302D4B1878C8
:109B700081F8F600587881F8F700987881F8F800B5
:109B8000D87881F8F900187981F8FA005B7981F8C2
:109B9000FB30322381F8FC3081F8FD20224B18780D
:109BA00081F8FE00587881F8FF00987881F800016C
:109BB000DB7881F80131362381F8023181F8032105
:109BC0001A4B1A7881F804215A7881F805219A787D
:109BD00081F80621DB7881F80731FF2381F808310D
:109BE0001D2304E0CA18002082F8EC000133B3F50D
:109BF0009C7FF7DBFF238DF80C308DF80D308DF84E
:109C00000E308DF80F300A4B18784323009303ABC6
:109C10004FF4097200F08EFF05B05DF804FB00BF41
:109C2000980C0020880C002094020020940C002046
:109C30009C0C002030B587B05A4B187800F0D6FB4A
:109C4000002800F0A0800246574B1968554B187841
:109C50000DF10E03009304AB01F016F8BDF80E30C1
:109C6000432B40F08E80504B1B68197F4F4A12786F
:109C7000914240F08A80597F4C4A5278914240F09C
:109C80008680997F494A9278914240F08280D97FBC
:109C9000464AD27891427ED193F82010434A1279F5
:109CA00091427AD193F82110404A5279914276D16B
:109CB00003F1F00283B2F03B134400245FE011781B
:109CC00006292FD005D8012913D069B103291BD04B
:109CD00050E035290AD002D8332931D04AE036295C
:109CE0003DD0FF294AD045E0013248E09478033264
:109CF00045E090782E490870D078487010798870C7
:109D00005079C87006323AE05078957829490D703C
:109D1000D5784D7015798D70951D5279CA70021FD6
:109D20002A442CE05078957823490D70D5784D70F1
:109D300015798D70951D5279CA70021F2A441EE054
:109D400090781E4D2860D17801EB0020117901EB4D
:109D50000020517901EB0021296006320FE0907854
:109D600017490870D0784870107988705079C87099
:109D7000063204E0911C52780A4400E01A469A42E6
:109D80009DD360B20CE000200AE0002008E0002033
:109D900006E0002004E0002002E0002000E00020B7
:109DA00007B030BD9C0C0020980C0020880C0020CF
:109DB0008402002090020020980200203000002041
:109DC000940C002030B583B04FF4D85000F002FA64
:109DD000054603214FF4D85000F02EFA104B1878A6
:109DE00041F2883300930F4B11220F4900F0A2FE7D
:109DF000044629464FF4D85000F01EFA14F10D0F16
:109E00000AD0FFF799FE094B1A68084B1B689B1A8A
:109E1000012BFAD9002000E0012003B030BD00BFC3
:109E20009C0C0020940200202C490108880200208C
:109E30000023044A13600A21034A1160034A137085
:109E4000704700BF88020020200000209C020020F4
:109E500010B5214B93F90030012B23DC1F4B1A68FE
:109E60001F4B1B689A4234D21E4B93F90030022BD1
:109E700006D0042B07D0012B07D1FFF793FC04E099
:109E8000FFF744FD01E0FFF741FD154B00221A608A
:109E90001B680A33114A13600F4A13780133137099
:109EA000012417E00F4B93F90030022B07D0042B4D
:109EB00005D0012B09D100240A4B1C7006E0FFF7E6
:109EC00071FC0124074B1C7000E00124FFF7B0FF78
:109ED00000E00124204610BD9C020020200000204C
:109EE0008802002082020020654B93F90030062B87
:109EF00000F0BE8010B5634B187880000130C000C0
:109F000000F5407000F066F9222806D000234422B4
:109F100002215C48007800F049FBFFF78BFEC0B2DD
:109F2000574B93F90030042B00F2A480DFE803F0D4
:109F3000030F264A6A00544B00221A705A709A7016
:109F4000DA70FFF72FFC01204D4B187010BD02286E
:109F500011D14E4B1A68117C4B4B1970517C5970C2
:109F6000917C9970D27CDA70FFF7D0FC0222444BCE
:109F70001A70012010BDFFF76BFF10BD052816D128
:109F8000FFF720FF48B1424B1B689847FFF750FF8F
:109F900003223B4B1A70012010BDFFF749FF3D4BD8
:109FA0001B6898470022364B1A70012010BD062806
:109FB00005D1FFF73DFF0120314B187010BDFFF7B1
:109FC00047FF10BD344B1B68B3F1FF3F54D0334AF9
:109FD0001268B2EB530F51D92B4A1178304B1970DC
:109FE0005178597091789970D278DA702D4A136847
:109FF00001331360FFF78AFCFFF71AFF0420204BA0
:10A00000187010BD052827D10022274B1A70244B49
:10A010001A781D4B1B789A4211D1214B5A781A4B52
:10A020005B789A420BD11E4B9A78174B9B789A42D9
:10A0300005D11B4BDA78144BDB789A4204D01B4BCA
:10A040001B689847032400E00424FFF7F1FE032275
:10A050000B4B1A70204610BD062806D1FFF7E8FE0C
:10A060000122074B1A70042010BDFFF7F1FE10BD4E
:10A0700005207047012010BD042010BD042010BD34
:10A08000820200209C0C002094020020980C0020EA
:10A09000280000202C000020300000208802002032
:10A0A0008C020020900C00209C0200202400002044
:10A0B000F0B583B006460D4600230193234C0622DB
:10A0C00021464FF4106000F0EBF822786178A37815
:10A0D00094F803E0277960790A431A434EEA0203B1
:10A0E0003B4303430ED121460023237008226270B4
:10A0F000DC22A270E3702371637106224FF41060BA
:10A1000000F00CF9124B1E70124B1D60124A134BDB
:10A110001A6004220DEB02014FF4706000F0FEF8AB
:10A1200004220DEB02014FF4706000F0F7F80422F6
:10A130000DEB02014FF4807000F0F0F8FFF778FEAD
:10A140000022074B1A7003B0F0BD00BF880C00203E
:10A150009C0C0020980C002078563412900C0020A3
:10A1600082020020024A136801331360704700BF67
:10A1700088020020044B1A7802705A7842709A784C
:10A180008270DB78C370704794020020044B1A7809
:10A1900002705A7842709A788270DB78C370704788
:10A1A00090020020044B1A7802705A7842709A7814
:10A1B0008270DB78C370704784020020044B1A78E9
:10A1C00002705A7842709A788270DB78C370704758
:10A1D0009802002030B583B00546164CA368984716
:10A1E00023699847236A0BB1636A63B9114CE36929
:10A1F000C5F307409847E369C5F307209847E3692B
:10A20000E8B298470AE02A0C8DF804202A0A8DF853
:10A2100005208DF80650032101A89847054CA36935
:10A220009847054663699847E3689847284603B00E
:10A2300030BD00BF4000002070B582B004460E461D
:10A24000164DAB6898472B69984744F004046B6A35
:10A2500073B9EB69C4F307409847EB69C4F307206F
:10A260009847EB69E0B29847EB69304698470DE0B4
:10A27000220C8DF80420220A8DF805208DF8064066
:10A280008DF8076004210DEB01009847034C6369CA
:10A290009847E368984702B070BD00BF40000020B7
:10A2A000F0B583B004460E4615461B4FBB68984771
:10A2B0003B6998473B6A0BB17B6AB3B9164FFB69A0
:10A2C000C4F307409847FB69C4F307209847FB692C
:10A2D000E0B29847002405E00F4B9B699847305542
:10A2E0000134A4B2AC42F7D30FE0220C8DF8042065
:10A2F000220A8DF805208DF80640032101A8984711
:10A30000054B1B6A294630469847034C63699847BA
:10A31000E368984703B0F0BD40000020F0B583B07B
:10A3200004460F4616461B4DAB6898472B69984765
:10A3300044F004046B6AABB9EB69C4F30740984777
:10A34000EB69C4F307209847EB69E0B29847002413
:10A3500005E0104BDB69385D98470134A4B2B44284
:10A36000F7D30FE0220C8DF80420220A8DF8052087
:10A370008DF80640032101A89847064B5B6A3146D9
:10A3800038469847034C63699847E368984703B099
:10A39000F0BD00BF400000202DE9F0410746002538
:10A3A0004FEA870808F101084FEAC80808F5005687
:10A3B0003046FFF70FFF80B20402A4B208F504583C
:10A3C0004046FFF707FF204484B254B13046FFF700
:10A3D00001FF80B20502ADB24046FFF7FBFE284404
:10A3E00085B2A542DCD12846BDE8F0812DE9F041D7
:10A3F000074600254FEA870808F101084FEAC80818
:10A4000008F518563046FFF7E5FE80B20402A4B204
:10A4100008F51C584046FFF7DDFE204484B254B1D5
:10A420003046FFF7D7FE80B20502ADB24046FFF7D7
:10A43000D1FE284485B2A542DCD12846BDE8F08192
:10A440005AB32DE9F047144689464FEA800A0AF1CB
:10A450000107FF0007F510584046FFF7BBFE064610
:10A4600007F514573846FFF7B5FE00EB062085B216
:10A470000AF10200C0002246494600EB0520FFF722
:10A480004DFF2C44A4B2210A4046FFF7D5FEE1B2AD
:10A490003846FFF7D1FEBDE8F08770475AB32DE983
:10A4A000F047144689464FEA800A0AF10107FF0087
:10A4B00007F520584046FFF78DFE064607F524575E
:10A4C0003846FFF787FE00EB062085B20AF103004D
:10A4D000C0002246494600EB0520FFF7E1FE2C4470
:10A4E000A4B2210A4046FFF7A7FEE1B23846FFF7C3
:10A4F000A3FEBDE8F0877047F8B50E468000441C07
:10A50000E40004F520573846FFF764FE054604F5DD
:10A5100024542046FFF75EFE00EB052085B235444B
:10A52000ADB2290A3846FFF787FEE9B22046FFF7A9
:10A5300083FEF8BD08282ED870B506468400013485
:10A54000E40004F5807510212846FFF775FE2846C3
:10A55000FFF740FE0028FAD11F2104F50070FFF735
:10A560006BFE0123B340DB431BB20C490A881A403F
:10A570000A800B490A8813400B800023094A22F8FD
:10A580001630094A935504F54070FFF723FE002862
:10A59000F9D1012070BD4FF0FF3070479E020020BE
:10A5A000A0020020AC020020A4020020082800F233
:10A5B00086802DE9F04182B005460E4690461F4642
:10A5C00002290FD004290DD001297BD104220DEBE3
:10A5D00002014FF47060FFF763FE019B13B96FF047
:10A5E00002007DE017F0040F6FD1A7B1012E02D059
:10A5F000022E04D00FE017F0210F0CD168E017F005
:10A60000200F02D017F0800F65D017F0100F02D086
:10A6100017F0800F62D02846FFF78CFFAC000134A2
:10A62000E40027F00F0131432046FFF705FEB8F1A3
:10A63000000F0ED12C4AB2F8008008F101039BB242
:10A6400013804FF6F072934203D14FF44042264BF1
:10A650001A804FEA182104F58060FFF7EDFD5FFADC
:10A6600088F104F5A060FFF7E7FD04F5807601218D
:10A670003046FFF7E1FD3046FFF7ACFD0028FAD188
:10A680000123AB40DB431BB218490A881A4012B2BF
:10A6900007F00107AF4017430F8015490A881340A0
:10A6A0000B800023134A22F81530134A535504F542
:10A6B0004070FFF78FFD0028F9D068B210E04FF02E
:10A6C000FF3070476FF004000AE06FF0050007E00C
:10A6D0006FF0050004E06FF0050001E06FF0050089
:10A6E00002B0BDE8F08100BF3C0000209E020020C7
:10A6F000A0020020AC020020A402002008282FD8CD
:10A7000070B5064684000134E4002046FFF762FD80
:10A7100000F00F00012826D104F540752846FFF708
:10A7200059FD132822D104F5807402212046FFF739
:10A7300083FD2046FFF74EFD0028FAD109E02046B0
:10A74000FFF748FD28B93046FFF7F4FE6FF003002D
:10A7500070BD2846FFF73EFD1428F0D1012070BDE2
:10A760004FF0FF3070476FF0040070BD6FF00200D3
:10A7700070BD00BF082867D82DE9F04190460E460D
:10A78000074684000134E4002046FFF723FD00F073
:10A790000F0001285BD104F540752846FFF71AFD2C
:10A7A000132858D13278737803EB0222B37803EB85
:10A7B0000222F37803EB0223013B13F1030F4ED87F
:10A7C000B8F1000F4FD00422314604F54060FFF786
:10A7D000A5FD4FEA182104F58050FFF72DFD5FFA23
:10A7E00088F104F58850FFF727FD04F580760421F1
:10A7F0003046FFF721FD3046FFF7ECFC0028FAD188
:10A800001E4B188840FA07F717F0010F14D02EE0FE
:10A8100004F500763046FFF7DDFC10F0080F07D096
:10A8200008213046FFF708FD6FF00C00BDE8F0810D
:10A830002846FFF7CFFCE8B12846FFF7CBFC1728E6
:10A84000E6D10120BDE8F0814FF0FF3070476FF096
:10A850000400BDE8F0816FF00200BDE8F0816FF008
:10A860000B00BDE8F0816FF00A00BDE8F081002028
:10A87000BDE8F0816FF00300BDE8F0819E0200208A
:10A8800008283AD870B5064684000134E400204612
:10A89000FFF7A0FC00F00F00012831D104F580750E
:10A8A00008212846FFF7C8FC2846FFF793FC00283C
:10A8B000FAD1012303FA06F214490B8823EA0203B2
:10A8C0000B80134B1B88334113F0010F0DD01AE09E
:10A8D00004F50070FFF77EFC10F0080F05D030463D
:10A8E000FFF728FE6FF00C0070BD04F54070FFF715
:10A8F00071FC0028ECD1012070BD4FF0FF30704793
:10A900006FF0040070BD002070BD00BFA0020020E9
:10A910009E02002008287FD82DE9F04714468A4679
:10A920000646814687000137FF003846FFF752FC94
:10A9300000F00F00012872D1002C74D007F5407888
:10A940004046FFF747FC172801D01C286FD13D4B2C
:10A950001B88334113F0010F1ED007F50075284600
:10A96000FFF738FC10F0100F0CD010212846FFF72D
:10A9700063FC012303FA06F232490B8823EA02033F
:10A980000B8009E010F0080F55D03046FFF7D2FDDC
:10A990006FF00C00BDE8F08707F5F850FFF71AFCE0
:10A9A000800285B2AC4200D825463046FFF7F4FC61
:10A9B00004464046FFF70EFC172808D01C2806D096
:10A9C0003046FFF7B7FD6FF00600BDE8F0871E4B7D
:10A9D0001B8843FA09F313F0010F01D0A5422DD8CB
:10A9E000A542E2D82A4651463046FFF729FD07F531
:10A9F000807720213846FFF71FFC3846FFF7EAFB37
:10AA00000028FAD1012303FA06F60E4A13881E43E2
:10AA100016802846BDE8F0874FF0FF3070476FF092
:10AA20000400BDE8F0876FF00D00BDE8F0876FF01F
:10AA30000600BDE8F0870020BDE8F0870020BDE8F3
:10AA4000F08700BFA00200209E020020082860D8E6
:10AA50002DE9F0471446894606460746850001352C
:10AA6000ED002846FFF7B6FB00F00F00012853D198
:10AA7000002C55D005F5F050FFF7ACFB80021FFA13
:10AA800080F8444500D8A0463046FFF7AFFC0446A6
:10AA900005F54070FFF79EFB17281BD01C2812D12C
:10AAA0000CBB3046FFF778FC824605F5F850FFF7FF
:10AAB00091FBBAEB802F0DD13046FFF73BFD6FF0D5
:10AAC0000600BDE8F0873046FFF734FD6FF0060062
:10AAD000BDE8F087164B1B883B4113F0010F00D0F7
:10AAE00014B3002CD0D0A04500D844462246494695
:10AAF0003046FFF7D3FC05F5807540212846FFF767
:10AB00009BFB2846FFF766FB0028FAD12046BDE8EC
:10AB1000F0874FF0FF3070476FF00400BDE8F0871A
:10AB20006FF00D00BDE8F0870020BDE8F08700BFA2
:10AB30009E0200202DE9F84FBDF82850082800F2A9
:10AB400082801C4693468A46064681468700013726
:10AB5000FF003846FFF73EFB00F00F00022801D04F
:10AB6000042874D1BBF1000F75D02278637803EB11
:10AB70000222A37803EB0222E37803EB0223002BEB
:10AB80006DD0002D6FD007F540784046FFF722FBCF
:10AB9000422801D022286AD10422214607F54060CC
:10ABA000FFF7BCFB290A07F58050FFF745FBE9B228
:10ABB00007F58850FFF740FB07F5F850FFF70AFB51
:10ABC000800285B2AB4500D85D463046FFF7E4FB16
:10ABD00004464046FFF7FEFA00284CD0294B1B885C
:10ABE00043FA09F313F0010F01D0A54247D8A5425B
:10ABF000EBD82A4651463046FFF722FC07F5807411
:10AC000020212046FFF718FB2046FFF7E3FA002833
:10AC1000FAD107F500742046FFF7DCFA10F0100FA8
:10AC200006D010212046FFF707FB2846BDE8F88F25
:10AC300010F0080FEDD008212046FFF7FDFA6FF065
:10AC40000C00BDE8F88F4FF0FF30BDE8F88F6FF0D3
:10AC50000400BDE8F88F6FF00D00BDE8F88F6FF0CD
:10AC60000B00BDE8F88F6FF00A00BDE8F88F6FF0B9
:10AC70000600BDE8F88F6FF00300BDE8F88F0020F4
:10AC8000BDE8F88F9E020020082800F2DF802DE941
:10AC9000F04F83B09B4690468A460646074684009E
:10ACA0000134E4002046FFF795FA814600F00F03D7
:10ACB000022B02D0042B40F0CC80B8F1000F00F042
:10ACC000CB806A4B33F81630B3B93046FFF78EFBB2
:10ACD000054604F54070FFF77DFA002800F0BF80BC
:10ACE000634B1B883B4113F0010F02D0002D00F095
:10ACF000B980002DE9D000E0002509F00709B9F17D
:10AD0000020F03D0B9F1040F44D07AE0574B33F867
:10AD100016309BBB082269463046FFF7BFFB04F59F
:10AD2000807540212846FFF787FA2846FFF752FA38
:10AD30000028FAD19DF800308BF800309DF80130E2
:10AD40008BF801309DF802308BF802309DF803300B
:10AD50008BF803309DF804209DF8053003EB0223A7
:10AD60000C9A13809DF806209DF8073003EB022310
:10AD70003E4A22F8163080223E4B9A553B4B33F820
:10AD80001650A84500D245462A4651463046FFF7A0
:10AD900085FB3DE0354B33F8163033BB0222694664
:10ADA0003046FFF77BFB04F5807540212846FFF70E
:10ADB00043FA2846FFF70EFA0028FAD19DF8002042
:10ADC0009DF8013003EB02239BB2284A22F816308B
:10ADD00040F2EA52934205D93046FFF7ABFB6FF4DD
:10ADE0007A7040E08022234B9A55204B33F816505E
:10ADF000A84500D245462A4651463046FFF74EFB4D
:10AE000006E029463046FFF777FB184B23F816502B
:10AE100004F5807440212046FFF70EFA2046FFF724
:10AE2000D9F90028FAD1114A32F816305B1B9BB2CF
:10AE300022F816302BB10F4A935D43F0010393556E
:10AE400002E000220B4B9A5528460CE04FF0FF30F1
:10AE500070476FF0040006E06FF00D0003E06FF044
:10AE6000030000E0002003B0BDE8F08FAC0200203A
:10AE70009E020020A4020020082874D810B51446B1
:10AE8000072973D8DFE801F0041C25303B495563DE
:10AE90001378012B08D1012202FA00F339490888FE
:10AEA00018430880104610BD002B62D1012202FA1F
:10AEB00000F33449088820EA03000880104610BDDA
:10AEC000304B1B8843FA00F000F0010010700120A5
:10AED00010BD80000130C00000F5F850FFF77AF98E
:10AEE00080022080012010BD80000130C00000F5EC
:10AEF000F050FFF76FF980022080012010BD11781B
:10AF00001F2939D880000130C00001F01F0100F571
:10AF10000070FFF791F9012010BD80000130C000E2
:10AF200000F50070FFF756F900F01F0020700120B7
:10AF300010BD11781F2922D880000130C00001F017
:10AF40001F0100F53050FFF777F9012010BD800098
:10AF50000130C00000F53050FFF73CF900F01F0051
:10AF60002070012010BD4FF0FF3070476FF00900D6
:10AF700010BD6FF0090010BD6FF0090010BD6FF03B
:10AF8000090010BD9E020020082800F29C8070B5C8
:10AF9000154604460C2900F29980DFE801F00711FC
:10AFA0001B25333E974F60656A748700800001302F
:10AFB000C000FFF70FF920F00F002870012070BDCE
:10AFC00080000130C00000F5B050FFF703F9287091
:10AFD000012070BD80000130C00000F5A850FFF7CF
:10AFE000F9F82870012070BD84000134E40004F5F4
:10AFF0009050FFF7EFF804F59850FFF7EBF8287042
:10B00000012070BD80000130C0000422294600F5F7
:10B010004060FFF745F9012070BD84000134E40071
:10B0200004F58050FFF7D6F8064604F58850FFF780
:10B03000D1F800EB06202880012070BD8400013487
:10B04000E4002046FFF7C6F800F00F00012840D1C9
:10B0500004F53C50FFF7BEF82880012070BDFFF7D3
:10B060009BF92880012070BDFFF7C0F928800120DE
:10B0700070BD80000130C00000F54070FFF7AAF8F5
:10B080002870012070BD80000130C000FFF7A2F8D9
:10B09000012805D12046FFF7A9F92880012070BDBD
:10B0A0000F4B33F814302B80012070BD800001302D
:10B0B000C000FFF78FF800F00F0001280CD1094BFA
:10B0C0001B5D2B7070BD4FF0FF3070476FF00100BB
:10B0D00070BD6FF0040070BD6FF0040070BD00BF64
:10B0E000AC020020A4020020704700BF704700BFE0
:10B0F000704700BF704700BF00787047017070470D
:10B1000000207047704700BF00B129B9044B054AC1
:10B110001A61054A5A617047014B186159617047BD
:10B1200040000020F1B00008F5B00008094B1B8872
:10B1300003F400739BB2002BF8D000B129B9054B82
:10B14000054A9A61054ADA617047024B9861D961F4
:10B15000704700BF4000002001B1000805B10008A1
:10B1600000B587B0062201A94FF41060FFF798F8E8
:10B17000042205A94FF48070FFF792F8042204A975
:10B180004FF4A060FFF78CF8042203A94FF470601D
:10B19000FFF786F880210020FFF74EF80020FFF728
:10B1A00019F8062201A94FF41060FFF7B7F804223E
:10B1B00005A94FF48070FFF7B1F8042204A94FF4F9
:10B1C000A060FFF7ABF8042203A94FF47060FFF70B
:10B1D000A5F807B05DF804FB70B505460E46FFF70D
:10B1E000BFFF45B919E0E95C0A4452B2102A33DCCA
:10B1F00001335BB201E000221346072BF3DD00248C
:10B2000009E0A0000130C000295D00F5F850FFF70B
:10B2100013F8013464B2072CF3DD4EB9002070BD81
:10B22000F15C0A4452B2102A19DC01335BB201E02E
:10B2300000221346072BF3DD002409E0A0000130B3
:10B24000C000315D00F5F050FEF7F6FF013464B246
:10B25000072CF3DD002070BD4FF0FF3070BD4FF0C4
:10B26000FF3070BD10B5040A00F0F0014FF4A85093
:10B27000FEF7E2FF21464FF4B850FEF7DDFF10BDA8
:10B2800010B54FF4A850FEF7A5FF00F0F0044FF4FE
:10B29000B850FEF79FFF80B2000280B2204480B217
:10B2A00010BD00BF10B5040AC1B24FF4B050FEF794
:10B2B000C3FF21464FF4C050FEF7BEFF10BD00BFD4
:10B2C00010B54FF4B050FEF785FF04464FF4C05060
:10B2D000FEF780FF80B2000280B2204480B210BD31
:10B2E00008B54FF43850FEF775FF10F0010F01D08C
:10B2F000012008BD002008BD08B54FF43850FEF706
:10B3000069FF10F0300F01D0012008BD002008BDFA
:10B3100008B54FF43850FEF75DFF00F07F014FF4A1
:10B320003850FEF789FF4FF43850FEF753FF60F0B6
:10B330007F01C9B24FF43850FEF77EFF08BD00BF51
:10B3400008B50378012B01D1402100E000214378AA
:10B35000012B02D141F0380110E0C378012B08D154
:10B360008378012B02D141F0180107E041F0080178
:10B3700004E08378012B01D141F010014FF43850E3
:10B38000FEF75AFFFFF7C4FF08BD00BF10B5044623
:10B390004FF43850FEF71EFFC0F38013237000F007
:10B3A0003800202801D0382802D10123637001E041
:10B3B00000236370182803D0202801D0102802D160
:10B3C0000123A37001E00023A370182803D02028D4
:10B3D00001D0082802D10123E37010BD0023E370DF
:10B3E00010BD00BF10B504464FF43850FEF7F2FE12
:10B3F00010F0400F20D000F0C700012C02D140F027
:10B40000300101E040F038014FF43850FEF714FFEE
:10B41000FFF77EFF4FF43850FEF7DCFE012C05D11C
:10B4200010F0300F0BD14FF0FF3010BD10F0380F7F
:10B4300007D14FF0FF3010BD4FF0FF3010BD00209E
:10B4400010BD002010BD00BF30B583B00C460023F6
:10B45000009301930F2809D8DFE800F00B0F1D18A7
:10B4600022272C394755595E7763676F4FF0FF30BD
:10B4700072E0FFF775FE00206EE011B10091083414
:10B48000019401990098FFF7A7FE65E00888FFF78F
:10B49000E9FE002060E0FFF7F3FE208000205BE083
:10B4A0000888FFF7FFFE002056E0FFF709FF208025
:10B4B000002051E00988090A4FF49850FEF7BCFEBD
:10B4C00021784FF4A050FEF7B7FE002044E04FF47F
:10B4D0009850FEF77FFE05464FF4A050FEF77AFE27
:10B4E00000EB05202080002036E01C4B9A780A7083
:10B4F000DA784A701A798A705A79CA709B790B7116
:10B500000020487128E0FFF703FF002024E00846F0
:10B51000FFF716FF00201FE00846FFF737FF002067
:10B520001AE00878FFF75EFF16E0FFF7E5FEC0B20D
:10B53000FF280CD0207000200EE0FFF7D1FEC0B233
:10B54000FF2807D02070002006E0002004E04FF024
:10B55000FF3001E04FF0FF3003B030BD400000206D
:10B5600010B50446062201464FF41060FEF7D6FEE1
:10B57000042204F10E014FF48070FEF7CFFE042286
:10B5800004F10A014FF4A060FEF7C8FE0422A11DD9
:10B590004FF47060FEF7C2FEA27C064B1A70E27C8C
:10B5A0005A70227D9A70627DDA70A27D024B1A7009
:10B5B00010BD00BFC0020020BC02002010B5044630
:10B5C000062201464FF41060FEF76AFE042204F1E1
:10B5D0000E014FF48070FEF763FE042204F10A01AD
:10B5E0004FF4A060FEF75CFE0422A11D4FF47060D2
:10B5F000FEF756FE064B1A78A2745A78E2749A78CF
:10B600002275DB786375034B1B78A37510BD00BFF3
:10B61000C0020020BC02002030F03A030BD110B56C
:10B6200004460020FEF7D6FD2043C1B20020FEF7FD
:10B6300003FE002010BD4FF0FF30704708B500201A
:10B64000FEF7C8FD08BD00BF10B5044601784FF4F1
:10B65000D850FEF7F1FD6188090A4FF4C850FEF793
:10B66000EBFDA1784FF4D050FEF7E6FD10BD00BF12
:10B6700038B505464FF4D850FEF7ACFD28704FF4AE
:10B68000C850FEF7A7FD04464FF4D050FEF7A2FDC8
:10B6900000EB0420688038BD10B50C46052821D881
:10B6A000DFE800F003080D11161B0846FFF758FFEE
:10B6B000002010BD0846FFF781FF002010BD08786C
:10B6C000FFF7AAFF10BDFFF7B9FF2070002010BDE3
:10B6D0000846FFF7B9FF002010BD0846FFF7C8FF76
:10B6E000002010BD4FF0FF3010BD00BF10B586B078
:10B6F00001F01AFD04460DF10600FEF73BFD0DF1C9
:10B700000E00FEF743FD0DF10A00FEF74BFD0DF1B3
:10B710001200FEF753FD062204F12101684601F0F4
:10B72000EFFD04220DF1060104F1270001F0ECFD0C
:10B7300004220DF10E0104F12B0001F0E5FD0422BD
:10B740000DF10A0104F12F0001F0DEFD04220DF1DC
:10B75000120104F1680001F0D7FD94F866301BB1C6
:10B7600002238DF8163002E001238DF81630694669
:10B770000020FFF791FF06B010BD00BF704700BF6B
:10B7800030B40CE004684368013B1340E35C0C7880
:10B79000A34201D0181B06E0013201312B465D1E89
:10B7A000002BEFDC002030BC704700BF2DE9F84FC4
:10B7B0008468012C25D1C4680569C5EB0409C1EB77
:10B7C0000909994520D31F4692468846064600241B
:10B7D0000EE03269454642443B46224451463046DB
:10B7E000FFF7CEFF18B95F44E819BDE8F88F0134C0
:10B7F000C7EB09050135A346A542EAD80020BDE8FC
:10B80000F88F0020BDE8F88F0020BDE8F88F00BF5A
:10B8100008B501F089FC012300F19F02164909686F
:10B820001648FFF7C3FF164B186068B1124B18603B
:10B830000222144B1A600023134A1360134A136048
:10B840000122134B1A7008BD0C4BDA681969521AA1
:10B8500010490A60DA681B69D31A0B4A12689A42C7
:10B8600008D00023074A1360074A1360074A136091
:10B87000074A137008BD00BFE4020020BC0C002082
:10B88000D0020020E8020020E0020020F4020020A4
:10B890002C030020DC02002008B501F045FC1C4B05
:10B8A0001B78022B07D100231A4A13601A4A13602F
:10B8B000174A137008BD194B1968022300F19F0243
:10B8C00001391748FFF772FF78B1164B1B68013337
:10B8D00098420AD103210F4B19600021124B1960C5
:10B8E000104B18600D4B186008BD0D4AD3681269E3
:10B8F0009B1A0C4A12689A4208DA0023054A136020
:10B90000054A1360084A1360014A137008BD00BF5E
:10B910002C030020E8020020E0020020E4020020C6
:10B92000BC0C0020D0020020F402002008B501F079
:10B93000FBFB1F4B1B78022B07D100231D4A136012
:10B940001D4A13601A4A137008BD1C4B1968032363
:10B9500000F19F0202391A48FFF728FFA8B1194BDE
:10B960001B680133984210D10421124B1960002149
:10B97000154B1960134B1860104B1860104AD368B0
:10B9800012699B1A0C4A136008BD0D4AD3681269EC
:10B990009B1A0C4A12689A4208DA0023054A13607F
:10B9A000054A1360084A1360014A137008BD00BFBE
:10B9B0002C030020E8020020E0020020E402002026
:10B9C000BC0C0020D0020020F402002010B5044678
:10B9D00001F0AAFB1B4B197802290CD101221A4B4A
:10B9E0001A600022174B1A70184AD36812699B1A02
:10B9F000174A136010BD154AD36812699B1A144A7E
:10BA000012689A4204D1E1B901220E4B1A7010BD9E
:10BA10000023104A13600B4A13700C4AD368126952
:10BA20009B1A0B4A1360172C0BD0222C09D090F8CC
:10BA30003330022B05D0054801F09EFA0022044B5A
:10BA40001A6010BD2C030020E8020020BC0C00206E
:10BA5000E0020020F4020020F8B5264B1B78022BF0
:10BA600025D104460025244B1D60244B1D60214B2D
:10BA70001D70234B1D60FEF703FF224801F07CFA86
:10BA8000214E304601F078FA204F0D23204A3146EE
:10BA9000384601F08DF907231E4A3146384601F039
:10BAA00087F91D4B1D702046FEF744FDF8BD154A71
:10BAB000D36812699B1A194A12689A4208DA00235D
:10BAC0000D4A13600D4A1360154A1360094A13703A
:10BAD0000C4AD36812699B1A084A12689A4208D025
:10BAE0000023054A1360054A13600D4A1360014A9A
:10BAF0001370F8BD2C030020E8020020E0020020B3
:10BB0000E4020020BC0C0020A80C002000440040EF
:10BB10004049010850490108A40D0020D00200202E
:10BB2000F402002010B5044601F0FEFA90F833301C
:10BB3000022B06D0032B0DD07BB92046FEF7FAFC72
:10BB400010BD064BDA681B699A4206D02046FEF704
:10BB5000F1FC10BD2046FEF7EDFC10BDBC0C002032
:10BB600010B5044601F0E0FA90F83330032B05D805
:10BB70002046FEF785FE2046FEF7DCFC10BD00BF28
:10BB800010B5044601F0D0FA90F83330022B02D9F8
:10BB9000032B08D010BD0123B0F8392019462046E8
:10BBA000FEF704FD10BD0123B0F839200221204624
:10BBB000FEF7FCFC10BD00BF10B582B0044601F0DA
:10BBC000B3FA0346D0F83500019093F83320032AE6
:10BBD00033D8DFE802F0020F132F194A127862BB44
:10BBE000B3F83B2001A92046FEF7C4FD0122144B07
:10BBF0001A7022E02046FEF781FD1EE0114AD1684E
:10BC00001269914206D12046FEF778FD00220E4BC4
:10BC10001A6012E00A4A127842B9B3F83B2001A92F
:10BC20002046FEF7A7FD0122054B1A700122064BA4
:10BC30001A6002E02046FEF77DFC02B010BD00BF96
:10BC400018030020BC0C0020D8020020F0B583B0FF
:10BC5000044601F069FA0023ADF8043000F15C05F8
:10BC6000284607F08FFC064687B20DF107020A212D
:10BC70002046FFF789F99DF80730172B3FD101AA1D
:10BC800009212046FFF780F9BDF804301D4A1288CB
:10BC9000934204D000211C4A11601A4A13801A4AA8
:10BCA0001268042A08D92046FEF7EAFD0023164A46
:10BCB0001360164A137022E09F4220D83A46144976
:10BCC0002046FEF7C3FE80B2ADF80400874208D0DC
:10BCD0002046FEF7D5FD00230B4A13600B4A137074
:10BCE0000DE0B2B20A49284607F0B2FA10B1204678
:10BCF000FEF7C6FD0023044A1360044A137003B024
:10BD0000F0BD00BFD4020020280300202D03002036
:10BD1000A815002010B586B004460023ADF80C30FD
:10BD20000DF117020A21FFF72FF99DF81730172B95
:10BD300030D0222B58D103AA09212046FFF724F93D
:10BD4000BDF80C30B3F5806F03D94FF48063ADF8C4
:10BD50000C30BDF80C30CBB12B484168C26800698B
:10BD6000121A8A1A934211DC0DF10E03009304ABF0
:10BD70004FF4006225492046FEF786FF80B2ADF8F9
:10BD80000C00234B1A68104418602DE00023ADF816
:10BD90000C3029E003AA09212046FFF7F5F8BDF889
:10BDA0000C30B3F5806F03D94FF48063ADF80C30DD
:10BDB000BDF80C30ABB114484168C2680069121A72
:10BDC0008A1A93420DDC4FF4006210492046FEF7B8
:10BDD0003DFE80B2ADF80C000D4B1A68104418609F
:10BDE00002E00023ADF80C30BDF80C3053B1074A27
:10BDF0000549084800F0DCFF074ABDF80C1013683D
:10BE00000B44136006B010BDA80C0020A81500203C
:10BE1000C802002000440040CC0200202DE9F0437D
:10BE200085B0054601F080F9594BDA681B699A42E2
:10BE300000F0AB800446574B1B68012B00F2A58035
:10BE400090F843300BB9002600E001265049CA683B
:10BE50000969521A9846934204DC3BB94FF40068D2
:10BE6000002704E04FF40068012700E00027B4F841
:10BE700041300BB146F00206474A127812B90BB1B5
:10BE800047F0020794F8483053B346F0040904F130
:10BE9000440200213E48FFF789FC034618B947F0E9
:10BEA00004074E461CE016F0010F09D017F0010FF1
:10BEB00006D194F84920024494F843108A420CDADF
:10BEC00094F849809844324AD36812699B1A98457D
:10BED00005DD47F004074E4602E04E4600E04E46C0
:10BEE00016B136EA070350D02A4B1B68012B07D145
:10BEF000274AD36812699B1A284A12689A4244D189
:10BF00000DF10F020A212846FFF73EF89DF80F3089
:10BF1000222B01D0172B38D14346214A1C492148F6
:10BF200000F05EFF86B2204A13683344136000229B
:10BF30001E4B1A609DF80F30222B12D1D4F8350019
:10BF40000290B4F83B30009302AB324614492846C5
:10BF5000FEF7F0FD864218D1154A1368334413608A
:10BF60000CE0172B0AD132460D492846FEF7D2FCC9
:10BF700086420AD10E4B1A6816441E6000230D4AF1
:10BF800013600D4A1360044A137005B0BDE8F083D6
:10BF9000BC0C0020E802002008030020DC02002086
:10BFA000A80D002000440040EC020020E402002024
:10BFB000C40200200C030020FC02002010B582B057
:10BFC000044601F0B1F8264B1B7823B10023254A23
:10BFD0001360234A137090F83330032B3DD8DFE809
:10BFE00003F009020239204B1B781BB12046FFF7F2
:10BFF0002DFE32E01D4B1B7833B9B0F83D201AB14D
:10C0000001221A4B1A7007E0022B05D10022174BB0
:10C010001A702046FEF734FC154B1B781BB9012221
:10C02000134B1A700FE0022B0DD10022104B1A7027
:10C030000DF107010F20FFF707FA9DF8073013B93C
:10C040002046FEF71DFC2046FFF764FE2046FFF762
:10C05000E5FE02E02046FEF76DFA02B010BD00BF1B
:10C0600018030020140300202D03002010030020DB
:10C070002003002010B5044601F056F890F8333044
:10C08000022B02D9032B04D010BD2046FEF752FA32
:10C0900010BD2046FFF73EFE2046FFF7BFFE10BD55
:10C0A000F0B583B0044601F03FF8054601F03CF8D6
:10C0B00006460DF107020A212046FEF765FF96F8B5
:10C0C0009E30FBB1574B1B68042B2BD8DFE803F0E5
:10C0D00003080B0E11009DF80700FFF777FC21E025
:10C0E000FFF796FB1EE0FFF7D7FB1BE0FFF71EFCF8
:10C0F00018E02046FFF7B0FC4B4B1B78002B00F0FC
:10C100008F800FE09DF80730172B0BD0222B09D022
:10C1100095F83330022B05D0444800F02DFF002263
:10C12000434B1A6095F83430012B26D013B1022B03
:10C1300032D03EE09DF80730222B03D1022385F850
:10C1400034303EE0172B3CD1012785F8347000F0E5
:10C1500023F9384600F094F896F95C308BB395F8E3
:10C160003330022B05D1334B1B6853BB324B1F704E
:10C1700027E00122304B1A7023E09DF80730172B7F
:10C180001FD0002685F8346000F010F9012000F07F
:10C1900085F8284B1E6014E09DF80730222B10D044
:10C1A000002385F8343000F001F9012000F076F822
:10C1B00007E0002385F8343000F0F8F8012000F0A3
:10C1C0006DF89DF80730222B2AD8DFE803F01229FA
:10C1D00029292929292929292929292929292929CF
:10C1E00029161A29291E29292929222929292929F3
:10C1F00026002046FFF7C4FC12E02046FFF7DCFCD7
:10C200000EE02046FFF78EFC0AE02046FFF7D6FE40
:10C2100006E02046FFF7A4FC02E02046FFF72AFFD5
:10C2200003B0F0BDE8020020A40D0020BC0C0020EB
:10C23000E0020020D80200202D03002010B582B0BB
:10C24000044601210B4B53F82000FBF7F5FE0A4B87
:10C2500033F81430ADF8043010238DF80730032381
:10C260008DF8063001A9054B53F82400FBF76CF953
:10C2700002B010BD5849010860490108680000205B
:10C2800008B5044B33F81010034B53F82000FBF7AC
:10C290007BFA08BD604901086800002008B5044B1E
:10C2A00033F81010034B53F82000FBF73DFA08BD9C
:10C2B0006049010868000020044B53F82020D3682F
:10C2C000034931F810104B40D360704768000020DC
:10C2D0006049010870B582B01025ADF804500326FE
:10C2E0008DF806608DF807500B4C01A92046FBF72E
:10C2F0002BF929462046FBF717FA2023ADF8043026
:10C300008DF8066048238DF8073001A92046FBF719
:10C310001BF902B070BD00BF0010014008B54FF41A
:10C3200080710348FBF7A4F9003018BF012008BD55
:10C33000000C014008B54FF48050FBF77DF858B170
:10C340004FF48050FBF7C2F80122044B1A704FF4EF
:10C350008072034BC3F8842008BD00BFF0020020A8
:10C3600000E100E000B583B001210420FBF764FE8A
:10C370004FF48073ADF8043010238DF80730032399
:10C380008DF8063001A90348FBF7DEF803B05DF82D
:10C3900004FB00BF0008014008B54FF4807102485B
:10C3A000FBF7F2F908BD00BF0008014008B54FF4E3
:10C3B00080710248FBF7B8F908BD00BF00080140D2
:10C3C00010B586B001214FF40010FBF75BFEC023CF
:10C3D000ADF8143003238DF816301C238DF8173078
:10C3E00005A91148FBF7B0F80023ADF808304BF66B
:10C3F000FF73ADF80A30A023ADF80C304FF4806322
:10C40000ADF80E304FF48043ADF8103006A9074B5D
:10C4100041F8143D064C2046FBF7E6F90121204681
:10C42000FBF79CFA06B010BD000C0140A08601008D
:10C4300000540040F8B507460E46144601212B482B
:10C44000FBF7B4FA2A492948FBF778FB0028F9D012
:10C45000350A6D00603DEDB2002229462348FBF706
:10C4600049FB24492148FBF769FB0028F9D0F1B2C8
:10C470001E48FBF713FB20491C48FBF75FFB002815
:10C48000F9D001211948FBF791FA19491748FBF730
:10C4900055FB0028F9D0012229461448FBF72AFB56
:10C4A00016491248FBF74AFB0028F9D016E0012C88
:10C4B00008D10E4D00212846FBF7C8FA0121284675
:10C4C000FBF79CFA0E490948FBF738FB30B10748E7
:10C4D000FBF7FAFA07F8010B013CA4B2002CE6D1F5
:10C4E00001210248FBF7B2FAF8BD00BF005400403A
:10C4F000010003008200070084000700020003001F
:10C500004000030070B506460C4615464FF4003156
:10C510001E48FBF78BFB0028F8D101211B48FBF7D5
:10C5200045FA1B491948FBF709FB0028F9D0210AF5
:10C5300049006039002201F0FE011448FBF7DAFAE5
:10C5400014491248FBF7FAFA0028F9D0E1B20F4873
:10C55000FBF7A4FA10490D48FBF7F0FA0028F9D0D0
:10C560000BE016F8011B0948FBF798FA0A4907483F
:10C57000FBF7E4FA0028F9D025466B1E9CB2002D8B
:10C58000EFD101210148FBF739FA70BD005400409A
:10C5900001000300820007008400070008B5FBF7D4
:10C5A000BFFB4FF48030FBF7DBFBFBF7CBFD012833
:10C5B00032D11020FAF7B0FF0220FAF799FF0020DD
:10C5C000FBF774FC0020FBF7B5FC4FF48060FBF731
:10C5D00091FC4FF480114FF48030FBF7EFFB01200A
:10C5E000FBF738FC3920FBF773FD0028FAD0022056
:10C5F000FBF740FCFBF752FC0828FBD10121084661
:10C60000FBF740FD01214FF48050FBF715FD0121A0
:10C6100044F21D00FBF710FD08BD00BF0160436040
:10C62000826000230361C3600120704738B505684C
:10C63000C36802699B1A426893420EDA0446C368D3
:10C64000013A13408068024600FB035006F00FFEDB
:10C65000E3680133E360012038BD002038BD00BF2E
:10C660002DE9F041D0F800E0C36804691C1B436861
:10C670009C4237DAC5680769EF1BDF1BC46803F10A
:10C68000FF3C0CEA040C07EB0C049C4202D3CCEBFD
:10C69000030600E03E4688460546BF1B9642A8BFFB
:10C6A0001646941BBC42A8BF3C46806800FB06F2BD
:10C6B0000CFB00E006F0DBFDEB683344EB602F6819
:10C6C000686801380340A86800FB04F200FB06819B
:10C6D00003FB007006F0CBFDEB682344EB603019E0
:10C6E000BDE8F0810020BDE8F08100BF38B50568E5
:10C6F000C26803699A4211D00B4604460269406839
:10C7000001381040A1680A4601FB0051184606F0A6
:10C71000AEFD236901332361012038BD002038BDFF
:10C72000F8B5D0F800E0C46803699C4237D0C3680C
:10C7300004691B1B0469476807F1FF3C0CEA040C01
:10C740000CEB0304BC4202D3CCEB070700E01F460E
:10C750000E460546DB1B9742A8BF1746D41B9C42DA
:10C76000A8BF1C46816801FB07F20CFB01E13046C3
:10C7700006F07DFD2B693B442B6129686A68013A0C
:10C780001340A86800FB04F203FB001100FB0760E4
:10C7900006F06DFD2B6923442B613819F8BD00208C
:10C7A000F8BD00BF08B510210148FAF7EDFF08BD3C
:10C7B0000008014008B510210148FAF7B5FF08BD8F
:10C7C0000008014038B50546002403E00134B4F503
:10C7D000C87F1ADC02210F48FBF7C4FD0028F5D002
:10C7E00029460C48FBF78AFD002403E00134B4F528
:10C7F000C87F0CDC01210748FBF7B4FD0028F5D009
:10C800000448FBF795FDC0B238BD002038BD0020BC
:10C8100038BD00BF0030014008B5FFF7D3FF08BDA9
:10C8200008B5FF20FFF7CEFF08BD00BF30B587B0C9
:10C83000E023ADF8143003238DF8163018238DF85B
:10C8400017301A4C05A92046FAF77EFE1023ADF8E2
:10C8500014308DF8173005A92046FAF775FE00232D
:10C86000ADF800304FF48272ADF80220ADF804301C
:10C870000222ADF806200125ADF808504FF40072F1
:10C88000ADF80A20ADF80C30ADF80E300723ADF846
:10C89000103004F5205469462046FBF76DFC29460C
:10C8A0002046FBF7FFFC07B030BD00BF0008014089
:10C8B00010B5FFF77FFF0C4C10212046FAF764FFFC
:10C8C0004FF4FA7000F00EFA10212046FAF72CFF10
:10C8D000012000F037FA05490548FEF715FC054927
:10C8E0000548FEF723FC10BD00100140B5C7000845
:10C8F000A5C7000819C8000821C8000870B5C0B055
:10C9000006460D461446B2F5807F01D94FF4807477
:10C910004FF480720021684606F0B4FC0EB9002185
:10C9200001E04FF4807122466846FFF783FD2246FE
:10C930006946284606F09BFC322000F003FA0020EE
:10C9400040B070BD2DE9F041C0B006460D4614461A
:10C950004FF480720021684606F094FC2246294676
:10C96000684606F084FCB4F5807F01D94FF48074EA
:10C970002709FDB204F00F080EB14FF480760F2C9A
:10C9800014D8224631466846FFF7BCFD0A2000F065
:10C99000D9F91BE02001102231186844FFF7B2FDDD
:10C9A0000A2000F0CFF90134E4B200E00024AC42E8
:10C9B000F0D3B8F1000F09D0F8B2000142463118A7
:10C9C0006844FFF79FFD0A2000F0BCF9322000F018
:10C9D000B9F9002040B0BDE8F08100BF38B500F0E3
:10C9E000A3FB044600F0A0FB054601214FF0804068
:10C9F000FBF720FF002800F0FD8001214FF0804070
:10CA0000FBF7BCFE01214FF08040FBF783FF7A4A21
:10CA1000136801331360794B1B780BBBB4F84130BA
:10CA2000F3B1774AD36812699B1A08D0754A126825
:10CA30009A4204D1744A13680133136004E0002160
:10CA4000714A11606F4A1360B4F841206E4B1B6845
:10CA50009A4205D80122694B1A7000226A4B1A606B
:10CA60006A4B1B781BB16A4A136801331360B4F830
:10CA70003F20674B1B689A4204D80023634A137017
:10CA8000634A1360634B1B782BB3634A136801330B
:10CA90001360FFF743FC40B900235E4A13705E4AFF
:10CAA00013604FF480725D4B5A605B4B1A6841F221
:10CAB00087339A420FD900F03BFB00F00FFCBFF325
:10CAC0004F8F5749CA6802F4E062564B1343CB605C
:10CAD000BFF34F8FFEE7544B1B78012B03D1534A12
