:020000040800F2
:1000000000C00020F1020008F9020008FD0200080B
:1000100001030008050300080903000800000000B0
:100020000000000000000000000000000D030008B8
:100030001103000800000000150300081903000860
:100040001D0300081D0300081D0300081D03000810
:100050001D0300081D0300081D0300081D03000800
:100060001D0300081D0300081D0300081D030008F0
:100070001D0300081D0300081D0300081D030008E0
:100080001D0300081D0300081D0300081D030008D0
:100090001D0300081D0300081D0300081D030008C0
:1000A0001D0300081D0300081D0300081D030008B0
:1000B000D51D00081D0300081D0300081D030008CE
:1000C0001D0300081D0300081D0300081D03000890
:1000D0001D030008791F00082D2000081D030008DB
:1000E0001D0300081D0300081D0300081D03000870
:1000F0001D0300081D0300081D0300081D03000860
:100100001D0300081D0300081D0300081D0300084F
:100110001D0300081D0300081D0300081D0300083F
:100120001D0300081D0300081D0300081D0300082F
:1001300000000000000000000000000000000000BF
:1001400000000000000000000000000000000000AF
:10015000000000000000000000000000000000009F
:10016000000000000000000000000000000000008F
:10017000000000000000000000000000000000007F
:10018000000000000000000000000000000000006F
:10019000000000000000000000000000000000005F
:1001A000000000000000000000000000000000004F
:1001B000000000000000000000000000000000003F
:1001C000000000000000000000000000000000002F
:1001D000000000000000000000000000000000001F
:1001E0005FF8E0F100B583B0304B314A1360314A1B
:1001F0001360314B3149002201E01A6004338B4215
:10020000FBD32B4B1B6813B92A4B1B6803B1FEE7CA
:10021000264B2B4A13602B4A13602B4B2B4A2C483E
:1002200003E011681960043304328342F9D3244B8C
:100230001A68284B9A4204D1224B1A681B689A42CA
:1002400000D0FEE701F0C4FA01A8694601F08CFA7B
:10025000214B224EF61AB61000241D4603E055F835
:10026000243098470134A642F9DC1D4B1D4EF61A86
:10027000B61000241D4603E055F824309847013499
:10028000A642F9DC0198009901F0E8FF0546164BFB
:10029000164CE41AA4101E4603E0013C56F8243024
:1002A0009847002CF9DC284601F036FABABADECAC3
:1002B0009000002080010020900000208401002098
:1002C000000000208C00002000000020F033000817
:1002D0009000002078563412200300082003000804
:1002E0002003000820030008200300082003000862
:1002F00008B5FFF777FF00BFFEE700BFFEE700BFCE
:10030000FEE700BFFEE700BFFEE700BFFEE700BF5D
:10031000FEE700BFFEE700BFFEE700BFFEE700BF4D
:1003200010B50446C378012B03D92048752101F08C
:100330004BFA63780F2B03D91C48762101F044FA5D
:10034000A3780F2B03D91948772101F03DFAE37800
:1003500003B3174BDB68DB43C3F30223C3F104028F
:100360000F2121FA03F3617801FA02F2A178194012
:10037000114309012278C9B20E4B1A4482F80013C6
:100380002278510902F01F02012000FA02F243F81C
:10039000212010BD2378590903F01F03012202FA1E
:1003A00003F32031034A42F8213010BD0431000824
:1003B00000ED00E000E100E010B50446042806D09E
:1003C00010F1050F03D00748D52101F0FDF9042CE9
:1003D000054B1A680CBF42F0040222F004021A60B6
:1003E00010BD00BF0431000810E000E010B5044665
:1003F000022804D9054840F2031101F0E5F9044B45
:100400001A6802F0380214431C6010BD2C31000839
:100410000020024010B50446102805D020B107483E
:1004200040F22F1101F0D0F9054B1A6822F01002AA
:100430001A601A6814431C6010BD00BF2C310008FC
:10044000002002402DE9F04105460C46494B9842F8
:100450001BD003F58063984217D003F58063984260
:1004600013D003F5806398420FD003F58063984260
:100470000BD003F58063984207D003F58063984260
:1004800003D03D48B22101F09FF9E3788BB1042BF2
:100490000FD0282B0DD0482B0BD0142B09D0102BAC
:1004A00007D01C2B05D0182B03D03348B32101F003
:1004B0008BF923881BB93048B42101F085F9E37822
:1004C00003F00F073E4613F0100F0AD0A378013B4C
:1004D000DBB2022B03D92848BB2101F075F9A678BD
:1004E0003E432378FBB12F68002301204FF00F0C0F
:1004F00016E000FA03F22188114091420FD19900D1
:100500000CFA01F827EA080706FA01F10F43E1782F
:10051000282901D16A6102E0482908BF2A61013314
:10052000072BE6D92F602388FF2B21D96F68002382
:1005300001204FF00F0C18E003F1080200FA02F25C
:100540002188114091420FD199000CFA01F827EA55
:10055000080706FA01F10F43E178282908BF6A610C
:10056000E178482908BF2A610133072BE4D96F607D
:10057000BDE8F081000801406031000838B504464C
:100580000D46144B98421CD003F58063984218D056
:1005900003F58063984214D003F58063984210D02D
:1005A00003F5806398420CD003F58063984208D02D
:1005B00003F58063984204D0074840F2691101F0C6
:1005C00003F925B904484FF4B57101F0FDF8256130
:1005D00038BD00BF000801406031000838B504464E
:1005E0000D46144B98421CD003F58063984218D0F6
:1005F00003F58063984214D003F58063984210D0CD
:1006000003F5806398420CD003F58063984208D0CC
:1006100003F58063984204D0074840F2791101F055
:10062000D3F825B904484FF4BD7101F0CDF86561E8
:1006300038BD00BF0008014060310008F0B587B048
:1006400004460D46524B984207D003F5806398420A
:1006500003D05048C62101F0B7F82B68013B4E4A41
:10066000934203D94B48C72101F0AEF8AB883BB1A8
:10067000022B05D00A2B03D04648C82101F0A4F86C
:10068000EB88B3F5804F07D04BF6FF72934203D04F
:100690004048C92101F098F82B89B3F5806F03D346
:1006A0003C48CA2101F090F86B89B3F5806F04D003
:1006B0001BB13848CB2101F087F8AB89B3F5804FE7
:1006C00006D0B3F5404F03D03248CC2101F07CF87E
:1006D000A68826F03F063604360C01A800F06EFB13
:1006E00003992E48A0FB0130800C87B23E43A680C0
:1006F000238823F001031B041B0C23802A68284B4A
:100700009A4209D85300B1FBF3F39BB2032B98BF75
:1007100004230137278424E0EE884BF6FF739E42C2
:1007200005D102EB4202B1FBF2F39BB208E002EB0F
:10073000820202EB8202B1FBF2F39BB243F48043EC
:10074000C3F30B020AB943F0010343F400434FF42F
:10075000967200FB02F0134A82FB001080110130F8
:100760002084A38323889BB243F001032380228843
:1007700092B222F4816222F00202A9886B890B43B3
:1007800013432380AA892B891343238107B0F0BD2B
:1007900000540040943100087F1A060083DE1B439A
:1007A000A0860100D34D621038B504460D46104BAB
:1007B000984208D003F58063984204D00D484FF466
:1007C000A97101F001F8012D04D90A4840F2531132
:1007D00000F0FAFF2DB123889BB243F00103238080
:1007E00038BD238823F001031B041B0C238038BD74
:1007F000005400409431000838B504460D46104BB3
:10080000984208D003F58063984204D00D484FF415
:10081000CD7100F0D9FF012D04D90A4840F29B1197
:1008200000F0D2FF2DB123889BB243F48073238064
:1008300038BD238823F480731B041B0C238038BD30
:10084000005400409431000838B504460D46104B62
:10085000984208D003F58063984204D00D484FF4C5
:10086000D97100F0B1FF012D04D90A4840F2B3114B
:1008700000F0AAFF2DB123889BB243F400732380BC
:1008800038BD238823F400731B041B0C238038BD60
:10089000005400409431000838B504460D46104B12
:1008A000984208D003F58063984204D00D484FF475
:1008B000E57100F089FF012D04D90A4840F2CB11FF
:1008C00000F082FF2DB123889BB243F48063238024
:1008D00038BD238823F480631B041B0C238038BDA0
:1008E000005400409431000838B504460D46074BCB
:1008F000984208D003F58063984204D0044840F23F
:10090000552100F061FF258238BD00BF0054004032
:100910009431000810B50446074B984208D003F5FF
:100920008063984204D0054840F2622100F04CFFF9
:10093000208AC0B210BD00BF0054004094310008AE
:1009400070B504460E4615460D4B984208D003F587
:100950008063984204D00B484FF41D7100F034FFBF
:10096000012D04D9074840F2752100F02DFF15B183
:1009700046F0010601E006F0FE06268270BD00BFCB
:10098000005400409431000838B505460C462E4B03
:10099000984208D003F58063984204D02B484FF466
:1009A000876100F011FF2A4B9C4240D0B4F1021F36
:1009B0003DD0284B9C423AD0B4F5020F37D0B4F565
:1009C000901F34D0244B9C4231D003F500039C424D
:1009D0002DD0A3F5E0039C4229D0204B9C4226D089
:1009E00003F500039C4222D0A3F5E0039C421ED0F5
:1009F000102C1CD01A4B9C4219D01A4B9C4216D07A
:100A0000194B9C4213D03E339C4210D0174B9C4252
:100A10000DD0043B9C420AD0154B9C4207D0B4F544
:100A2000806F04D0094840F2394100F0CDFEA88A19
:100A300080B22B8B40EA0340204020F07F40A04250
:100A400014BF0020012038BD00540040943100083C
:100A5000820006008000860040000200840006003C
:100A60000100030082000700020003008400070069
:100A70000800030030B583B005460C4600230193FF
:100A80000093364B984208D003F58063984204D017
:100A9000334840F29E4100F097FEB4F5000F45D078
:100AA000B4F5800F42D0B4F5001F3FD0B4F5801FDD
:100AB0003CD0B4F5802F39D0B4F5003F36D0B4F532
:100AC000803F33D0274B9C4230D0A3F580439C42DB
:100AD0002CD0B4F1102F29D0A3F560539C4225D01F
:100AE000A3F580639C4221D0A3F500739C421DD0E6
:100AF000A3F580739C4219D0803B9C4216D0403BAA
:100B00009C4213D0303B9C4210D0083B9C420DD0FD
:100B1000043B9C420AD0023B9C4207D0013B9C42D2
:100B200004D00F4840F29F4100F04EFE0095230F85
:100B3000019324F07F44019B1BB1009B143300936D
:100B400003E0240C009B18330093009B1B6803EA0E
:100B50000400003018BF012003B030BD0054004035
:100B600094310008008000100D4B1A6842F0010219
:100B70001A6059680B4A0A405A601A6822F0847257
:100B800022F480321A601A6822F480221A605A68AD
:100B900022F4FE025A604FF41F029A60704700BFB1
:100BA000001002400000FFF810B5044650B1B0F547
:100BB000803F07D0B0F5802F04D0104840F21111CB
:100BC00000F002FE0E4B1A6822F480321A601A6896
:100BD00022F480221A60B4F5803F03D0B4F5802F50
:100BE00006D010BD064B1A6842F480321A6010BD60
:100BF000034B1A6842F4A0221A6010BDC4310008E9
:100C00000010024038B50C46054650B1B0F5803FA3
:100C100007D0B0F5403F04D01E4840F27F1100F0ED
:100C2000D3FD74B3B4F5802F2BD0B4F5002F28D0AA
:100C3000B4F5402F25D0B4F5801F22D0B4F5A01F05
:100C40001FD0B4F5C01F1CD0B4F5E01F19D0B4F507
:100C5000001F16D0B4F5101F13D0B4F5201F10D00C
:100C6000B4F5301F0DD0B4F5401F0AD0B4F5501FB5
:100C700007D0B4F5601F04D006484FF4C07100F0EF
:100C8000A3FD054B5A6822F47C122C4314435C608C
:100C900038BD00BFC43100080010024010B5044642
:100CA000012804D903484FF4CA7100F08DFD024BAE
:100CB0001C6010BDC43100086000424210B50446FB
:100CC000022804D905484FF40E7100F07DFD044B55
:100CD0005A6822F0030214435C6010BDC43100085E
:100CE00000100240024B586800F00C00704700BF33
:100CF0000010024010B50446A0B1802812D0902800
:100D000010D0A0280ED0B0280CD0C0280AD0D028EF
:100D100008D0E02806D0F02804D006484FF4197116
:100D200000F052FD044B5A6822F0F00214435C605C
:100D300010BD00BFC43100080010024010B50446C9
:100D400080B1B0F5806F0DD0B0F5A06F0AD0B0F5CE
:100D5000C06F07D0B0F5E06F04D0064840F27E21A6
:100D600000F032FD044B5A6822F4E06214435C60E8
:100D700010BD00BFC43100080010024010B5044689
:100D800080B1B0F5806F0DD0B0F5A06F0AD0B0F58E
:100D9000C06F07D0B0F5E06F04D006484FF426715D
:100DA00000F012FD044B5A6822F4605242EAC40477
:100DB0005C6010BDC43100080010024010B4284B24
:100DC0005B6803F00C03042B05D0082B06D0F3B9A5
:100DD000244B03601DE0244B03601AE0204B5A684B
:100DE0005B68C2F38342023213F4803F04D11F4B8D
:100DF00003FB02F202600CE0194B5B6813F4003F46
:100E000014BF1B4B184B03FB02F2026001E0154BB1
:100E10000360134B5A68C2F3031216498A5CD2B2BC
:100E2000046824FA02F242605C68C4F302240C5D98
:100E3000E4B222FA04F484605C68C4F3C224095D5D
:100E4000C9B2CA40C2605B68C3F381330A49CB5C54
:100E5000DBB2B2FBF3F202615DF8044B704700BFF6
:100E60000010024000127A00001BB70000093D008C
:100E7000808D5B00080000200400002038B5044687
:100E80000D460E4B034003B920B90D4840F24A41CC
:100E900000F09AFC012D04D9094840F24B4100F0C2
:100EA00093FC25B1074B9A6914439C6138BD054BEF
:100EB0009A6922EA04049C6138BD00BF0200C0FFA9
:100EC000C43100080010024038B504460D460E4BF0
:100ED000184200D120B90D4840F2694100F074FC7D
:100EE000012D04D9094840F26A4100F06DFC25B19A
:100EF000074BDA691443DC6138BD054BDA6922EA35
:100F00000404DC6138BD00BF00360181C431000833
:100F10000010024010B50446212818D0312816D000
:100F2000392814D0412812D0612810D07A280ED048
:100F30007B280CD07C280AD07D2808D07E2806D0BB
:100F40007F2804D00A4840F2345100F03DFC630988
:100F5000012B02D1074B186804E0022B054B0CBF94
:100F6000186A586A04F01F04E04000F0010010BD48
:100F7000C43100080010024010B582B00023019374
:100F800031242046FFF7C6FF019B01330193019BEB
:100F9000B3F5A06F01D00028F3D03120FFF7BAFFDE
:100FA000003018BF012002B010BD00BF38B50446A4
:100FB0000D46334B984243D0B0F1804F40D0A3F55B
:100FC000943398423CD003F58063984238D003F5BF
:100FD0008063984234D003F58063984230D003F5A3
:100FE000806398422CD003F59033984228D003F5C3
:100FF000C053984224D003F58063984220D003F573
:10100000806398421CD0A3F59E33984218D003F514
:101010008063984214D003F58063984210D003F5A2
:10102000903398420CD003F58063984208D003F5C2
:101030008063984204D0134840F6582100F0C4FB66
:101040006B1E9BB2012B10D9042D0ED0082D0CD095
:10105000102D0AD0202D08D0402D06D0802D04D090
:10106000084840F6592100F0AFFB238AA0892840A8
:101070001D4203D0003018BF012038BD002038BD0C
:10108000002C0140F431000838B504460D462A4BC7
:10109000984243D0B0F1804F40D0A3F594339842AA
:1010A0003CD003F58063984238D003F580639842C2
:1010B00034D003F58063984230D003F580639842C2
:1010C0002CD003F59033984228D003F5C0539842B2
:1010D00024D003F58063984220D003F580639842C2
:1010E0001CD0A3F59E33984218D003F58063984234
:1010F00014D003F58063984210D003F590339842E2
:101100000CD003F58063984208D003F580639842C1
:1011100004D00A4840F6822100F056FB15F47F4FB8
:1011200000D125B9054840F6832100F04DFBED4381
:10113000ADB2258238BD00BF002C0140F43100085B
:1011400030B587B004460D46644B984213D0A3F5E2
:10115000744398420FD003F5806398420BD003F597
:101160008063984207D003F58063984203D05C48BF
:10117000B82100F029FB2B68013B5A4A934203D95E
:101180005748B92100F020FBAB8833B1B3F5805F3D
:1011900003D05348BA2100F017FBEB8863B1B3F5D5
:1011A000805F09D0B3F5005F06D0B3F5405F03D090
:1011B0004B48BB2100F008FB2B894BB1B3F5806F86
:1011C00006D0B3F5C06F03D04548BC2100F0FCFA4F
:1011D0006B8923F00C0292B202B91BB94048BD21C1
:1011E00000F0F2FAAB8963B1B3F5807F09D0B3F5B3
:1011F000007F06D0B3F5407F03D03948BE2100F010
:10120000E3FAAB8973B1354B9C420BD0A3F5744321
:101210009C4207D003F580639C4203D03048C22132
:1012200000F0D2FA238A23F440531B041B0CEA88F3
:1012300013432382A28992B222F4B05222F00C020C
:10124000A8882B89698903430B431343A381A38A8D
:1012500023F440731B041B0CAA891343A38201A827
:10126000FFF7ACFD1D4B9C420CBF049A039AA38967
:101270001BB2002B08DA02EB820202EB82022B681F
:101280005B00B2FBF3F207E002EB820202EB8202A8
:1012900029688900B2FBF1F2134BA3FB02135B092F
:1012A0001801642103FB1123A18909B2002908DA7E
:1012B000DB0032330C4DA5FB0323C3F3421303437E
:1012C00007E01B013233084DA5FB0313C3F343139F
:1012D00003439BB2238107B030BD00BF00380140FB
:1012E000243200081FAA44001F85EB5170B5054643
:1012F0000C46234B98420CD0A3F57443984208D077
:1013000003F58063984204D01E484FF4997100F0B1
:101310005BFA23883BB1B3F5006F04D0194840F263
:10132000331100F051FA63883BB1B3F5806F04D0FC
:1013300014484FF49A7100F047FAA3883BB1B3F513
:10134000007F04D00F4840F2351100F03DFAE388E9
:101350003BB1B3F5807F04D00A484FF49B7100F095
:1013600033FA2B8A23F470631B041B0C26886288D3
:10137000A088E188324302430A4313432B8270BDA5
:10138000003801402432000838B504460D46164B9B
:10139000984214D0A3F57443984210D003F58063AB
:1013A00098420CD003F58063984208D003F580631F
:1013B000984204D00D484FF4B17100F005FA012DA8
:1013C00004D90A4840F2631100F0FEF92DB1A38957
:1013D0009BB243F40053A38138BDA38923F4005387
:1013E0001B041B0CA38138BD0038014024320008C7
:1013F00070B505460C461646364B984214D0A3F5F8
:101400007443984210D003F5806398420CD003F5E2
:101410008063984208D003F58063984204D02E4838
:1014200040F2891100F0D0F9282C1ED040F2277329
:101430009C421AD040F226639C4216D040F22553BB
:101440009C4212D040F224439C420ED040F6460308
:101450009C420AD040F66A139C4206D0602C04D00D
:101460001D484FF4C57100F0AFF9012E04D91A4898
:1014700040F28B1100F0A8F940F66A139C420FD19C
:10148000144B9D420CD0A3F574439D4208D003F544
:1014900080639D4204D0104840F28F1100F094F90F
:1014A000C4F3421304F01F04012202FA04F493422D
:1014B00001D10C3503E0022B0CBF103514351EB1E1
:1014C0002B681C432C6070BD2B6823EA04042C603D
:1014D00070BD00BF003801402432000838B5044612
:1014E0000D46124B984214D0A3F57443984210D085
:1014F00003F5806398420CD003F58063984208D0CE
:1015000003F58063984204D0094840F25F2100F05F
:101510005BF9B5F5007F04D305484FF4187100F06E
:1015200053F9C5F30805A58038BD00BF0038014058
:101530002432000810B504460D4B984214D0A3F590
:101540007443984210D003F5806398420CD003F5A1
:101550008063984208D003F58063984204D0054820
:101560004FF41C7100F030F9A088C0F3080010BDE2
:10157000003801402432000838B505460C46264B99
:10158000984214D0A3F57443984210D003F58063B9
:1015900098420CD003F58063984208D003F580632D
:1015A000984204D01D4840F2863100F00DF9012C1C
:1015B00018D0802C16D0402C14D0202C12D0102CF7
:1015C00010D0B4F5807F0DD0B4F5007F0AD0082C80
:1015D00008D0042C06D0022C04D0104840F28731E9
:1015E00000F0F2F8B4F5007F0FD10B4B9D420CD008
:1015F000A3F574439D4208D003F580639D4204D057
:10160000064840F28B3100F0DFF82B8804EA030033
:10161000003018BF012038BD0038014024320008D6
:1016200038B505460C463A4B984214D0A3F574439E
:10163000984210D003F5806398420CD003F5806384
:10164000984208D003F58063984204D0314840F2B4
:10165000D93100F0B9F8282C25D040F227739C42EC
:1016600021D040F226639C421DD040F225539C427B
:1016700019D040F224439C4215D040F646039C42C8
:1016800011D040F66A139C420DD0B4F5587F0AD0B1
:10169000B4F5187F07D0B4F5B07F04D01D4840F2F0
:1016A000DA3100F091F840F66A139C420FD1184BE2
:1016B0009D420CD0A3F574439D4208D003F580638E
:1016C0009D4204D0134840F2DE3100F07DF8C4F3AF
:1016D000421304F01F0201219140012B03D1AA897A
:1016E00092B20A4005E0022B0CBF2A8AAA8A92B263
:1016F0000A40240A012000FA04F4288880B220401D
:101700001AB1003018BF012038BD002038BD00BF1D
:101710000038014024320008FEE700BF08B5012070
:10172000FFF7FAFF08B50D4B1B6813B90C4A0B4BBA
:101730001A600A4B1B68033020F003001844094A62
:10174000904206D900F0B0FD0C2303604FF0FF304B
:1017500008BD024A1060184608BD00BF9400002072
:101760008401002000BC002001230360014B0B60BA
:10177000704700BF1800002008B500F095FD582301
:1017800003604FF0FF3008BD08B500F08DFD582311
:1017900003604FF0FF3008BD08B500F085FD582309
:1017A0000360002008BD00BF08B500F07DFD582390
:1017B00003604FF0FF3008BD08B500F075FD5823F9
:1017C00003604FF0FF3008BD08B5FFF7A7FF00BF6B
:1017D00008B500F067F808BD82B0002301930093BC
:1017E00003F1804303F504331A6842F480321A602F
:1017F0001A46136803F400330093019B01330193ED
:10180000009B1BB9019BB3F5A06FF2D1214B1B6864
:1018100013F4003F14BF012300230093009B012B0E
:1018200036D11D4B1A6842F010021A601A6822F075
:1018300003021A601A6842F002021A60A3F580538C
:101840005A685A605A685A605A6842F480625A600C
:101850005A6822F47C125A605A6842F4E8125A60BC
:101860001A6842F080721A601A46136813F0007FFB
:10187000FBD0084B5A6822F003025A605A6842F0C3
:1018800002025A601A46536803F00C03082BFAD17F
:1018900002B07047001002400020024008B5FFF778
:1018A0009BFF08BD08B5104B1A6842F001021A6090
:1018B00059680E4A0A405A601A6822F0847222F46B
:1018C00080321A601A6822F480221A605A6822F460
:1018D000FE025A604FF41F029A60FFF7DFFF4FF0DD
:1018E0000062034B9A6008BD001002400000FFF840
:1018F00000ED00E0034B1B681BB1034B1A6801327B
:101900001A607047A00000209C00002010B582B033
:1019100004460C4B53F820000121FFF7AFFA0A4BA5
:1019200033F81430ADF8043010238DF8073003235A
:101930008DF80630054B53F8240001A9FEF782FD0F
:1019400002B010BD583200086032000820000020AC
:1019500008B50346044A52F82000044A32F813102E
:10196000FEF73CFE08BD00BF2000002060320008EA
:1019700008B50346044A52F82000044A32F813100E
:10198000FEF7FCFD08BD00BF20000020603200080B
:10199000044B53F82030D968034A32F810204A40EB
:1019A000DA607047200000206032000800B583B084
:1019B0004FF40073ADF8043028238DF8073003236B
:1019C0008DF80630034801A9FEF73CFD03B05DF831
:1019D00004FB00BF000C014010B586B04FF40010AE
:1019E0000121FFF771FAC023ADF8143003238DF8FD
:1019F00016301C238DF81730114805A9FEF722FD7B
:101A00000023ADF808304BF6FF73ADF80A30A02381
:101A1000ADF80C304FF48063ADF80E304FF48043D6
:101A2000ADF8103006A9074B41F8143D064C20468E
:101A3000FEF704FE20460121FEF7B6FE06B010BDFB
:101A4000000C0140A0860100005400402DE9F8433D
:101A500007468946144635480121FEF7CDFE334E30
:101A6000334D30462946FEF78FFF0028F9D04FEA64
:101A700019284FEA4808A8F160085FFA88F82B484F
:101A800041460022FEF75CFF284E2A4D304629468B
:101A9000FEF77AFF0028F9D024485FFA89F1FEF7B3
:101AA00023FF224E244D30462946FEF76DFF0028C5
:101AB000F9D01E480121FEF79FFE1C4E1C4D3046FA
:101AC0002946FEF761FF0028F9D018484146012257
:101AD000FEF736FF154E194D30462946FEF754FFE6
:101AE0000028F9D016E0012C07D128464146FEF720
:101AF000D3FE28460121FEF7A7FE28463146FEF711
:101B000043FF58B12846FEF705FF07F8010B013CDB
:101B1000A4B203E0054D4FF00008094E002CE2D1BD
:101B200002480121FEF7B8FEBDE8F88300540040EA
:101B30000100030082000700840007000200030088
:101B4000400003002DE9F041074688461646274D20
:101B50004FF4003428462146FEF78CFF0028F9D1C7
:101B600022480121FEF748FE204D214C28462146FF
:101B7000FEF70AFF0028F9D04FEA18214900603922
:101B80001A4801F0FE010022FEF7DAFE174D194C4B
:101B900028462146FEF7F8FE0028F9D013485FFAE0
:101BA00088F1FEF7A1FE114D134C28462146FEF7A1
:101BB000EBFE0028F9D00CE0204617F8011BFEF7D9
:101BC00093FE20462946FEF7DFFE0028F9D0464660
:101BD00001E0064C084D731E1FFA83F8002EEBD16E
:101BE00002480121FEF730FEBDE8F08100540040BC
:101BF00001000300820007008400070010B5FEF713
:101C0000B3FF4FF48030FEF7CFFFFFF7B5F901289F
:101C100033D11020FEF7FEFB0220FEF7E7FB002089
:101C2000FFF768F80020FFF7A9F84FF48060FFF78E
:101C300085F84FF480304FF48011FEF7E3FF012068
:101C4000FFF72CF839242046FFF764F90028FAD072
:101C50000220FFF733F8FFF745F80828FBD10120F1
:101C60000146FFF731F94FF480500121FFF706F9E3
:101C700044F21D000121FFF701F910BD38B50446FB
:101C80000568C2680369D21A43689A420DDAC268CD
:101C9000013B02EA0300A26802FB005000F00AFBCD
:101CA000E3680133E360012038BD002038BD00BF88
:101CB00038B504460568C26803699A420ED00369C4
:101CC0004268013A13408268084602FB035100F063
:101CD000F1FA236901332361012038BD002038BDAA
:101CE00070B5C0B006460D461446B2F5807F88BF79
:101CF0004FF48074684600214FF4807200F0E3FADC
:101D0000002E684614BF4FF4807100212246FFF771
:101D10009DFE28466946224600F0CCFA322000F0AB
:101D2000BFF8002040B070BD2DE9F047C0B00646B6
:101D30000D461446684600214FF4807200F0C3FA45
:101D400068462946224600F0B5FAB4F5807F88BF80
:101D50004FF48074C4F30F195FFA89F504F00F0A89
:101D6000002E14BF4FF4807600260F2C15D868463D
:101D700031462246FFF7E6FE0A2000F091F821E006
:101D8000210100A8084431444246FFF7DBFE3846F3
:101D900000F086F80134E4B203E000244FF01008AC
:101DA0000A27AC42ECD3BAF1000F0BD05FFA89F1ED
:101DB000090100A8084431445246FFF7C3FE0A2037
:101DC00000F06EF8322000F06BF8002040B0BDE863
:101DD000F08700BF08B54FF080400121FFF7E6F81B
:101DE00030B34FF080400121FFF74EF9114B1A68D4
:101DF00001321A60104BA3FB02135B09642101FB43
:101E000013232BB90020FFF7C3FD0120FFF7C0FD0E
:101E1000084B1A68094BA3FB02139B094FF47A7114
:101E200001FB132323B90022024B1A60FFF762FD66
:101E300008BD00BFA40000201F85EB51D34D6210E8
:101E400010B586B004460420FEF7B6FA01A8FEF7E6
:101E5000B5FF1048029BA0FB0320800C04FB00F0A0
:101E60000138B0F1807F09D20B4B5860F0210B4A4A
:101E700082F8231000229A6007221A60064B1A6823
:101E800022F002021A601A46136813F4803FFBD056
:101E900006B010BD83DE1B4310E000E000ED00E063
:101EA00008B54FF47A7303FB00F0FFF7C9FF08BDD4
:101EB00070B506460648F1B2FFF710FB044D8024CA
:101EC00028462146FFF758FB0028F9D0304670BD60
:101ED0000038014070B516460138012898BF00242B
:101EE0000AD90CE04D1C91F90000C0F30800FFF77F
:101EF000DFFF01342946FFE7B442F3D306E000F0E8
:101F0000D3F9092303604FF0FF3070BD304670BD38
:101F100070B582B005460C46164640F22771FFF7B1
:101F20007FFB88B130460DF10701FFF7C1FE28B1F4
:101F300028469DF80710FFF7D1FA05E0284640F241
:101F400027710022FFF754FA284640F22551FFF787
:101F500067FB70B1E2682369D21A63689A4208DAB3
:101F60002846FFF7E7FA02A901F8010D2046FFF71E
:101F700085FE02B070BD00BF704700BFF0B589B0EC
:101F800025238DF8003000248DF801408DF80240A3
:101F900001268DF803606846FEF7C2F94FF400771A
:101FA000ADF8047018238DF8073003238DF8063040
:101FB0001D4D284601A9FEF745FA04238DF8073088
:101FC0004FF48063ADF80430284601A9FEF73AFAD1
:101FD0004FF4E1330493ADF81440ADF81640ADF87A
:101FE0001840ADF81C400C23ADF81A3005F54055EB
:101FF000284604A9FFF7A4F8ADF80840ADF80A4058
:10200000ADF80C70ADF80E40284602A9FFF76EF946
:10201000284640F225513246FFF7EAF92846314674
:10202000FFF7B2F909B0F0BD0008014008B5034858
:102030000349044AFFF76CFF08BD00BF004400409D
:102040006C01002058010020F0B4604CA2232380D2
:102050000025A570E5702571DFF874C166460FCEC6
:10206000C4F80500C4F80910C4F80D20C4F81130F4
:1020700003CEC4F81500C4F81910337863776526C9
:10208000A677E57784F82050C02184F82710A8228D
:1020900084F828200B2384F82930642084F82A004F
:1020A00084F82B1084F82C2084F82D30012784F834
:1020B0002E70FF2084F82F0084F8300084F831005F
:1020C00084F8325084F8337084F8345084F8351032
:1020D00084F8362084F8373084F83860A36B41F2F6
:1020E000883262F31723A3636FF0770384F83B30E1
:1020F000132384F83C30E36B65F31723E3636FF03D
:10210000170384F83F30032384F84030236C65F3D1
:102110001723236484F843502D2384F8443084F833
:10212000453084F8463084F8473084F8485084F8C5
:1021300049504FF44243A4F84A30A4F84C700823A5
:1021400084F84E3084F84F5084F8507084F8515021
:102150000CF11C0203CAC4F85200C4F856101288CD
:10216000A4F85A2004F15C060CF11C0C9CE8070052
:1021700003C6328084F8665084F8675084F868306B
:1021800084F8693084F86A3084F86B30E566256736
:102190006567A567E567C4F88050C4F88450C4F843
:1021A0008850C4F88C50C4F89050C4F89450C4F8C7
:1021B0009850A4F89C5084F89E702B2384F89F308C
:1021C00084F8A03084F8A130F0BC7047A80000204B
:1021D0006432000810B50E4C01202146A222FFF700
:1021E0007FFD2288013A92B24FF6FD739A4206D9DA
:1021F000FFF72AFF01202146A222FFF795FD044B9D
:1022000065229A770022DA7783F8202010BD00BF7C
:10221000A800002000B5C1B000231A4602E00DF866
:1022200003200133FF2BFADD0A4800F055F80020A7
:1022300069464FF48072FFF777FD012069464FF43D
:102240008072FFF771FD044800F0BEF841B05DF800
:1022500004FB00BF403300083833000808B5FFF71F
:10226000CDFC0020FFF752FB0120FFF74FFB0020C1
:10227000FFF76EFB0120FFF77BFBFFF797FBFFF7F4
:10228000ABFBFFF7A7FFFFF779FEFFF7C3FF0026C1
:10229000012564243046FFF77BFB2846FFF778FBD7
:1022A0002046FFF7FDFDF5E7014B1868704700BFBA
:1022B0008800002010B50023934203D0CC5CC454A6
:1022C0000133F9E710BD02440346934202D003F8FC
:1022D000011BFAE7704700000FB40A4B13B51C68E6
:1022E00024B1A36913B9204600F0F4FC05AB2046E5
:1022F000A168049A019300F09FF802B0BDE8104075
:1023000004B070478800002070B50E46054618B12D
:1023100083690BB900F0DEFCAC68A389190701D50D
:10232000236983B92846214600F064FB58B14FF079
:10233000FF3070BD002B0EDB236816F8012C1A70DD
:10234000236801332360A36816F8012B013BA360C7
:10235000002AEFD117E0A269934209DB236816F83F
:10236000012C1A70236819780A29EAD1284602E05C
:1023700016F8011C2846224600F0E8FAB0F1FF32B8
:1023800050425041D2E7002B16DAA269934208DB93
:1023900023680A221A7023681978914210D12846BE
:1023A00001E028460A21224600F0D0FAB0F1FF33BE
:1023B0005842584130B1BAE723680A221A7023689C
:1023C000013323600A2070BD024B01461868FFF7F5
:1023D0009BBF00BF88000020034613F8012B002A92
:1023E000FBD1181A01387047936810B5013B002BD8
:1023F000936005DA9469A34208DBCBB20A2B05D0BF
:102400001368581C10601970C8B210BDBDE81040A8
:1024100000F09CBAF8B505460E461446D718BC42E3
:1024200008D0284614F8011B3246FFF7DDFF431C95
:10243000F5D100E00020F8BD2DE9F0439DB00D4638
:1024400017460393064618B183690BB900F042FCA6
:10245000734B9D4201D1756808E0724B9D4201D1DA
:10246000B56803E0704B9D4208BFF568AB8918075B
:102470000AD52B6943B10023099320238DF8293015
:1024800030238DF82A3038E03046294600F0B2FA81
:102490000028F0D04FF0FF30BEE0039A111D126803
:1024A0000391002A70DB0792013423782E2B7DD014
:1024B0005E4F21783846032200F0C2FC30B1C71BC2
:1024C0004020B840049B01340343049321785848CA
:1024D0000622671C8DF8281000F0B2FC002800F0DE
:1024E0008980544B002B7CD1039B073323F00703D7
:1024F00008330393099B434409933B461C4613F856
:10250000012B1AB9B4EB07090ED002E0252AF5D148
:10251000F8E7304629463A464B46FFF77BFF013045
:1025200075D0099B4B4409932378002B6FD000236F
:102530004FF0FF3204930793059206938DF85330C2
:102540001A9304F101093C4F4C4638462178052284
:1025500000F076FC09F10109049B28B1C71B01209A
:10256000B84003430493EEE7D90644BF20228DF818
:1025700053201A0744BF2B228DF8532022782A2A91
:102580008BD0079B214605E0524243F0020307929D
:10259000049389E70C4622780131303A092A03D89E
:1025A0000A2000FB0323F5E707937EE763782A2BD5
:1025B00009D1039B02341A1D1B680392002BB8BF7C
:1025C0004FF0FF330BE0611C00230C4622780131F1
:1025D000303A092A03D80A2000FB0323F5E70593C4
:1025E00066E703AB0093304604A92A46134BAFF3CA
:1025F000008007E003AB0093304604A92A460F4B46
:1026000000F090F8B0F1FF3F80467FF473AFAB89E4
:102610005B063FF53FAF09981DB0BDE8F08300BFF2
:1026200090330008B0330008D0330008623300084C
:1026300066330008000000005C3300081524000821
:102640002DE9F84315461F468A680B6906469A42EB
:10265000A8BF13462B6091F843200C46DDF820807C
:102660000AB101332B602368990602D52B68023327
:102670002B60236813F006091DD094F843302268BC
:10268000003318BF012392061FD5E118302081F8CE
:1026900043005A1C94F845102244023382F8431038
:1026A00013E03046394604F119020123C0470130D6
:1026B00007D009F10109E2682B68D31A9945F0DBCC
:1026C000DBE74FF0FF30BDE8F8833046394604F1D0
:1026D0004302C0470130F4D023682A6803F00603A0
:1026E000E168042B08BFC2EB01052369A2680CBF97
:1026F00025EAE57500259A42C4BFC3EB0203ED1835
:102700004FF00009A9450ADA3046394604F11A02A9
:102710000123C0470130D4D009F10109F2E70020BC
:10272000BDE8F8832DE9FF470E7E80466E2E0C46ED
:1027300091469A460C9D01F1430000F0A58011D806
:10274000632E22D009D8002E00F0AF80582E40F022
:10275000BF8081F845607B4A4FE0642E1ED0692E11
:102760001CD0B5E0732E00F0A48009D86F2E2BD0BA
:10277000702E40F0AD800B6843F020030B6038E012
:10278000752E21D0782E34D0A2E02B6801F14207BB
:102790001A1D1B682A6081F842309DE022682B6870
:1027A00012F0800F03D01A1D2A601D6805E0510643
:1027B000F9D51A1D2A60B3F90050002D39DA2D23FE
:1027C0006D4284F8433034E022682B6812F0800FA9
:1027D00003D01A1D2A601D6804E05206F9D51A1D9F
:1027E0002A601D88237E574A6F2B14BF0A230823B3
:1027F0001BE07823544A84F845302368296813F095
:10280000800F01F104062E6001D00D6802E05F0622
:10281000FBD50D88DE0744BF43F0200323601DB9BC
:10282000236823F0200323601023002184F8431041
:1028300001E0444A0A236668002EA66003DB216893
:1028400021F00401216005B96EB104F14201B5FB2C
:10285000F3F603FB1655555D0F4601F80159354651
:10286000002EF4D100E00746082B0AD12368DD07CB
:1028700007D5626823699A4203DC302307F8013CDC
:10288000013FC01B20612CE009682B6811F0800F0C
:10289000626904D0191D29601B681A6005E04906A9
:1028A000F8D5191D29601B681A800023236107468B
:1028B00017E02B681A1D2A601F683846FFF78CFD49
:1028C00063682061984288BF23612369636005E0E3
:1028D00004F1420784F8426001232361002384F855
:1028E0004330CDF800A04046214603AA4B46FFF7EF
:1028F000A7FE013002D14FF0FF301FE040464946AD
:102900003A462369D0470130F5D023689B0705D4A8
:10291000E068039B9842B8BF18460FE00025E268C4
:10292000039BD31A9D42F3DA4046494604F119024B
:102930000123D0470130DED00135F0E704B0BDE817
:10294000F08700BF6D3300087E33000870B50E4677
:102950001446054618B183690BB900F0BBF9224B48
:102960009C4201D16C6808E0204B9C4201D1AC68CC
:1029700003E01F4B9C4208BFEC68A369A360A389D6
:102980001A0709D523693BB123692068F6B2C01A3A
:10299000636998420FDB08E02846214600F02AF8D8
:1029A0000028F1D04FF0FF3070BD2846214600F0DE
:1029B00013F90028F6D1A3680130013BA360236816
:1029C0005A1C22601E706369984204D0A389DB07F9
:1029D00007D50A2E05D12846214600F0FDF800282B
:1029E000E0D1304670BD00BF90330008B03300081E
:1029F000D0330008324B70B51D6806460C4625B131
:102A0000AB6913B9284600F065F92E4B9C4201D101
:102A10006C6808E02C4B9C4201D1AC6803E02B4B66
:102A20009C4208BFEC68A28993B2190720D4DD0646
:102A300005D4092342F040023360A2813BE05807ED
:102A400012D5616B41B104F14403994202D0304682
:102A500000F004FA00236363A38923F02403A38115
:102A60000023636023692360A38943F00803A381E3
:102A700023694BB9A38903F42073B3F5007F03D016
:102A80003046214600F090F9A38913F0010205D0E9
:102A90000022A26062695242A26103E0990758BF16
:102AA0006269A26022694AB903F0800080B230B145
:102AB00043F04003A3814FF0FF3070BD002070BD94
:102AC0008800002090330008B0330008D03300089D
:102AD0008A892DE9F041054610070C4657D44B680A
:102AE000002B02DC0B6C002B18DDE66AB6B102F499
:102AF0008052002392B22F682B600AB1626D10E001
:102B0000216A28460123B047411C024609D12B689F
:102B10003BB11D2B01D0162B46D12F600020BDE804
:102B2000F081A3895B0705D56368D21A636B0BB18B
:102B3000236CD21AE66A2846216A0023B047461C55
:102B4000A28905D12B681BB11D2B01D0162B19D1E1
:102B5000002363602369D104236004D5421C01D1A2
:102B60002B6803B96065616B2F600029D6D004F132
:102B70004403994202D0284600F070F900206063B7
:102B8000BDE8F08142F04002A281BDE8F0810E690B
:102B9000002EC3D00B680E60C6EB030893070CBF72
:102BA0004B6900238B6012E0A3894FF0FF3043F0A4
:102BB0004003A381BDE8F081A76A2846216A324616
:102BC0004346B8470028EFDD0644C0EB0808B8F1DB
:102BD000000FF1DCA2E7000038B50B6905460C4692
:102BE000DBB118B183690BB900F074F80C4B9C424F
:102BF00001D16C6808E00B4B9C4201D1AC6803E04A
:102C0000094B9C4208BFEC68B4F90C302BB1284644
:102C10002146BDE83840FFF75BBF002038BD00BF4C
:102C200090330008B0330008D0330008F8B50746E9
:102C300000F1480494B1A5686668013E0CD4AB89E4
:102C4000012B07D9B5F90E30013303D03846294698
:102C5000FFF7C2FF6835F0E72468EBE7F8BD000036
:102C6000002310B50446036043608360818143669E
:102C7000C28103614361836119465C300822FFF71A
:102C800022FB054B24626362044BA362044BE362A4
:102C9000044B236310BD00BFAD2F0008CF2F0008E9
:102CA000073000082B30000870B54B1E68255D43C7
:102CB0000E4605F1740100F015F9044640B10021FB
:102CC00080E842000C30A06005F16802FFF7FBFAD3
:102CD000204670BD836910B5044633BB8364C3646A
:102CE0000365124B124A1B688262984204BF01239B
:102CF000836100F01FF86060204600F01BF8A060C0
:102D0000204600F017F80421E06000226068FFF719
:102D1000A7FFA06809210122FFF7A2FFE0681221A6
:102D20000222FFF79DFF0123A36110BD5833000865
:102D30002D2C0008F8B51B4B07461E68B36913B964
:102D40003046FFF7C7FF4836B4687368013B04D4C8
:102D5000B4F90C5075B16834F8E733682BB93846CC
:102D60000421FFF7A1FF306008B13668ECE70C23BF
:102D70003B60F8BD4FF6FF73E3810123A3816566D5
:102D80002560A560656025616561A56104F15C0051
:102D900029460822FFF797FA6563A563A564E564F1
:102DA0002046F8BD58330008F0B58B8991B09E07D6
:102DB00005460C4625D4B1F90E10002908DAA3897E
:102DC000002713F0800F14BF40264FF480660DE0FB
:102DD00001AA00F051F90028F1DB029F4FF4806650
:102DE00007F47047B7F500514F424F41284631462E
:102DF00000F078F860B9A3899A051DD443F0020366
:102E0000A38104F14703236023610123636113E07D
:102E10000A4BAB62A389206043F08003A381206149
:102E200066614FB12846B4F90E1000F037F918B1B9
:102E3000A38943F00103A38111B0F0BD2D2C00083C
:102E400010B5C9B202449042034605D01C78013047
:102E50008C42F8D1184610BD002010BD30B50029B5
:102E60003CD051F8042C0B1F1D49002AB8BF9B18F9
:102E70000A680C4612B95A600B6030BD93420DD2FD
:102E800019685818904203D15A5811444268196081
:102E90005A60236030BD994203D80A465168002920
:102EA000F9D1146815199D420AD11B682344D01822
:102EB0008842136012D10868034413604B680CE029
:102EC00002D90C23036030BD18681C188C4203D152
:102ED0000C684968204418605960536030BD00BFD9
:102EE0005001002070B5CD1C25F0030508350C2DD0
:102EF00038BF0C25002D06463FDB8D423DD3214BCC
:102F00001C6818462146A1B10B685B1B0ED40B2B25
:102F100003D90B60CC18CD501FE08C4202D16268FF
:102F200002601AE04B6863600C4616E00C46496884
:102F3000E9E7154C23681BB9304600F027F82060FC
:102F40002946304600F022F8431C014615D0C41C27
:102F500024F0030484420AD1256004F10B00231DF0
:102F600020F00700C31A0BD05A42E25070BD304621
:102F7000611A00F00BF80130EED10C233360002011
:102F800070BD00BF500100204C01002038B5064C38
:102F90000023054608462360FEF7C4FB431C02D10C
:102FA000236803B12B6038BD5401002010B50C46D6
:102FB000B1F90E1000F094F8002803DB636D0344B0
:102FC000636510BDA38923F48053A38110BD2DE94F
:102FD000F0411D468B890746DB050C46164605D594
:102FE000B1F90E100022022300F068F8A3893846D8
:102FF00023F48053A381B4F90E1032462B46BDE86A
:10300000F04100F017B810B50C46B1F90E1000F001
:1030100055F8431CA38903D123F48053A38110BD29
:1030200043F48053A381606510BDB1F90E1000F028
:1030300013B8000038B5074C05460020206008464C
:1030400011461A46FEF746FF431C02D1236803B11E
:103050002B6038BD5401002038B5064C00230546CE
:1030600008462360FEF788FB431C02D1236803B1A6
:103070002B6038BD5401002038B5074C00230546AD
:10308000084611462360FEF77FFB431C02D12368EC
:1030900003B12B6038BD00BF5401002038B5064C89
:1030A0000023054608462360FEF776FB431C02D149
:1030B000236803B12B6038BD5401002038B5074C9C
:1030C000054600202060084611461A46FEF76CFBB4
:1030D000431C02D1236803B12B6038BD540100208A
:1030E00038B5074C054600202060084611461A46B0
:1030F000FEF762FB431C02D1236803B12B6038BD8D
:10310000540100202E2E2F73797374656D2F737206
:10311000632F73746D333266312D7374647065720E
:103120006970682F6D6973632E6300002E2E2F73F4
:10313000797374656D2F7372632F73746D33326698
:10314000312D7374647065726970682F73746D3398
:1031500032663130785F666C6173682E6300000000
:103160002E2E2F73797374656D2F7372632F7374A2
:103170006D333266312D7374647065726970682FB7
:1031800073746D3332663130785F6770696F2E63A8
:10319000000000002E2E2F73797374656D2F7372EB
:1031A000632F73746D333266312D7374647065727E
:1031B0006970682F73746D3332663130785F6932AD
:1031C000632E63002E2E2F73797374656D2F7372C7
:1031D000632F73746D333266312D7374647065724E
:1031E0006970682F73746D3332663130785F726343
:1031F000632E63002E2E2F73797374656D2F737297
:10320000632F73746D333266312D7374647065721D
:103210006970682F73746D3332663130785F74690A
:103220006D2E63002E2E2F73797374656D2F73725C
:10323000632F73746D333266312D737464706572ED
:103240006970682F73746D3332663130785F7573CF
:103250006172742E63000000080000000800000086
:103260000100020057495A35353053520000000022
:10327000000000000000000000000000000000004E
:1032800057495A6E65740000000000005B424F4FC2
:10329000545D204D41433A20253032583A25303292
:1032A000583A253032583A253032583A253032587B
:1032B0003A253032580D0A005B424F4F545D204989
:1032C000503A2025642E25642E25642E25640D0A8F
:1032D000000000005B424F4F545D2047573A2025C5
:1032E000642E25642E25642E25640D0A000000003E
:1032F0005B424F4F545D20534E3A2025642E256487
:103300002E25642E25640D0A000000005B424F4FFD
:10331000545D20444E533A2025642E25642E2564A6
:103320002E25640D0A000000496E707574204D4111
:1033300043203F00520000000D0A4F4B0D000000DB
:103340000D0A457261736520454550524F4D2E2E32
:103350002E0000004300000028000020232D302B09
:103360002000686C4C006566674546470030313286
:1033700033343536373839414243444546003031DD
:10338000323334353637383961626364656600003C
:10339000000000000000000000000000000000002D
:1033A000000000000000000000000000000000001D
:1033B000000000000000000000000000000000000D
:1033C00000000000000000000000000000000000FD
:1033D00000000000000000000000000000000000ED
:1033E00000000000000000000000000000000000DD
:1033F000785634120204060800000000010203049B
:1034000001020304060708099800002000000000DC
:10341000000C0140000C0140000000009033000847
:10342000B0330008D03300080000000000000000A6
:1034300000000000000000005433000800000000FD
:10344000000000000000000000000000000000007C
:10345000000000000000000000000000000000006C
:10346000000000000000000000000000000000005C
:103470000000000000000000280000203254769870
:04000005080001E509
:00000001FF
