:020000040800F2
:1000000000C00020F1020008F9020008FD0200080B
:1000100001030008050300080903000800000000B0
:100020000000000000000000000000000D030008B8
:100030001103000800000000150300081903000860
:100040001D0300081D0300081D0300081D03000810
:100050001D0300081D0300081D0300081D03000800
:100060001D0300081D0300081D0300081D030008F0
:100070001D0300081D0300081D0300081D030008E0
:100080001D0300081D0300081D0300081D030008D0
:100090001D0300081D0300081D0300081D030008C0
:1000A0001D0300081D0300081D0300081D030008B0
:1000B0009D3A00081D0300081D0300081D030008E9
:1000C0001D0300081D0300081D0300081D03000890
:1000D0001D0300080D3D0008053E00081D03000833
:1000E0001D0300081D0300081D0300081D03000870
:1000F0001D0300081D0300081D0300081D03000860
:100100001D0300081D0300081D0300081D0300084F
:100110001D0300081D0300081D0300081D0300083F
:100120001D0300081D0300081D0300081D0300082F
:1001300000000000000000000000000000000000BF
:1001400000000000000000000000000000000000AF
:10015000000000000000000000000000000000009F
:10016000000000000000000000000000000000008F
:10017000000000000000000000000000000000007F
:10018000000000000000000000000000000000006F
:10019000000000000000000000000000000000005F
:1001A000000000000000000000000000000000004F
:1001B000000000000000000000000000000000003F
:1001C000000000000000000000000000000000002F
:1001D000000000000000000000000000000000001F
:1001E0005FF8E0F1314B324A1360324A1360324B10
:1001F00002E000221A600433304A9342F9D32C4BB8
:100200001B6813B92B4B1B6803B1FEE7274B2C4A25
:1002100013602C4A13602C4B2C4A03E011681960C0
:10022000043304322A498B42F8D3254B1A68294BF0
:100230009A4204D1234B1A681B689A4200D0FEE709
:1002400000B583B001F0F6FE694601A801F0BEFEDC
:10025000214C224B1C1BA410002504E01E4B53F81C
:10026000253098470135AC42F8DC1D4C1D4B1C1B5A
:10027000A410002504E01A4B53F8253098470135A7
:10028000AC42F8DC0099019804F070FC0546164C6D
:10029000164B1C1BA41004E0013C134B53F82430F4
:1002A0009847002CF8DC284601F068FEBABADECA8E
:1002B000CC00002018120020CC0000201C120020CE
:1002C00000000020C8000020000000208C5F000813
:1002D000CC000020785634122003000820030008C8
:1002E0002003000820030008200300082003000862
:1002F00008B5FFF777FF00BFFEE700BFFEE700BFCE
:10030000FEE700BFFEE700BFFEE700BFFEE700BF5D
:10031000FEE700BFFEE700BFFEE700BFFEE700BF4D
:1003200010B50446C378012B03D975211F4801F08D
:100330007DFE63780F2B03D976211C4801F076FEF1
:10034000A3780F2B03D97721184801F06FFEE378CB
:10035000FBB1174BDB68DB43C3F30223C3F104019A
:100360000F22DA40637803FA01F1A37813400B43BC
:100370001B012278DBB20F490A4482F8003323784C
:10038000580903F01F03012202FA03F341F8203059
:1003900010BD23785A0903F01F03012101FA03F36A
:1003A0002032044941F8223010BD00BF205C000813
:1003B00000ED00E000E100E010B50446042806D09E
:1003C00010F1050F03D0D521084801F02FFE042CB1
:1003D00005D1074A136843F00403136010BD044AB3
:1003E000136823F00403136010BD00BF205C0008F5
:1003F00010E000E010B50446022804D940F20311D1
:10040000044801F013FE044B186800F03800204344
:10041000186010BD485C00080020024010B504467A
:10042000102805D020B140F22F11064801F0FEFD42
:10043000054B1A6822F010021A60186820431860F1
:1004400010BD00BF485C000800200240034B044A76
:100450005A6002F188325A60704700BF00200240A3
:1004600023016745024A136943F080031361704713
:100470000020024010B5044630F0350300D120B909
:1004800040F2CC51024801F0D1FD024BDC6010BDBE
:10049000485C0008002002400B4BDB6813F0010FA2
:1004A0000BD1094BDB6813F0040F08D1064BDB6856
:1004B00013F0100F05D00320704701207047022071
:1004C00070470420704700BF0020024010B504466A
:1004D000FFF7E2FF02E0FFF7DFFF013C012801D157
:1004E000002CF8D104B9052010BD00BF38B5044672
:1004F00000F17842114B9A4204D940F2A7111048FA
:1005000001F094FD4FF43020FFF7E0FF042813D1F1
:100510000C4D2B6943F002032B616C612B6943F096
:1005200040032B614FF43020FFF7D0FF2B6923F0FD
:100530000203DB04DB0C2B6138BD00BFFEFF0F00A4
:10054000485C00080020024030B583B004460D46E8
:100550000023019300F178421A4B9A4204D940F2E9
:10056000B521194801F062FD4FF40050FFF7AEFFCE
:10057000042824D1154A136943F001031361ABB277
:1005800023804FF40050FFF7A1FF042810D102345C
:100590000194019B2D0C1D804FF40050FFF796FF36
:1005A0000A4A136923F00103DB04DB0C136106E044
:1005B000064A136923F00103DB04DB0C136103B06B
:1005C00030BD00BFFEFF0F00485C00080020024065
:1005D000F8B505460C46464B98421BD003F58063A0
:1005E000984217D003F58063984213D003F58063D7
:1005F00098420FD003F5806398420BD003F58063D7
:10060000984207D003F58063984203D0B22139485D
:1006100001F00CFDE3788BB1042B0FD0282B0DD00B
:10062000482B0BD0142B09D0102B07D01C2B05D036
:10063000182B03D0B3212F4801F0F8FC23881BB9F5
:10064000B4212C4801F0F2FCE37803F00F063046A9
:1006500013F0100F0AD0A378013BDBB2022B03D9B1
:10066000BB21244801F0E2FCA07830432378E3B1B9
:100670002E68002316E001229A40218832EA010107
:100680000FD199000F278F4026EA070600FA01F1E3
:100690000E43E178282901D16A6102E0482900D19E
:1006A0002A610133072BE6D92E602388FF2B1ED940
:1006B0006E68002318E003F1080101228A402188B6
:1006C00032EA01010FD199000F278F4026EA070671
:1006D00000FA01F10E43E178282900D16A61E1783E
:1006E000482900D12A610133072BE4D96E60F8BD97
:1006F000000801407C5C000838B504460D462A4BD2
:1007000098421CD003F58063984218D003F58063AB
:10071000984214D003F58063984210D003F58063AB
:1007200098420CD003F58063984208D003F58063AB
:10073000984204D04FF48F711C4801F077FC6B1E77
:100740009BB2012B28D9042D26D0082D24D0102DA2
:1007500022D0202D20D0402D1ED0802D1CD0B5F5CC
:10076000807F19D0B5F5007F16D0B5F5806F13D016
:10077000B5F5006F10D0B5F5805F0DD0B5F5005F11
:100780000AD0B5F5804F07D0B5F5004F04D040F240
:100790001F11064801F04AFCA3681D4201D0012048
:1007A00038BD002038BD00BF000801407C5C000857
:1007B00038B504460D46144B98421CD003F58063AF
:1007C000984218D003F58063984214D003F58063F3
:1007D000984210D003F5806398420CD003F58063F3
:1007E000984208D003F58063984204D040F2691122
:1007F000064801F01BFC25B94FF4B571034801F020
:1008000015FC256138BD00BF000801407C5C000874
:1008100038B504460D46144B98421CD003F580634E
:10082000984218D003F58063984214D003F5806392
:10083000984210D003F5806398420CD003F5806392
:10084000984208D003F58063984204D040F27911B1
:10085000064801F0EBFB25B94FF4BD71034801F0E8
:10086000E5FB656138BD00BF000801407C5C000805
:10087000F0B587B004460D46544B984207D003F5B7
:100880008063984203D0C621514801F0CFFB2B680A
:10089000013B504A934203D9C7214D4801F0C6FBA2
:1008A000AB883BB1022B05D00A2B03D0C8214848A6
:1008B00001F0BCFBEB88B3F5804F07D04BF6FF721D
:1008C000934203D0C921424801F0B0FB2B89B3F514
:1008D000806F03D3CA213E4801F0A8FB6B89B3F5B2
:1008E000806F04D01BB1CB21394801F09FFBAB894D
:1008F000B3F5804F06D0B3F5404F03D0CC21344838
:1009000001F094FBA688B6B226F03F06B6B201A865
:1009100000F074FB03983049A1FB0031890C8FB2C1
:100920003E43A680228892B222F0010292B2228037
:100930002B682A4A934209D85B00B0FBF3F39BB2C1
:10094000032B00D804230137278427E0EE884BF6D9
:10095000FF72964205D103EB4302B0FBF2F39BB268
:1009600008E003EB830303EB8303B0FBF3F39BB2D9
:1009700043F48043C3F30B020AB943F0010343F489
:1009800000434FF4967201FB02F1154A82FB01020B
:10099000C917C1EBA211013189B22184A383238835
:1009A0009BB243F00103238023889BB223F481632D
:1009B00023F00203A9886A890A4313432380AA8982
:1009C0002B891343238107B0F0BD00BF00540040C2
:1009D000B05C00087F1A060083DE1B43A08601007E
:1009E000D34D621038B504460D46104B984208D0DE
:1009F00003F58063984204D04FF4A9710C4801F0CC
:100A000015FB012D04D940F25311094801F00EFBEA
:100A10002DB123889BB243F00103238038BD238886
:100A20009BB223F001039BB2238038BD00540040E9
:100A3000B05C000838B504460D46104B984208D00B
:100A400003F58063984204D04FF4CD710C4801F057
:100A5000EDFA012D04D940F29B11094801F0E6FAA4
:100A60002DB123889BB243F48073238038BD238843
:100A70009BB223F480739BB2238038BD00540040A6
:100A8000B05C000838B504460D46104B984208D0BB
:100A900003F58063984204D04FF4D9710C4801F0FB
:100AA000C5FA012D04D940F2B311094801F0BEFA8C
:100AB0002DB123889BB243F40073238038BD238873
:100AC0009BB223F400739BB2238038BD00540040D6
:100AD000B05C000838B504460D46104B984208D06B
:100AE00003F58063984204D04FF4E5710C4801F09F
:100AF0009DFA012D04D940F2CB11094801F096FA74
:100B00002DB123889BB243F48063238038BD2388B2
:100B10009BB223F480639BB2238038BD0054004015
:100B2000B05C000838B505460C46074B984208D023
:100B300003F58063984204D040F25521034801F048
:100B400075FAA4B22C8238BD00540040B05C000895
:100B500010B50446074B984208D003F580639842CD
:100B600004D040F26221044801F060FA208AC0B249
:100B700010BD00BF00540040B05C000870B50546D1
:100B80000C4616460D4B984208D003F580639842F8
:100B900004D04FF41D710A4801F048FA012E04D91F
:100BA00040F27521064801F041FA16B144F0010403
:100BB00001E004F0FE04A4B22C8270BD0054004099
:100BC000B05C000838B505460C462F4B984208D05B
:100BD00003F58063984204D04FF487612B4801F0FD
:100BE00025FA2B4B9C4240D0B4F1021F3DD0294B3B
:100BF0009C423AD0B4F5020F37D0B4F5901F34D0F0
:100C0000254B9C4231D003F500039C422DD0A3F527
:100C1000E0039C4229D0214B9C4226D003F50003DF
:100C20009C4222D0A3F5E0039C421ED0102C1CD085
:100C30001B4B9C4219D01B4B9C4216D01A4B9C421A
:100C400013D03E339C4210D0184B9C420DD0043B35
:100C50009C420AD0164B9C4207D0B4F5806F04D05A
:100C600040F23941094801F0E1F9AB8A9BB22A8B85
:100C700043EA024323F07F4334EA030301D1012016
:100C800038BD002038BD00BF00540040B05C0008F3
:100C900082000600800086004000020084000600FA
:100CA0000100030082000700020003008400070027
:100CB0000800030030B583B005460C4600230193BD
:100CC0000093364B984208D003F58063984204D0D5
:100CD00040F29E41324801F0A9F9B4F5000F45D029
:100CE000B4F5800F42D0B4F5001F3FD0B4F5801F9B
:100CF0003CD0B4F5802F39D0B4F5003F36D0B4F5F0
:100D0000803F33D0274B9C4230D0A3F580439C4298
:100D10002CD0B4F1102F29D0A3F560539C4225D0DC
:100D2000A3F580639C4221D0A3F500739C421DD0A3
:100D3000A3F580739C4219D0803B9C4216D0403B67
:100D40009C4213D0303B9C4210D0083B9C420DD0BB
:100D5000043B9C420AD0023B9C4207D0013B9C4290
:100D600004D040F29F410E4801F060F90095230F36
:100D7000019324F07F44019B1BB1009B143300932B
:100D800003E0240C009B18330093009B1B681C425B
:100D900001D0012000E0002003B030BD005400402D
:100DA000B05C0008008000100D4B1A6842F0010290
:100DB0001A6059680B4A0A405A601A6822F0847215
:100DC00022F480321A601A6822F480221A605A686B
:100DD00022F4FE025A604FF41F029A60704700BF6F
:100DE000001002400000FFF810B5044650B1B0F505
:100DF000803F07D0B0F5802F04D040F211110F488A
:100E000001F014F90E4B1A6822F480321A601A6845
:100E100022F480221A60B4F5803F03D0B4F5802F0D
:100E200006D010BD064A136843F48033136010BD2A
:100E3000034A136843F4A023136010BDE05C00086C
:100E40000010024038B50C46054650B1B0F5803F61
:100E500007D0B0F5403F04D040F27F111D4801F0AB
:100E6000E5F874B3B4F5802F2BD0B4F5002F28D05B
:100E7000B4F5402F25D0B4F5801F22D0B4F5A01FC3
:100E80001FD0B4F5C01F1CD0B4F5E01F19D0B4F5C5
:100E9000001F16D0B4F5101F13D0B4F5201F10D0CA
:100EA000B4F5301F0DD0B4F5401F0AD0B4F5501F73
:100EB00007D0B4F5601F04D04FF4C071054801F0AD
:100EC000B5F8054A536823F47C132C431C43546043
:100ED00038BD00BFE05C00080010024010B50446B9
:100EE000012804D94FF4CA71024801F09FF8024B5F
:100EF0001C6010BDE05C00086000424210B5044672
:100F0000022804D94FF40E71044801F08FF8044B05
:100F1000586820F003002043586010BDE05C0008D2
:100F200000100240024B586800F00C00704700BFF0
:100F30000010024010B50446A0B1802812D09028BD
:100F400010D0A0280ED0B0280CD0C0280AD0D028AD
:100F500008D0E02806D0F02804D04FF419710548D5
:100F600001F064F8044B586820F0F000204358600A
:100F700010BD00BFE05C00080010024010B5044640
:100F800080B1B0F5806F0DD0B0F5A06F0AD0B0F58C
:100F9000C06F07D0B0F5E06F04D040F27E21054865
:100FA00001F044F8044B586820F4E0602043586096
:100FB00010BD00BFE05C00080010024010B5044600
:100FC00080B1B0F5806F0DD0B0F5A06F0AD0B0F54C
:100FD000C06F07D0B0F5E06F04D04FF4267105481C
:100FE00001F024F8044B586820F4605040EAC40033
:100FF000586010BDE05C00080010024010B4294B9E
:101000005B6803F00C03042B05D0082B06D013BB40
:10101000254B036021E0254B03601EE0214A536805
:101020005268C3F38343023312F4803F04D1204A51
:1010300002FB03F3036010E01A4A526812F4003F07
:1010400004D01C4A02FB03F3036006E0174A02FBCC
:1010500003F3036001E0144B036012494B68C3F3D0
:101060000313154CE35CDAB20368D34043604A686B
:10107000C2F30222A25CD2B223FA02F282604A6870
:10108000C2F3C222A25CD2B2D340C3604A68C2F3A8
:1010900081320A498A5CD2B2B3FBF2F3036110BC1D
:1010A000704700BF0010024000127A00001BB7001A
:1010B00000093D00808D5B00080000200400002036
:1010C00038B504460D460E4B034003B920B940F233
:1010D0004A410C4800F0AAFF012D04D940F24B41CF
:1010E000084800F0A3FF25B1074A93691C439461A7
:1010F00038BD054A936923EA0404946138BD00BFF2
:101100000200C0FFE05C00080010024038B5044651
:101110000D460E4B184200D120B940F269410C48EF
:1011200000F084FF012D04D940F26A41084800F024
:101130007DFF25B1074AD3691C43D46138BD054AF8
:10114000D36923EA0404D46138BD00BF00360181AD
:10115000E05C00080010024010B50446212818D0B9
:10116000312816D0392814D0412812D0612810D047
:101170007A280ED07B280CD07C280AD07D2808D075
:101180007E2806D07F2804D040F234510D4800F06C
:101190004DFF6309012B02D10B4B1B6806E0022BAC
:1011A00002D1094B1B6A01E0074B5B6A04F01F0484
:1011B00023FA04F414F0010F01D0012010BD002027
:1011C00010BD00BFE05C00080010024000B583B015
:1011D000002301933120FFF7BFFF019B01330193EF
:1011E000019BB3F5A06F01D00028F3D03120FFF7A9
:1011F000B3FF08B1012000E0002003B05DF804FB5C
:101200002DE9F04105460C46464B98420BD0A3F51C
:101210007843984207D003F58063984203D0A32116
:10122000414800F003FF238863B1B3F5806F09D014
:10123000B3F5004F06D0B3F5404F03D0A6213A488E
:1012400000F0F4FE6388B3F5827F04D01BB1A721C0
:10125000354800F0EBFEA388B3F5006F04D01BB156
:10126000A821314800F0E2FEE3882BB1022B03D025
:10127000A9212D4800F0DAFE2389012B03D9AA21E8
:10128000294800F0D3FE6389B3F5007F04D01BB179
:10129000AB21254800F0CAFEA3898BB1082B0FD0E3
:1012A000102B0DD0182B0BD0202B09D0282B07D0BA
:1012B000302B05D0382B03D0AC211B4800F0B6FEF4
:1012C000E3892BB1802B03D0AD21174800F0AEFE8F
:1012D000238A1BB9AE21144800F0A8FE2B8803F422
:1012E000415720886688A188B4F806802289B4F81E
:1012F0000AC0A389B4F80EE03043084348EA00016D
:1013000011434CEA01021A434EEA02033B432B808D
:10131000AB8B9BB223F400639BB2AB83238A2B82FB
:10132000BDE8F08100300140105D000838B504468A
:101330000D46124B98420CD0A3F57843984208D042
:1013400003F58063984204D040F2B7110C4800F0D6
:101350006DFE012D04D94FF4DC71094800F066FEE2
:101360002DB123889BB243F04003238038BD2388EE
:101370009BB223F040039BB2238038BD0030014074
:10138000105D000838B504460D46094B98420CD054
:10139000A3F57843984208D003F58063984204D0BF
:1013A00040F23A21034800F041FEA58138BD00BF5C
:1013B00000300140105D000810B50446094B98420A
:1013C0000CD0A3F57843984208D003F58063984287
:1013D00004D040F24A21044800F028FEA08980B2DF
:1013E00010BD00BF00300140105D000838B5054653
:1013F0000C46164B98420CD0A3F57843984208D07F
:1014000003F58063984204D040F21631104800F092
:101410000DFE802C12D0402C10D0202C0ED0102C81
:101420000CD0082C0AD0042C08D0022C06D0012C99
:1014300004D040F21731064800F0F8FD2B891C4219
:1014400001D0012038BD002038BD00BF0030014070
:10145000105D000838B504460D46524B984242D004
:10146000B0F1804F3FD0A3F5943398423BD003F5C1
:101470008063984237D003F58063984233D003F5F8
:10148000806398422FD003F5806398422BD003F5F8
:101490009033984227D003F5C053984223D003F5E8
:1014A000806398421FD003F5806398421BD0A3F558
:1014B0009E33984217D003F58063984213D003F50A
:1014C000806398420FD003F5903398420BD003F518
:1014D0008063984207D003F58063984203D0E721E8
:1014E000314800F0A3FD6B885BB1102B09D0202B95
:1014F00007D0402B05D0602B03D0E8212A4800F00C
:1015000095FDEB884BB1B3F5807F06D0B3F5007F36
:1015100003D0E921244800F089FD23889BB2214AA9
:10152000944212D002F5006294420ED0B4F1804F82
:101530000BD0A2F59832944207D002F58062944213
:1015400003D002F58062944203D123F070036A88CD
:101550001343164A944208D002F58062944204D0A4
:1015600023F440739BB2EA8813432380AB88A3859E
:101570002B8823850B4B9C420FD003F500639C42C4
:101580000BD003F540639C4207D003F580639C4277
:1015900003D003F580639C4201D12B7A238601237B
:1015A000A38238BD002C0140405D000800100040BF
:1015B00038B504460D462E4B984243D0B0F1804FCB
:1015C00040D0A3F5943398423CD003F58063984211
:1015D00038D003F58063984234D003F58063984295
:1015E00030D003F5806398422CD003F590339842B5
:1015F00028D003F5C053984224D003F58063984265
:1016000020D003F5806398421CD0A3F59E33984206
:1016100018D003F58063984214D003F58063984294
:1016200010D003F5903398420CD003F580639842B4
:1016300008D003F58063984204D040F229310D4868
:1016400000F0F4FC012D04D940F22A31094800F0E1
:10165000EDFC2DB123889BB243F00103238038BDFC
:1016600023889BB223F001039BB2238038BD00BFC7
:10167000002C0140405D000870B504460D4616463A
:10168000314B984243D0B0F1804F40D0A3F5943312
:1016900098423CD003F58063984238D003F58063CC
:1016A000984234D003F58063984230D003F58063CC
:1016B00098422CD003F59033984228D003F5C053BC
:1016C000984224D003F58063984220D003F58063CC
:1016D00098421CD0A3F59E33984218D003F580633E
:1016E000984214D003F58063984210D003F59033EC
:1016F00098420CD003F58063984208D003F58063CC
:10170000984204D040F26B31104800F08FFC15F481
:101710007F4F00D125B94FF45B710C4800F086FC77
:10172000012E04D940F26D31084800F07FFC26B14B
:10173000A3899BB21D43A58170BDA389ED43ADB2C2
:101740001D40A58170BD00BF002C0140405D000818
:1017500070B504460E461546284B984243D0B0F16A
:10176000804F40D0A3F5943398423CD003F580637A
:10177000984238D003F58063984234D003F58063F3
:10178000984230D003F5806398422CD003F5903313
:10179000984228D003F5C053984224D003F58063C3
:1017A000984220D003F5806398421CD0A3F59E3365
:1017B000984218D003F58063984214D003F58063F3
:1017C000984210D003F5903398420CD003F5806313
:1017D000984208D003F58063984204D040F29B41C0
:1017E000074800F023FC012D04D940F29C41044835
:1017F00000F01CFC2685A58270BD00BF002C0140B6
:10180000405D000838B504460D46344B984243D03D
:10181000B0F1804F40D0A3F5943398423CD003F50B
:101820008063984238D003F58063984234D003F542
:101830008063984230D003F5806398422CD003F542
:101840009033984228D003F5C053984224D003F532
:101850008063984220D003F5806398421CD0A3F5A2
:101860009E33984218D003F58063984214D003F554
:101870008063984210D003F5903398420CD003F562
:101880008063984208D003F58063984204D040F604
:101890005821134800F0CAFB6B1E9BB2012B10D9D4
:1018A000042D0ED0082D0CD0102D0AD0202D08D0DC
:1018B000402D06D0802D04D040F65921084800F074
:1018C000B5FB228AA3892B40154202D01BB9002008
:1018D00038BD002038BD012038BD00BF002C0140BC
:1018E000405D000838B504460D462A4B984243D067
:1018F000B0F1804F40D0A3F5943398423CD003F52B
:101900008063984238D003F58063984234D003F561
:101910008063984230D003F5806398422CD003F561
:101920009033984228D003F5C053984224D003F551
:101930008063984220D003F5806398421CD0A3F5C1
:101940009E33984218D003F58063984214D003F573
:101950008063984210D003F5903398420CD003F581
:101960008063984208D003F58063984204D040F623
:101970008221094800F05AFB15F47F4F00D125B9A8
:1019800040F68321044800F051FBED43ADB22582BF
:1019900038BD00BF002C0140405D000830B587B065
:1019A00004460D46644B984213D0A3F57443984205
:1019B0000FD003F5806398420BD003F58063984203
:1019C00007D003F58063984203D0B8215B4800F04C
:1019D0002DFB2B68013B5A4A934203D9B921574842
:1019E00000F024FBAB8833B1B3F5805F03D0BA219C
:1019F000524800F01BFBEB8863B1B3F5805F09D060
:101A0000B3F5005F06D0B3F5405F03D0BB214B4870
:101A100000F00CFB2B894BB1B3F5806F06D0B3F50A
:101A2000C06F03D0BC21454800F000FB6A8922F05A
:101A30000C039BB203B91AB9BD21404800F0F6FA75
:101A4000AB8963B1B3F5807F09D0B3F5007F06D0D1
:101A5000B3F5407F03D0BE21384800F0E7FAAB89E8
:101A600073B1354B9C420BD0A3F574439C4207D015
:101A700003F580639C4203D0C221304800F0D6FABF
:101A8000238A9BB2EA8823F4405313432382A38919
:101A90009BB2AA88298968890A43024323F4B05378
:101AA00023F00C031343A381A38A9BB2AA8923F4D6
:101AB00040731343A38201A8FFF7A0FA1E4B9C4278
:101AC00001D1049A00E0039AA38913F4004F08D0CF
:101AD00002EB820202EB820229684900B2FBF1F1BB
:101AE00007E002EB820202EB820229688900B2FB66
:101AF000F1F1144BA3FB01235B091B011A096420BC
:101B000000FB1212A18911F4004F08D0D20032322A
:101B10000C49A1FB0212C2F342121A4307E0120160
:101B200032320849A1FB0212C2F343121A4392B2A5
:101B3000228107B030BD00BF00380140705D000851
:101B40001FAA44001F85EB5170B505460C46234B78
:101B500098420CD0A3F57443984208D003F58063F3
:101B6000984204D04FF499711D4800F05FFA238821
:101B70003BB1B3F5006F04D040F23311184800F0C8
:101B800055FA63883BB1B3F5806F04D04FF49A7176
:101B9000134800F04BFAA3883BB1B3F5007F04D0A3
:101BA00040F235110E4800F041FAE3883BB1B3F53D
:101BB000807F04D04FF49B71094800F037FA2B8ADC
:101BC0009BB226886188A288E08831430A43024399
:101BD00023F4706313432B8270BD00BF00380140B3
:101BE000705D000838B504460D46164B984214D077
:101BF000A3F57443984210D003F5806398420CD04B
:101C000003F58063984208D003F58063984204D0BE
:101C10004FF4B1710C4800F009FA012D04D940F2DB
:101C20006311094800F002FA2DB1A3899BB243F475
:101C30000053A38138BDA3899BB223F400539BB208
:101C4000A38138BD00380140705D000870B50446BE
:101C50000D461646364B984214D0A3F5744398426D
:101C600010D003F5806398420CD003F5806398424E
:101C700008D003F58063984204D040F289112D48C2
:101C800000F0D4F9282D1ED040F227739D421AD0BF
:101C900040F226639D4216D040F225539D4212D059
:101CA00040F224439D420ED040F646039D420AD0A6
:101CB00040F66A139D4206D0602D04D04FF4C571E2
:101CC0001C4800F0B3F9012E04D940F28B111948D9
:101CD00000F0ACF940F66A139D420FD1144B9C42C0
:101CE0000CD0A3F574439C4208D003F580639C425A
:101CF00004D040F28F110F4800F098F9C5F342125A
:101D000005F01F05012303FA05F59A4201D10C34B1
:101D100004E0022A01D1103400E014341EB123681B
:101D20001D43256070BD236823EA0505256070BD4D
:101D300000380140705D000838B504460D46124B6E
:101D4000984214D0A3F57443984210D003F58063F1
:101D500098420CD003F58063984208D003F5806365
:101D6000984204D040F25F21084800F05FF9B5F5D1
:101D7000007F04D34FF41871044800F057F9C5F3FD
:101D80000805A58038BD00BF00380140705D00081F
:101D900010B504460D4B984214D0A3F574439842F5
:101DA00010D003F5806398420CD003F5806398420D
:101DB00008D003F58063984204D04FF41C710448A6
:101DC00000F034F9A088C0F3080010BD00380140CD
:101DD000705D000838B505460C46264B984214D075
:101DE000A3F57443984210D003F5806398420CD059
:101DF00003F58063984208D003F58063984204D0CD
:101E000040F286311C4800F011F9012C18D0802CCA
:101E100016D0402C14D0202C12D0102C10D0B4F599
:101E2000807F0DD0B4F5007F0AD0082C08D0042C98
:101E300006D0022C04D040F287310F4800F0F6F8AB
:101E4000B4F5007F0FD10B4B9D420CD0A3F574432A
:101E50009D4208D003F580639D4204D040F28B314F
:101E6000054800F0E3F82B881C4201D0012038BD62
:101E7000002038BD00380140705D000838B50546C7
:101E80000C463C4B984214D0A3F57443984210D0B2
:101E900003F5806398420CD003F58063984208D024
:101EA00003F58063984204D040F2D931324800F003
:101EB000BDF8282C25D040F227739C4221D040F257
:101EC00026639C421DD040F225539C4219D040F21B
:101ED00024439C4215D040F646039C4211D040F664
:101EE0006A139C420DD0B4F5587F0AD0B4F5187F20
:101EF00007D0B4F5B07F04D040F2DA311E4800F0CC
:101F000095F840F66A139C420FD11A4B9D420CD0B3
:101F1000A3F574439D4208D003F580639D4204D02D
:101F200040F2DE31144800F081F8C4F3421204F0AC
:101F30001F0101238B40012A03D1AA8992B21340C9
:101F400008E0022A03D12A8A92B2134002E0AA8A48
:101F500092B21340240A012202FA04F42A8892B2AF
:101F6000144013B11CB9002038BD002038BD012039
:101F700038BD00BF00380140705D0008FEE700BFBB
:101F800008B50120FFF7FAFF08B50D4B1B6813B920
:101F90000C4A0B4B1A600A4B1A68C31C23F003034C
:101FA000134409498B4206D902F02CFE0C2303602E
:101FB0004FF0FF3008BD02490B60104608BD00BF5E
:101FC000D00000201C12002000B800200123036074
:101FD000014B0B60704700BF1800002008B502F0ED
:101FE00011FE582303604FF0FF3008BD08B502F022
:101FF00009FE582303604FF0FF3008BD08B502F01A
:1020000001FE58230360002008BD00BF08B502F0A0
:10201000F9FD582303604FF0FF3008BD08B502F00A
:10202000F1FD582303604FF0FF3008BD08B5FFF7FE
:10203000A7FF00BF08B500F067F808BD82B0002315
:10204000019300932C4A136843F4803313602A4BA6
:102050001B6803F400330093019B01330193009B41
:102060001BB9019BB3F5A06FF1D1234B1B6813F48F
:10207000003F02D00123009301E000230093009B66
:10208000012B36D11D4B1A6842F010021A601A68F3
:1020900022F003021A601A6842F002021A60A3F5E5
:1020A00080535A685A605A685A605A6842F480628B
:1020B0005A605A6822F47C125A605A6842F4E81254
:1020C0005A601A6842F080721A600B4B1B6813F05A
:1020D000007FFAD0084B5A6822F003025A605A680F
:1020E00042F002025A60044B5B6803F00C03082BB9
:1020F000F9D102B0704700BF00100240002002403A
:1021000008B5FFF79BFF08BD08B5104B1A6842F0F1
:1021100001021A6059680E4A0A405A601A6822F091
:10212000847222F480321A601A6822F480221A60C3
:102130005A6822F4FE025A604FF41F029A60FFF7B9
:10214000DFFF4FF00062034B9A6008BD00100240B1
:102150000000FFF800ED00E0030A43EA002080B22F
:10216000704700BF030A1B0403F47F0343EA0062C5
:10217000030C1B029BB2134343EA1060704700BF7D
:1021800008B5FFF7E9FF08BD08B5FFF7EBFF08BD8D
:1021900008B5FFF7F5FF08BD08B5FFF7E3FF08BD79
:1021A0000023094A1370094A1360094A1380094A37
:1021B0001360094A1380094A1360094A1360094AE7
:1021C0001360094A13707047E0000020D800002017
:1021D0000001002004010020FA0000200C01002072
:1021E000FC00002008010020F8000020054B1B68BF
:1021F00033B10023034A1360034A1360034A136098
:10220000704700BF0C010020FC00002008010020E6
:10221000054B1B683BB90122034B1A600023034A9C
:102220001360034A136070470C010020FC0000207B
:102230000801002030B583B0054601234CF2387206
:10224000022100F00DFCC4B2A5420BD10DF1070232
:102250000A21204600F04EFE9DF80730222BF5D1D2
:10226000204601E04FF0FF3003B030BD70B584B0C0
:1022700005460E46144603931846FFF785FF04AB48
:1022800043F8040DBDF820200092A2B23146E8B216
:1022900000F08EFC844201D04FF0FF3004B070BDDE
:1022A00010B584B004460420FFF76AFFADF80C00B7
:1022B0002046FFF765FFADF80E00074B1B68074A85
:1022C0001288074908680092042203A9FFF7CEFF8D
:1022D000FFF79EFF04B010BDD800002000010020D1
:1022E0002000002008B50B4B1B68012B02D0022BED
:1022F00009D008BD0522074B1A60FFF777FF0020C1
:10230000FFF7CEFF08BD0422024B1A60FFF76EFFF5
:1023100008BD00BF0401002008B50A460146024876
:1023200002F085FC08BD00BFE00000202DE9F0436D
:10233000ADF2FC5D81460D46164698460120FFF73A
:102340001FFFADF80C0049460DF10E0002F0EEFC47
:10235000484602F0F3FC01300DF10E031C1829462B
:10236000204602F0E3FC284602F0E8FC0130251884
:10237000002416E006EBC40756F83410284602F095
:10238000D5FC56F8340002F0D9FC013005447968D8
:10239000284602F0CBFC786802F0D0FC01300544FE
:1023A00001344445E6D303A90C4B1B680C4A106862
:1023B000452200926A1AFFF759FF0122094B1A6061
:1023C000484602F0BBFC411C4846FFF7A5FFFFF75B
:1023D0001FFF0DF2FC5DBDE8F08300BFD8000020B8
:1023E0002000002004010020F0B585B00E461746FD
:1023F0001D46C4B20DF10F020A21204600F07AFDFD
:1024000001281ED19DF80F30222B1DD103AA0921CE
:10241000204600F06FFD012819D1BDF80C30CBB17A
:102420000A9B00932B46BAB23146204600F06AFC64
:10243000ADF80C002868FFF7AFFE2860BDF80C006F
:102440000AE04FF0FF3007E04FF0FF3004E04FF0BC
:10245000FF3001E04FF0FF3005B0F0BD10B504468D
:102460000088FFF795FE20806088FFF791FE60806E
:10247000FFF796FE0122014B1A7010BDF8000020F4
:1024800038B504460D460088FFF782FE208060883C
:10249000FFF77EFE82B26280194B1B68032B14D0BB
:1024A000052B01D0012B29D1012A0AD10321144B7C
:1024B0001960144B1A80291F201D00F00FFFFFF731
:1024C00095FE6088FFF7ECFE38BD0E4B1B8801338C
:1024D0009A4207D10B4B1A80291F201D00F0FEFEE7
:1024E000FFF784FE6088FFF7DBFE043DB5F5007F53
:1024F00004D2FFF755FE0222034B1A7038BD00BF0D
:1025000004010020FA000020F800002070B5144CEF
:102510002468A24222D11E460D4604460088FFF7D9
:1025200037FE104B1B68022B01D0012B01D10E4B43
:102530001E8080B205280DD0062806D003280DD1B4
:1025400029462046FFF79CFF70BD29462046FFF72D
:10255000C9FE70BD29462046FFF780FF70BD00BF51
:10256000D8000020040100200001002038B50546F5
:102570000C46FFF715FE2846FFF75CFE024B18607D
:10258000024B1C6038BD00BF20000020F40000207A
:1025900070B582B01E4B1B681BB31E4B1B68042B0F
:1025A0001FD91D4B1B68032B09D0052B07D0012B0E
:1025B00009D11A4A1A491B48FFF7B8FE03E01A4B23
:1025C0001888FFF76DFE0022124B1A60174A136835
:1025D00001331360042B04D9FFF7E2FD0122144BF1
:1025E0001A70144E144C154B1868154D009533464F
:1025F00040F2EA522168FFF7F7FE32682B889BB25F
:1026000081B22068FFF782FF094B187802B070BDD5
:102610000C010020FC000020040100202400002008
:10262000A45D0008E0000020FA000020080100205E
:10263000F800002010010020F400002020000020FD
:10264000DC00002010B50C46054B18600022054B3D
:102650001A700123044A05492046FFF767FE10BDA2
:10266000D8000020F800002024000020A45D00080D
:10267000034B1B681BB1034A136801331360704797
:102680000C010020FC00002030B583B00546164C3C
:10269000A368984723699847236A0BB1636A63B9B3
:1026A000114CE369C5F307409847E369C5F3072078
:1026B0009847E369E8B298470AE02A0C8DF80420AD
:1026C0002A0A8DF805208DF80650032101A89847A5
:1026D000054CA3699847054663699847E36898479E
:1026E000284603B030BD00BF3000002070B582B076
:1026F00004460E46164DAB6898472B69984744F040
:1027000004046B6A73B9EB69C4F307409847EB693B
:10271000C4F307209847EB69E0B29847EB6930466D
:1027200098470DE0220C8DF80420220A8DF8052030
:102730008DF806408DF8076004210DEB01009847E5
:10274000034C63699847E368984702B070BD00BFC7
:1027500030000020F0B583B004460E4615461B4FEE
:10276000BB6898473B6998473B6A0BB17B6AB3B932
:10277000164FFB69C4F307409847FB69C4F3072071
:102780009847FB69E0B29847002405E00F4B9B692E
:10279000984730550134A4B2AC42F7D30FE0220C75
:1027A0008DF80420220A8DF805208DF806400321BB
:1027B00001A89847054B1B6A294630469847034CA9
:1027C00063699847E368984703B0F0BD3000002084
:1027D000F0B583B004460F4616461B4DAB689847CC
:1027E0002B69984744F004046B6AABB9EB69C4F3F6
:1027F00007409847EB69C4F307209847EB69E0B2BC
:102800009847002405E0104BDB69385D9847013498
:10281000A4B2B442F7D30FE0220C8DF80420220AB0
:102820008DF805208DF80640032101A89847064B36
:102830005B6A314638469847034C63699847E368BA
:10284000984703B0F0BD00BF300000202DE9F041F3
:10285000074600254FEA870808F101084FEAC80833
:1028600008F500563046FFF70FFF80B20402A4B20D
:1028700008F504584046FFF707FF204484B254B1DE
:102880003046FFF701FF80B20502ADB24046FFF7C8
:10289000FBFE284485B2A542DCD12846BDE8F08184
:1028A0002DE9F041074600254FEA870808F10108A5
:1028B0004FEAC80808F518563046FFF7E5FE80B223
:1028C0000402A4B208F51C584046FFF7DDFE204480
:1028D00084B254B13046FFF7D7FE80B20502ADB2E4
:1028E0004046FFF7D1FE284485B2A542DCD12846F8
:1028F000BDE8F0815AB32DE9F047144689464FEA06
:10290000800A0AF10107FF0007F510584046FFF75B
:10291000BBFE064607F514573846FFF7B5FE00EB39
:10292000062085B20AF10200C0002246494600EBAB
:102930000520FFF74DFF2C44A4B2210A4046FFF7C3
:10294000D5FEE1B23846FFF7D1FEBDE8F08770470B
:102950005AB32DE9F047144689464FEA800A0AF136
:102960000107FF0007F520584046FFF78DFE064699
:1029700007F524573846FFF787FE00EB062085B29F
:102980000AF10300C0002246494600EB0520FFF78C
:10299000E1FE2C44A4B2210A4046FFF7A7FEE1B2B3
:1029A0003846FFF7A3FEBDE8F0877047F8B50E463E
:1029B0008000441CE40004F520573846FFF764FE0D
:1029C000054604F524542046FFF75EFE00EB052083
:1029D00085B23544ADB2290A3846FFF787FEE9B221
:1029E0002046FFF783FEF8BD08282ED870B50646AE
:1029F00084000134E40004F5807510212846FFF7B7
:102A000075FE2846FFF740FE0028FAD11F2104F585
:102A10000070FFF76BFE0123B340DB431BB20C4990
:102A20000A881A400A800B490A8813400B80002349
:102A3000094A22F81630094A935504F54070FFF709
:102A400023FE0028F9D1012070BD4FF0FF30704700
:102A50001401002016010020200100201801002090
:102A6000082800F286802DE9F04182B005460E4626
:102A700090461F4602290FD004290DD001297BD191
:102A800004220DEB02014FF47060FFF763FE019B1F
:102A900013B96FF002007DE017F0040F6FD1A7B1FA
:102AA000012E02D0022E04D00FE017F0210F0CD11E
:102AB00068E017F0200F02D017F0800F65D017F0F4
:102AC000100F02D017F0800F62D02846FFF78CFF5E
:102AD000AC000134E40027F00F0131432046FFF73A
:102AE00005FEB8F1000F0ED12C4AB2F8008008F1B3
:102AF00001039BB213804FF6F072934203D14FF45F
:102B00004042264B1A804FEA182104F58060FFF7F7
:102B1000EDFD5FFA88F104F5A060FFF7E7FD04F52D
:102B2000807601213046FFF7E1FD3046FFF7ACFD2E
:102B30000028FAD10123AB40DB431BB218490A88B5
:102B40001A4012B207F00107AF4017430F80154932
:102B50000A8813400B800023134A22F81530134AC9
:102B6000535504F54070FFF78FFD0028F9D068B287
:102B700010E04FF0FF3070476FF004000AE06FF094
:102B8000050007E06FF0050004E06FF0050001E0CC
:102B90006FF0050002B0BDE8F08100BF2C000020FE
:102BA000140100201601002020010020180100203F
:102BB0002DE9F84FBDF82850082800F282801C4605
:102BC00093468A460646814687000137FF0038460D
:102BD000FFF75AFD00F00F00022801D0042874D13D
:102BE000BBF1000F75D02278637803EB0222A37843
:102BF00003EB0222E37803EB0223002B6DD0002DC0
:102C00006FD007F540784046FFF73EFD422801D0DF
:102C100022286AD10422214607F54060FFF7D8FD3B
:102C2000290A07F58050FFF761FDE9B207F58850E2
:102C3000FFF75CFD07F5F850FFF726FD800285B22F
:102C4000AB4500D85D463046FFF700FE04464046DF
:102C5000FFF71AFD00284CD0294B1B8843FA09F3D3
:102C600013F0010F01D0A54247D8A542EBD82A4660
:102C700051463046FFF73EFE07F58074202120467E
:102C8000FFF734FD2046FFF7FFFC0028FAD107F5D7
:102C900000742046FFF7F8FC10F0100F06D010214A
:102CA0002046FFF723FD2846BDE8F88F10F0080FF7
:102CB000EDD008212046FFF719FD6FF00C00BDE8AC
:102CC000F88F4FF0FF30BDE8F88F6FF00400BDE8DB
:102CD000F88F6FF00D00BDE8F88F6FF00B00BDE8C6
:102CE000F88F6FF00A00BDE8F88F6FF00600BDE8BE
:102CF000F88F6FF00300BDE8F88F0020BDE8F88F73
:102D000014010020082800F2DF802DE9F04F83B085
:102D10009B4690468A460646074684000134E400F6
:102D20002046FFF7B1FC814600F00F03022B02D0D2
:102D3000042B40F0CC80B8F1000F00F0CB806A4B40
:102D400033F81630B3B93046FFF7AAFD054604F54F
:102D50004070FFF799FC002800F0BF80634B1B8890
:102D60003B4113F0010F02D0002D00F0B980002D7F
:102D7000E9D000E0002509F00709B9F1020F03D0FE
:102D8000B9F1040F44D07AE0574B33F816309BBBAF
:102D9000082269463046FFF7DBFD04F580754021C7
:102DA0002846FFF7A3FC2846FFF76EFC0028FAD15F
:102DB0009DF800308BF800309DF801308BF8013021
:102DC0009DF802308BF802309DF803308BF8033009
:102DD0009DF804209DF8053003EB02230C9A138024
:102DE0009DF806209DF8073003EB02233E4A22F8A7
:102DF000163080223E4B9A553B4B33F81650A8456F
:102E000000D245462A4651463046FFF7A1FD3DE037
:102E1000354B33F8163033BB022269463046FFF794
:102E200097FD04F5807540212846FFF75FFC284692
:102E3000FFF72AFC0028FAD19DF800209DF8013008
:102E400003EB02239BB2284A22F8163040F2EA52E2
:102E5000934205D93046FFF7C7FD6FF47A7040E022
:102E60008022234B9A55204B33F81650A84500D2A8
:102E700045462A4651463046FFF76AFD06E0294698
:102E80003046FFF793FD184B23F8165004F5807475
:102E900040212046FFF72AFC2046FFF7F5FB0028DB
:102EA000FAD1114A32F816305B1B9BB222F8163069
:102EB0002BB10F4A935D43F00103935502E00022CA
:102EC0000B4B9A5528460CE04FF0FF3070476FF0DF
:102ED000040006E06FF00D0003E06FF0030000E077
:102EE000002003B0BDE8F08F200100201401002075
:102EF00018010020082800F29C8070B51546044691
:102F00000C2900F29980DFE801F007111B25333E00
:102F1000974F60656A74870080000130C000FFF73A
:102F2000B3FB20F00F002870012070BD800001303D
:102F3000C00000F5B050FFF7A7FB2870012070BD5E
:102F400080000130C00000F5A850FFF79DFB2870FD
:102F5000012070BD84000134E40004F59050FFF7B7
:102F600093FB04F59850FFF78FFB2870012070BD8C
:102F700080000130C0000422294600F54060FFF7C0
:102F8000E9FB012070BD84000134E40004F58050A9
:102F9000FFF77AFB064604F58850FFF775FB00EB58
:102FA00006202880012070BD84000134E400204602
:102FB000FFF76AFB00F00F00012840D104F53C50F8
:102FC000FFF762FB2880012070BDFFF73FFC2880DF
:102FD000012070BDFFF764FC2880012070BD8000D7
:102FE0000130C00000F54070FFF74EFB2870012053
:102FF00070BD80000130C000FFF746FB012805D1FD
:103000002046FFF74DFC2880012070BD0F4B33F8A0
:1030100014302B80012070BD80000130C000FFF70C
:1030200033FB00F00F0001280CD1094B1B5D2B7006
:1030300070BD4FF0FF3070476FF0010070BD6FF052
:10304000040070BD6FF0040070BD00BF20010020BF
:1030500018010020704700BF704700BF704700BFD5
:10306000704700BF007870470170704700207047BC
:10307000704700BF00B129B9044B054A1A61054ADF
:103080005A617047014B1861596170473000002048
:103090005D30000861300008094B1B8803F40073A1
:1030A0009BB2002BF8D000B129B9054B054A9A61B3
:1030B000054ADA617047024B9861D961704700BFD9
:1030C000300000206D3000087130000810B5044653
:1030D000062201464FF41060FFF77AFB042204F148
:1030E0000E014FF48070FFF773FB042204F10A0114
:1030F0004FF4A060FFF76CFB0422A11D4FF4706039
:10310000FFF766FBA27C064B1A70E27C5A70227DA8
:103110009A70627DDA70A27D024B1A7010BD00BFFA
:10312000340100203001002010B50446062201467B
:103130004FF41060FFF70EFB042204F10E014FF470
:103140008070FFF707FB042204F10A014FF4A0602E
:10315000FFF700FB0422A11D4FF47060FFF7FAFA9D
:10316000064B1A78A2745A78E2749A782275DB7842
:103170006375034B1B78A37510BD00BF340100209D
:103180003001002030F03A030BD110B50446002086
:10319000FFF77AFA2043C1B20020FFF7A7FA002018
:1031A00010BD4FF0FF30704708B50020FFF76CFAF4
:1031B00008BD00BF10B5044601784FF4D850FFF7A2
:1031C00095FA6188090A4FF4C850FFF78FFAA17881
:1031D0004FF4D050FFF78AFA10BD00BF38B505464E
:1031E0004FF4D850FFF750FA28704FF4C850FFF74B
:1031F0004BFA04464FF4D050FFF746FA00EB042098
:10320000688038BD10B50C46052821D8DFE800F0ED
:1032100003080D11161B0846FFF758FF002010BDCC
:103220000846FFF781FF002010BD0878FFF7AAFFCE
:1032300010BDFFF7B9FF2070002010BD0846FFF752
:10324000B9FF002010BD0846FFF7C8FF002010BDE1
:103250004FF0FF3010BD00BF10B5044672B6FDF749
:10326000F5F83520FDF706F92046FDF73FF904286B
:1032700002D0034801F048FDFDF7F4F862B610BD36
:10328000B85D00082DE9F04105460F46904672B63C
:10329000960812F0030F00D00136FDF7D7F835205D
:1032A000FDF7E8F800240FE057F824102846FDF752
:1032B0004BF9042806D0084801F026FD4FF0FF30F6
:1032C000BDE8F08104350134A642EDDCFDF7CAF813
:1032D00062B64046BDE8F081D05D000870B5064694
:1032E0000D46012A0BD107E004F580300E30C002F4
:1032F000FFF7B2FF013400E000246F2CF4DD124A26
:1033000013682B441360B5F5007F12D2C5F5007227
:10331000FF21701901F096FC0C4C4FF400723146FD
:103320002068FFF7AFFF0A4B23600022064B1A60AC
:1033300070BD064C2A4631462068FFF7A3FF23687C
:103340001D44256070BD00BF3801002058000020DA
:103350000070000810B582B0044601210B4B53F8F1
:103360002000FDF7ADFE0A4B33F81430ADF8043001
:1033700010238DF8073003238DF8063001A9054B83
:1033800053F82400FDF724F902B010BDEC5D0008ED
:10339000F45D00085C00002008B5044B33F8101001
:1033A000034B53F82000FDF733FA08BDF45D000825
:1033B0005C00002008B5044B33F81010034B53F8A1
:1033C0002000FDF7F5F908BDF45D00085C00002061
:1033D000044B53F82020D368034931F810104B40B8
:1033E000D36070475C000020F45D000800B583B036
:1033F0004FF40073ADF8043028238DF80730032311
:103400008DF8063001A90348FDF7E2F803B05DF836
:1034100004FB00BF000C014008B54FF400710248E6
:10342000FDF76AF908BD00BF000C014070B582B01D
:103430001025ADF8045003268DF806608DF807506E
:103440000B4C01A92046FDF7C3F829462046FDF79D
:10345000AFF92023ADF804308DF8066048238DF8CD
:10346000073001A92046FDF7B3F802B070BD00BFD8
:103470000010014010B586B001214FF40010FDF797
:1034800045FEC023ADF8143003238DF816301C23FD
:103490008DF8173005A91148FDF79AF80023ADF80B
:1034A00008304BF6FF73ADF80A30A023ADF80C30AE
:1034B0004FF48063ADF80E304FF48043ADF8103018
:1034C00006A9074B41F8143D064C2046FDF7D0F9FC
:1034D00001212046FDF786FA06B010BD000C014020
:1034E000A086010000540040F8B507460E46144679
:1034F00001212B48FDF79EFA2A492948FDF762FB76
:103500000028F9D0350A6D00603DEDB20022294651
:103510002348FDF733FB24492148FDF753FB0028DE
:10352000F9D0F1B21E48FDF7FDFA20491C48FDF71D
:1035300049FB0028F9D001211948FDF77BFA194908
:103540001748FDF73FFB0028F9D00122294614480F
:10355000FDF714FB16491248FDF734FB0028F9D09B
:1035600016E0012C08D10E4D00212846FDF7B2FAD5
:1035700001212846FDF786FA0E490948FDF722FB8E
:1035800030B10748FDF7E4FA07F8010B013CA4B29B
:10359000002CE6D101210248FDF79CFAF8BD00BFDE
:1035A000005400400100030082000700840007006F
:1035B000020003004000030070B506460C461546A5
:1035C0004FF400311E48FDF775FB0028F8D10121AA
:1035D0001B48FDF72FFA1B491948FDF7F3FA00289D
:1035E000F9D0210A49006039002201F0FE01144897
:1035F000FDF7C4FA14491248FDF7E4FA0028F9D09F
:10360000E1B20F48FDF78EFA10490D48FDF7DAFADE
:103610000028F9D00BE016F8011B0948FDF782FAE3
:103620000A490748FDF7CEFA0028F9D025466B1E57
:103630009CB2002DEFD101210148FDF723FA70BDA6
:1036400000540040010003008200070084000700CE
:1036500008B5FDF7A9FB4FF48030FDF7C5FBFDF77A
:10366000B5FD012832D11020FCF7D8FE0220FCF76E
:10367000C1FE0020FDF75EFC0020FDF79FFC4FF42B
:103680008060FDF77BFC4FF480114FF48030FDF734
:10369000D9FB0120FDF722FC3920FDF75DFD002854
:1036A000FAD00220FDF72AFCFDF73CFC0828FBD1EC
:1036B00001210846FDF72AFD01214FF48050FDF756
:1036C000FFFC012144F21D00FDF7FAFC08BD00BF1C
:1036D00001604360826000230361C3600120704782
:1036E00038B50568C36802699B1A426893420EDACE
:1036F0000446C368013A13408068024600FB035049
:1037000001F095FAE3680133E360012038BD002041
:1037100038BD00BF2DE9F041D0F800E0C36804696E
:103720001C1B43689C4237DAC5680769EF1BDF1B27
:10373000C46803F1FF3C0CEA040C07EB0C049C4248
:1037400002D3CCEB030600E03E4688460546BF1B8D
:103750009642A8BF1646941BBC42A8BF3C46806850
:1037600000FB06F20CFB00E001F061FAEB68334469
:10377000EB602F68686801380340A86800FB04F21A
:1037800000FB068103FB007001F051FAEB68234453
:10379000EB603019BDE8F0810020BDE8F08100BF8A
:1037A00038B50568C26803699A4211D00B460446D1
:1037B0000269406801381040A1680A4601FB0051C7
:1037C000184601F034FA236901332361012038BD22
:1037D000002038BDF8B5D0F800E0C46803699C4209
:1037E00037D0C36804691B1B0469476807F1FF3CB5
:1037F0000CEA040C0CEB0304BC4202D3CCEB07072D
:1038000000E01F460E460546DB1B9742A8BF174641
:10381000D41B9C42A8BF1C46816801FB07F20CFB2D
:1038200001E1304601F003FA2B693B442B61296822
:103830006A68013A1340A86800FB04F203FB001118
:1038400000FB076001F0F3F92B6923442B61381961
:10385000F8BD0020F8BD00BF08B510210148FCF7F5
:10386000D7FF08BD0008014008B510210148FCF74A
:103870009FFF08BD0008014038B50546002403E05D
:103880000134B4F5C87F1ADC02210F48FDF7AEFD04
:103890000028F5D029460C48FDF774FD002403E00C
:1038A0000134B4F5C87F0CDC01210748FDF79EFD0B
:1038B0000028F5D00448FDF77FFDC0B238BD0020D8
:1038C00038BD002038BD00BF0030014008B5FFF70B
:1038D000D3FF08BD08B5FF20FFF7CEFF08BD00BF2E
:1038E00030B587B0E023ADF8143003238DF81630DF
:1038F00018238DF817301A4C05A92046FCF768FEEE
:103900001023ADF814308DF8173005A92046FCF7C8
:103910005FFE0023ADF800304FF48272ADF8022054
:10392000ADF804300222ADF806200125ADF80850AC
:103930004FF40072ADF80A20ADF80C30ADF80E303F
:103940000723ADF8103004F5205469462046FDF7F2
:1039500057FC29462046FDF7E9FC07B030BD00BF03
:103960000008014010B5FFF77FFF0E4C10212046E4
:10397000FCF74EFF4FF4FA7000F0F8F810212046E3
:10398000FCF716FF012000F021F9074801F0BCF90F
:1039900006490748FFF76EFB06490748FFF77CFB1F
:1039A00010BD00BF00100140F85D00086938000834
:1039B00059380008CD380008D538000870B5C0B0B7
:1039C00006460D461446B2F5807F01D94FF4807447
:1039D0004FF480720021684601F034F90EB90021DD
:1039E00001E04FF4807122466846FFF77DFD2246D4
:1039F0006946284601F01BF9322000F0E7F8002064
:103A000040B070BD2DE9F041C0B006460D461446E9
:103A10004FF480720021684601F014F922462946CD
:103A2000684601F004F9B4F5807F01D94FF4807441
:103A30002709FDB204F00F080EB14FF480760F2C69
:103A400014D8224631466846FFF7B6FD0A2000F03A
:103A5000BDF81BE02001102231186844FFF7ACFDCF
:103A60000A2000F0B3F80134E4B200E00024AC42D4
:103A7000F0D3B8F1000F09D0F8B200014246311876
:103A80006844FFF799FD0A2000F0A0F8322000F00A
:103A90009DF8002040B0BDE8F08100BF08B50121CD
:103AA0004FF08040FDF7AEFE30B301214FF0804073
:103AB000FDF718FF114B1A6801321A60104BA3FB77
:103AC00002135B09642101FB13232BB90020FFF7CC
:103AD0007FFC0120FFF77CFC084B1A68094BA3FB15
:103AE00002139B094FF47A7101FB132323B90022BF
:103AF000024B1A60FEF7BCFD08BD00BF3C01002070
:103B00001F85EB51D34D621010B584B01C238DF886
:103B1000003001248DF801408DF802408DF80340FB
:103B20006846FCF7FDFB4FF47A73ADF808300023CC
:103B3000ADF80430ADF80A30ADF8063001A94FF009
:103B40008040FDF787FC224647214FF08040FDF77B
:103B5000FFFD21464FF08040FDF72AFD2246214619
:103B60004FF08040FDF788FD04B010BD10B586B061
:103B700004460420FCF720FC01A8FDF73FFA10489A
:103B8000029BA0FB0330800C04FB00F00138B0F175
:103B9000807F09D20B4B5860F0210B4A82F823102A
:103BA00000229A6007221A60064A136823F0020373
:103BB0001360044B1B6813F4803FFAD006B010BDAD
:103BC00083DE1B4310E000E000ED00E008B54FF499
:103BD0007A7303FB00F0FFF7C9FF08BD10B5044678
:103BE000C1B20548FEF7A8F880210348FEF7F2F8B5
:103BF0000028F9D0204610BD0038014070B50138CA
:103C000001280AD90EE04D1C91F90000C0F308000C
:103C1000FFF7E4FF0134294601E016460024B442D0
:103C2000F1D306E000F0EEFF092303604FF0FF3010
:103C300070BD304670BD00BFF8B505460C4616464F
:103C40001F46002240F22771FEF700F83A4631463F
:103C50002046FFF75FFD0446012240F22771284607
:103C6000FDF7F4FF2046F8BDF8B505460C461646AC
:103C70001F46E26823699A42FBD0002240F2255198
:103C80002846FDF7E3FF3A4631462046FFF7A2FDFE
:103C90000446012240F225512846FDF7D7FF204671
:103CA000F8BD00BF70B582B005460C46164640F21E
:103CB0002771FEF7E3F888B10DF107013046FFF7F1
:103CC0006FFD28B19DF807102846FEF735F805E08E
:103CD000002240F227712846FDF7B8FF40F2255137
:103CE0002846FEF7CBF870B1E36822699B1A626838
:103CF000934208DA2846FEF74BF802A901F8010DB5
:103D00002046FFF7EDFC02B070BD00BF08B5034AC6
:103D100003490448FFF7C6FF08BD00BFF0090020B3
:103D2000040A002000380140F0B589B04FF48063E8
:103D300001222F492F48FFF7CBFC4FF4806301226B
:103D40002D492E48FFF7C4FC25238DF800300024B0
:103D50008DF801408DF8024001268DF80360684619
:103D6000FCF7DEFA4FF40077ADF8047018238DF8F5
:103D7000073003238DF80630214D01A92846FCF7B2
:103D800027FC04238DF807304FF48063ADF804302E
:103D900001A92846FCF71CFC4FF4E1330493ADF86D
:103DA0001440ADF81640ADF81840ADF81C400C2397
:103DB000ADF81A3005F5405504A92846FDF7EEFD8B
:103DC000ADF80840ADF80A40ADF80C70ADF80E4003
:103DD00002A92846FDF7B8FE324640F22551284692
:103DE000FDF734FF31462846FDF7FCFE09B0F0BD73
:103DF00040050020040A002040010020F0090020B6
:103E000000080140704700BF08B50B460246024952
:103E10000248FFF711FF08BDF009002000380140FB
:103E200008B50B46024602490248FFF71DFF08BDD0
:103E3000040A0020003801400FB400B5A3B024AA42
:103E400052F8041B219201A800F098FF01A800F08D
:103E500075FF014601A8FFF7D7FF23B05DF804EB1B
:103E600004B0704700487047400900202DE9F04138
:103E7000574CA22323800223A3700025E5702571EF
:103E8000544F3E460FCEC4F80500C4F80910C4F8DC
:103E90000D20C4F8113003CEC4F81500C4F8191071
:103EA000337863776526A677E57784F82050C021BC
:103EB00084F82710A82284F828204D2384F829307C
:103EC000642084F82A0084F82B1084F82C2084F8CD
:103ED0002D304FF0010884F82E80FF2084F82F0049
:103EE00084F8300084F8310084F8325084F833804C
:103EF00084F8345084F8351084F8362084F837304C
:103F000084F838606FF0770284F83920132384F83E
:103F10003A3084F83B2084F83C3084F83D5084F8F3
:103F20003E506FF0170384F83F30032384F840308D
:103F300084F8415084F8425084F843502D2384F88B
:103F4000443084F8453084F8463084F8473084F8AB
:103F5000485084F849504FF44243A4F84A30A4F83A
:103F60004C80082384F84E3084F84F5084F85080F9
:103F700084F8515007F11C0203CAC4F85200C4F877
:103F800056101288A4F85A2004F15C061C3797E8F2
:103F9000070003C6328084F8665084F8675084F8BE
:103FA000683084F8693084F86A3084F86B303222E3
:103FB000294604F16C0000F045FE84F89E802B2316
:103FC00084F89F3084F8A03084F8A130BDE8F081F7
:103FD00040090020145E000810B50E4CA2222146B4
:103FE0000120FFF7EBFC2388013B9BB24FF6FD72EB
:103FF000934206D9FFF73AFFA22221460120FFF79C
:1040000001FD044B65229A770022DA7783F820209D
:1040100010BD00BF4009002008B5A22202490120BE
:10402000FFF7F0FC08BD00BF4009002008B500F014
:10403000FEFD08BD08B500F0FAFD08BD10B586B05C
:10404000FFF710FF0446062200F121016846FFF742
:10405000EDFF042204F127010DF10600FFF7E6FF52
:10406000042204F12B010DF10E00FFF7DFFF042203
:1040700004F12F010DF10A00FFF7D8FF042204F12B
:1040800068010DF11200FFF7D1FF94F866301BB103
:1040900002238DF8163002E001238DF816306946B0
:1040A0000020FFF7AFF806B010BD00BFC3B2A3F108
:1040B000300040B2092802DDA3F1370040B20F28DA
:1040C00001DD203840B2704738B50D4640B2FFF7E9
:1040D000EDFFC0B20401E4B268B2FFF7E7FF20448D
:1040E000C0B238BD30B585B0214B93F821304BB903
:1040F0001F4B93F82230082B04D11D4B93F823302B
:10410000DC2B33D01B48FFF797FE012101A8FFF7F6
:1041100087FE9DF80430532BF7D11748FFF78CFE2C
:10412000002405E0012101AB1819FFF779FE0134E5
:104130000B2CF7D900252C460FE06B1C04AA134466
:104140002A4413F80C1C12F80C0CFFF7BDFF084BA7
:10415000234483F8210001340235062CEDD9FFF702
:1041600085FEFFF759FF0548FFF766FE05B030BD35
:1041700040090020D85E0008E85E0008EC5E0008F8
:10418000BFF34F8F0449CA6802F4E062034B134344
:10419000CB60BFF34F8FFEE700ED00E00400FA05AF
:1041A00010B4002304E0CC5C4440CC5401339BB2F7
:1041B0009342F8D310BC704710B4002304E0CC5CE9
:1041C0004440CC5401339BB29342F8D310BC7047A7
:1041D000F0B5DFB005460F461446FFF743FE06462E
:1041E0000DF5BB720B212846FEF784FEB4F80520BE
:1041F000BDF876319A4253D10DF10E03009304AB12
:1042000006222FA92846FEF77DFD607810F0800F6A
:1042100006D0BDF876212FA900F07F00FFF7CCFF74
:10422000062206F121012FA800F0F2FCC0BB6FF0BE
:10423000570363710023A37155232371334653F849
:10424000210F05909B88ADF81830A22231460DF160
:104250001A0000F0ECFC607810F0800F05D0A82266
:1042600005A900F07F00FFF79BFF20683190A2882E
:10427000A379ADF8C8208DF8CA30A82205A90DF1A0
:10428000CB0000F0D4FCA37813B94FF0FF333B60B0
:10429000BB8800933B46AF2231A92846FEF788FC35
:1042A0005FB0F0BD2DE9F041A4B005460F461446BD
:1042B000FFF7D8FD06460DF18E020B212846FEF7CA
:1042C00019FEB4F80520BDF88E309A4240F0FA800D
:1042D000E378A13B042B00F2F580DFE803F0AF03A5
:1042E000207B9B000DF13E03009310AB072202A937
:1042F0002846FEF707FD607810F0800F06D0BDF865
:104300008E2002A900F07F00FFF756FF0322B11CA8
:1043100002A800F07DFC002800F09080D2E00DF1B2
:104320003E03009310AB0C2202A92846FEF7EAFCDC
:10433000607810F0800F06D0BDF88E2002A900F042
:104340007F00FFF739FF9DF8082096F821309A4248
:1043500000F2B8809DF8091096F82220914200F2F0
:10436000B1809DF80A0096F82310884200F2AA80D6
:104370009DF80BE096F82400864500F2A3809DF896
:104380000CC096F825E0F44500F29C809DF80D8065
:1043900096F826C0E04500F295809DF80E804345D2
:1043A00000F290809DF80F309A4200F28B809DF8C9
:1043B0001030994200F286809DF81130984200F248
:1043C00081809DF812309E457CD89DF813309C4525
:1043D00034D977E00DF13E03009310AB212202A9FE
:1043E0002846FEF78FFC607810F0800F06D0BDF8ED
:1043F0008E2002A900F07F00FFF7DEFE06F105081F
:1044000002A800F09BFC0246414602A800F000FC16
:10441000A0B157E00DF13E03009310AB342202A986
:104420002846FEF76FFC607810F0800F06D0BDF8CC
:104430008E2002A900F07F00FFF7BEFE0C236371FF
:104440000023A37155232371334633F8022F9B7841
:10445000ADF844208DF84630334633F81E2F9B7854
:10446000ADF847208DF8493056F8213FCDF84A3055
:10447000B388ADF84E30607810F0800F05D00C2274
:1044800011A900F07F00FFF78BFE20681490A2882E
:10449000A379ADF854208DF8563011AB07CBCDF889
:1044A0005700CDF85B10CDF85F20A37813B94FF01B
:1044B000FF333B60BB8800933B46132214A9284678
:1044C000FEF776FB24B0BDE8F08100BFF0B591B0F7
:1044D00005460F461446FFF7C5FC06460DF13E02A1
:1044E0000B212846FEF706FDB4F80520BDF83E3046
:1044F0009A4257D10DF10A03009303AB172206A984
:104500002846FEF7FFFB607810F0800F06D0BDF85C
:104510003E2006A900F07F00FFF74EFE062206F1BE
:10452000210106A800F074FB00283BD106F15201DE
:104530000DF11F0000F0F0FBA0BB06236371002308
:10454000A3715523237156F8210F0490B388ADF859
:104550001430607810F0800F05D0062204A900F016
:104560007F00FFF71DFE20680C90A288A379ADF8AC
:1045700034208DF8363010AB53F8300DCDF83700BD
:104580009B88ADF83B30A37813B94FF0FF333B6005
:10459000BB8800933B460D220CA92846FEF708FB7A
:1045A000FFF7EEFD11B0F0BD2DE9F041ADF50A7D4C
:1045B00005460F461446FFF755FC06460DF2262227
:1045C0000B212846FEF796FCB4F80520BDF82632EC
:1045D0009A426ED10DF10A03009303ABB9222EA9C2
:1045E0002846FEF78FFB607810F0800F06D0BDF8EC
:1045F00026222EA900F07F00FFF7DEFD062206F13D
:1046000021012EA800F004FB002852D106F152012E
:104610000DF1BF0000F080FB00284AD1A2220DF16D
:10462000CF013046FFF706FD6523B3774FF0000852
:1046300086F81F8086F82080FFF7EEFC6FF05703A6
:10464000637184F8068055232371334653F8210F94
:1046500004909B88ADF81430A22231460DF116006B
:1046600000F0E5FA607810F0800F05D0A82204A9C8
:1046700000F07F00FFF794FD20685D90A288A37989
:10468000ADF878218DF87A31A82204A90DF27B10BB
:1046900000F0CDFAA37813B94FF0FF333B60BB882D
:1046A00000933B46AF225DA92846FEF781FAFFF74B
:1046B00067FD0DF50A7DBDE8F08100BF2DE9F043EF
:1046C000B7B005460F461446FFF7CCFB8046FFF710
:1046D000C9FB06460DF1C2020B212846FEF70AFC73
:1046E000B4F80520BDF8C2309A4240F0BC800DF10C
:1046F0000A03009303AB4F221CA92846FEF702FBD6
:10470000E378D12B40F0AF80607810F0800F06D0B6
:10471000BDF8C2201CA900F07F00FFF74DFD062266
:1047200006F121011CA800F073FA002840F09B80DC
:1047300006F152010DF1770000F0EEFA002840F08A
:1047400092800DF1C40EC14659F8210FD9F804101A
:10475000D9F80820D9F80C30AEE80F00B9F81030BD
:10476000AEF80030FFF738FC0DF1C40EBEE80F00C4
:10477000C8F82100C9F80410C9F80820C9F80C309D
:10478000BEF80030A9F81030FFF746FC206804900E
:10479000A288A379ADF814208DF816303B68CDF8C7
:1047A0001730BB88ADF81B30DDF88730CDF81D30F1
:1047B000BDF88B30ADF821300DF18D030DF12302E2
:1047C0000DF1BD01D3F80080D3F804C0D3F808E0A0
:1047D000D868C2F80080C2F804C0C2F808E0D0600F
:1047E000103310328B42EDD11B881380452204A96F
:1047F0000020FFF707F9062363710023A3715523F7
:10480000237156F8210F1690B388ADF85C306078AC
:1048100010F0800F05D0062216A900F07F00FFF7E8
:10482000BFFC20681890A288A379ADF864208DF8A9
:10483000663036AB53F8800DCDF867009B88ADF835
:104840006B30A37813B94FF0FF333B60BB88009304
:104850003B460D2218A92846FEF7AAF93220FFF799
:10486000B5F9FFF78DFC37B0BDE8F083F0B591B036
:1048700005460F461446FFF7F5FA06460DF13E02CF
:104880000B212846FEF736FBB4F80520BDF83E3074
:104890009A425BD10DF10A03009303AB172206A9DC
:1048A0002846FEF72FFA607810F0800F06D0BDF88A
:1048B0003E2006A900F07F00FFF77EFC062206F1ED
:1048C000210106A800F0A4F900283FD106F1520109
:1048D0000DF11F0000F020FAC0BBFFF7C7FAFFF789
:1048E0009BFB062363710023A3715523237156F8A4
:1048F000210F0490B388ADF81430607810F0800F69
:1049000005D0062204A900F07F00FFF749FC2068CB
:104910000C90A288A379ADF834208DF8363010AB16
:1049200053F8300DCDF837009B88ADF83B30A378B5
:1049300013B94FF0FF333B60BB8800933B460D2219
:104940000CA92846FEF734F9FFF71AFC11B0F0BDA8
:1049500030B59DB00546FFF785FA04462846FEF7B8
:1049600043F8002341F6961202212846FEF778F814
:10497000452204A90020FFF721F806238DF8153001
:1049800000238DF81630D2238DF8133055238DF87F
:104990001430234653F8210F16909B88ADF85C30F5
:1049A0009DF8110010F0800F05D0062216A900F026
:1049B0007F00FFF7F5FB04AB93E803001890ADF818
:1049C0006410090C8DF866101CAB53F8180DCDF867
:1049D00067009B88ADF86B309DF812301BB94FF023
:1049E000FF33CDF81730DDF817000390BDF81B300A
:1049F000ADF80A30BDF80A30009303AB0D2218A9B8
:104A00002846FEF7D5F81DB030BD00BF10B588B000
:104A100004460DF11F020A21FEF76CFA9DF81F30C3
:104A2000002B51D0222B56D107AA09212046FEF790
:104A300061FABDF81C30062B4DD906AB009305ABCF
:104A4000072203A92046FEF75DF99DF80C30A52B3F
:104A500041D19DF81030AA2B3DD19DF80F3003F0C5
:104A6000F003C02B18D004D8A02B09D0B02B0DD048
:104A700031E0E02B1CD0F02B20D0D02B2BD111E03B
:104A800003AA05A92046FFF70DFC24E003AA05A907
:104A90002046FFF79DFB1EE003AA05A92046FFF76D
:104AA00083FD18E003AA05A92046FFF707FE12E0E0
:104AB00003AA05A92046FFF709FD0CE003AA05A9F2
:104AC0002046FFF7D3FE06E0012341F696120221AD
:104AD0002046FDF7C5FF08B010BD00BF03480068C1
:104AE000854603480068874670470000007000084C
:104AF0000470000830B593B0452269460020FEF7E7
:104B00005DFF9DF80030A52B01D0002300E00123BC
:104B100043B39DF80D009DF80E301B0443EA00637B
:104B20009DF80F0043EA00239DF810000DF11301DA
:104B30001843FDF787FDFDF72BFD04460028FAD04A
:104B4000022811D10020FFF703FF45252A46002146
:104B5000684600F077F82A4669460020FEF752FFC3
:104B6000204601E00020FFE713B030BD10B5FEF78E
:104B70006FFDFEF75BFC0020FEF7ECFB0120FEF76B
:104B8000E9FB0020FEF708FC0120FEF713FCFEF70E
:104B90002DFCFEF76FFCFFF71FFAFFF7C5F8FFF7D4
:104BA000A1FAFEF79DFEFEF7DDFEFEF7ADFFFFF773
:104BB00045FA11490120FDF7D9FCFFF79BFF044698
:104BC000FEF72AFC012808D1012C06D00B4B1B68EC
:104BD000B3F1FF3F01D0FFF781FF094B1B781BB9F1
:104BE0000020FFF713FFF8E7FDF7D2FC0028F4D010
:104BF0000022034B1A70F0E7180A0020007000082A
:104C0000E2090020014B1868704700BFC400002073
:104C100010B501390244904207D010F8013B11F859
:104C2000014FA342F7D0181B10BD002010BD10B5D6
:104C3000431E0A44914204D011F8014B03F8014F7E
:104C4000F8E710BD03460244934202D003F8011B6B
:104C5000FAE7704770B50E46054618B183690BB97F
:104C600000F048FAAB69AC6813B9284600F042FA84
:104C7000224B9C4201D16C6808E0214B9C4201D13F
:104C8000AC6803E01F4B9C4208BFEC68A3891B077C
:104C900001D523693BB92146284600F0CDF810B173
:104CA0004FF0FF3070BD013EA36816F8011F013BB5
:104CB000A36091B1002B04DAA269934206DB0A29B2
:104CC00004D023685A1C22601970EDE7224628465A
:104CD00000F05EF80130E7D1E2E7002B08DA224667
:104CE0000A21284600F054F80130D9D00A2070BDBE
:104CF00023680A205A1C2260187070BDF85E0008F4
:104D0000185F0008385F0008024B01461868FFF77B
:104D1000A1BF00BFC400002010F8012B11F8013B17
:104D2000012A28BF9A42F7D0D01A7047034611F8DB
:104D3000012B03F8012B002AF9D17047034613F821
:104D4000012B002AFBD1181A0138704710B59AB010
:104D5000009104916FF00041029105914FF6FF71AF
:104D60004FF40274ADF80E106946ADF80C4000F037
:104D7000AFFB009B00221A701AB010BD13460A4602
:104D8000014602480068FFF7E1BF00BFC4000020F1
:104D9000F8B50F461446054618B183690BB900F003
:104DA000A9F9224B9C4201D16C6808E0204B9C423F
:104DB00001D1AC6803E01F4B9C4208BFEC68A369BB
:104DC000A360A3891A0709D523693BB12368206929
:104DD000FEB2181A636998420FDB08E021462846A4
:104DE00000F02AF80028F1D04FF0FF361BE02146F2
:104DF000284600F015F90028F6D1A3680130013BE0
:104E0000A36023685A1C22601F706369984204D013
:104E1000A389DB0707D50A2E05D12146284600F0D5
:104E2000FFF80028E0D13046F8BD00BFF85E00086A
:104E3000185F0008385F0008324B70B51D680646E1
:104E40000C4625B1AB6913B9284600F053F92E4B37
:104E50009C4201D16C6808E02C4B9C4201D1AC68AB
:104E600003E02B4B9C4208BFEC68B4F90C309AB2BB
:104E700015071DD4D00602D4092232603AE051074A
:104E800012D5616B41B104F14403994202D030461E
:104E900000F01AFA00236363A38923F02403A3819B
:104EA0000023636023692360A38943F00803A3817F
:104EB00023694BB9A38903F42073B3F5007F03D0B2
:104EC0002146304600F0C4F9A28912F0010305D052
:104ED0000023A36063695B42A36103E0920758BFAC
:104EE0006369A36023695BB9B4F90C3003F08000F7
:104EF00080B230B143F04003A3814FF0FF3070BD6A
:104F0000002070BDC4000020F85E0008185F000893
:104F1000385F00088A892DE9F041054610070C46E4
:104F200059D44B68002B02DC0B6C002B17DDE66AB2
:104F3000AEB102F48052002392B22F682B600AB106
:104F4000606D15E0216A01232846B047411C0FD14E
:104F50002B686BB11D2B01D0162B03D12F600020C5
:104F6000BDE8F081A38943F04003A381BDE8F0814F
:104F7000A3895A0705D56368C01A636B0BB1236C0C
:104F8000C01A00230246E66A216A2846B047431C3D
:104F9000A38906D129681D2939D8204ACA40D607D5
:104FA00035D5002262602269D904226004D5421CF2
:104FB00001D12B6803B96065616B2F600029CED0E9
:104FC00004F14403994202D0284600F07DF9002004
:104FD0006063BDE8F0810F69002FC0D093070E68B1
:104FE0000CBF4B690023C7EB06080F608B6002E023
:104FF0000744C0EB0808B8F1000FB0DD43463A465D
:10500000216A2846A66AB0470028F1DCA38943F04C
:105010004003A3814FF0FF30BDE8F0810100402044
:1050200038B50B6905460C46DBB118B183690BB97D
:1050300000F060F80C4B9C4201D16C6808E00B4B0F
:105040009C4201D1AC6803E0094B9C4208BFEC686C
:10505000B4F90C302BB121462846BDE83840FFF7A3
:1050600059BF002038BD00BFF85E0008185F000877
:10507000385F0008014900F0A9B800BF21500008BE
:1050800010B504460023036043608360818143665A
:10509000C281036143618361194608225C30FFF7D6
:1050A000D1FD054B24626362044BA362044BE362AF
:1050B000044B236310BD00BF115A0008335A000887
:1050C0006B5A00088F5A000870B568234D1E5D4367
:1050D0000E4605F1740100F043F9044640B1002189
:1050E00080E842000C30A06005F16802FFF7AAFDDD
:1050F000204670BD836910B5044633BB8364C36426
:105100000365124B124A1B688262984204BF012356
:10511000836100F01FF86060204600F01BF8A0607B
:10512000204600F017F80022E06004216068FFF7D5
:10513000A7FF01220921A068FFF7A2FF0222122186
:10514000E068FFF79DFF0123A36110BDF45E000836
:1051500075500008F8B51C4B07461E68B36913B9B3
:105160003046FFF7C7FF4836B4687368013B04D484
:10517000B4F90C507DB16834F8E733680BB1366888
:10518000F2E704213846FFF79FFF30600028F6D190
:105190000C233B60F8BD4FF6FF73E3810123A3812D
:1051A00065662560A560656025616561A561082269
:1051B000294604F15C00FFF745FD6563A563A5641E
:1051C000E5642046F8BD00BFF45E00082DE9F84311
:1051D0008046894600F14804002694B1A5686768B6
:1051E000013F0CD4AB89012B07D9B5F90E3001333F
:1051F00003D029464046C84706436835F0E724688F
:10520000EBE73046BDE8F88370B50E46B1F90E10F5
:1052100090B0002914461D4606DA00232B60B3899E
:105220001A060ED540230EE001AA00F057FC002814
:10523000F3DB029A02F47042A2F500535A425A413B
:105240002A604FF480630020236010B070BD00001E
:105250008B8973B59E0705460C4610D401AB6A4690
:10526000FFF7D2FF00990646284600F079F868B9A2
:10527000B4F90C309A0522D443F00203A38104F15F
:105280004703236023610123636118E00D4BAB6288
:10529000A389206043F08003A381009B20616361A8
:1052A000019B4BB1B4F90E10284600F029FC18B14F
:1052B000A38943F00103A381A0893043A08102B0F8
:1052C00070BD00BF7550000838B50546002944D0B0
:1052D00051F8043C0C1F002BB8BFE41800F05BFC35
:1052E0001E4A1368114613B96360146030E0A3428C
:1052F0000DD92268A018834201BF18685B68121894
:10530000226063600C6023E0A24203D813465A680F
:10531000002AF9D118681918A1420BD1216801445B
:1053200058188242196013D11068526801441960FC
:105330005A600DE002D90C232B6009E02168601847
:10534000824201BF106852680918216062605C6087
:105350002846BDE8384000F01FBC38BDE8090020F1
:1053600070B5CD1C25F0030508350C2D38BF0C2574
:10537000002D064601DBA94202D90C23336046E02A
:1053800000F009FC234B1C681A462146A1B10B68AA
:105390005B1B0ED40B2B03D90B60CC18CD501EE039
:1053A0008C420BBF63684B681360636018BF0C4688
:1053B00015E00C464968E9E7174C23681BB93046ED
:1053C00000F016FB20602946304600F011FB431C1C
:1053D00018D0C41C24F00304A0420DD1256030462F
:1053E00000F0DAFB04F10B00231D20F00700C31AC4
:1053F0000ED05A42E25070BD211A304600F0F8FA41
:105400000130EBD10C233360304600F0C5FB0020A7
:1054100070BD00BFE8090020E40900202DE9F04735
:105420008E6882469E420C46914698463ED88A89AE
:1054300012F4906F3AD02568096902236F1A6569E2
:1054400005EB450595FBF3F57B1C43449D4238BFB6
:105450001D4653050FD52946FFF782FF064698B132
:105460003A462169FFF7E3FBA38923F4906343F0F5
:105470008003A38113E02A4600F08FFB064670B933
:1054800021695046FFF720FF0C23CAF80030A3899A
:105490004FF0FF3043F04003A381BDE8F087266161
:1054A0003E44266046466561ED1BA560464528BF23
:1054B000464649463246206800F052FBA368002069
:1054C0009B1BA36023681E442660BDE8F087000094
:1054D0002DE9F04F9DB003938B8980461C060D4645
:1054E00016460DD50B695BB94021FFF739FF2860DF
:1054F000286118B90C23C8F80030CDE040236B6157
:105500000023099320238DF82930DFF89CB1302344
:105510008DF82A3037463C4614F8013B1BB9B7EBEF
:10552000060910D003E0252BF9D02746F3E74B46B8
:10553000324629464046FFF771FF013000F0A78050
:10554000099B4B4409933B78002B00F0A08000237B
:105550004FF0FF3204930793059206938DF8533072
:105560001A930126052221784E4800F0EBFA671CB9
:10557000049B38B14B4A3C46801A06FA00F01843A7
:105580000490EFE7D90644BF20228DF853201A0774
:1055900044BF2B228DF8532022782A2A03D0079A61
:1055A00000210A200BE0039A111D12680391002AC2
:1055B00010DA524243F00200079204900BE02746B3
:1055C0003B780134303B092B03D800FB0232012128
:1055D000F5E701B107923B782E2B1ED17B782A2B61
:1055E0000AD1039B02371A1D1B680392002BB8BF18
:1055F0004FF0FF33059310E0002319460593781C04
:105600000A2407463A780130303A092A03D804FBC5
:1056100001210123F5E703B10591032239782248DE
:1056200000F090FA40B14023CBEB000003FA00F009
:10563000049B013718430490397806221B487E1CCE
:105640008DF8281000F07EFA88B1194B33B9039B0E
:10565000073323F007030833039314E003AB0093ED
:105660002A46144B04A94046AFF3008007E003AB81
:1056700000932A460F4B04A9404600F093F8B0F17E
:10568000FF3F824603D0099B5344099342E7AB890D
:105690005B0601D4099801E04FF0FF301DB0BDE872
:1056A000F08F00BF585F00085E5F0008625F00086F
:1056B000000000001D5400082DE9F04791461F46E8
:1056C0000A698B6806469342B8BF1346C9F8003092
:1056D00091F843200C46DDF8208012B10133C9F85F
:1056E00000302368990642BFD9F800300233C9F868
:1056F0000030256815F0060510D104F1190A07E0FD
:105700000123524639463046C04701301AD0013590
:10571000E368D9F800209B1A9D42F1DB94F84330EE
:105720002268003318BF012392060FD5E1183020FC
:1057300081F843005A1C94F845102244023382F841
:10574000431003E04FF0FF30BDE8F08704F143025F
:1057500039463046C0470130F4D02268D9F80050AD
:10576000E36802F00602042A08BF5D1B2269A368F1
:105770000CBF25EAE57500259342C4BF9B1AED18BE
:105780004FF000091A344D4509D00123224639460D
:105790003046C0470130D5D009F10109F3E70020B8
:1057A000BDE8F0872DE9F04317460A7E85B06E2AE2
:1057B000984606460C460C9B01F1430E00F0AE8065
:1057C00011D8632A22D009D8002A00F0BB80582AB9
:1057D00040F0CA8081F84520834955E0642A1ED0F4
:1057E000692A1CD0C0E0732A00F0B08009D86F2A63
:1057F0002ED0702A40F0B8800A6842F020020A6079
:105800003EE0752A24D0782A3AD0ADE01A6801F13A
:105810004205111D1960136884F84230A8E0216820
:105820001A6811F0800F02D0111D196008E011F004
:10583000400F02F10401196002D0B2F9003000E01B
:105840001368002B3CDA2D225B4284F8432037E0BA
:1058500021681A6811F0800F02D0111D196007E04D
:1058600011F0400F02F10401196001D0138800E02B
:105870001368227E5C496F2A14BF0A2208221BE0AB
:1058800078225A4984F845202268186812F0800F5F
:1058900000F104051D6003D1550601D5038800E021
:1058A0000368D00744BF42F0200222601BB922687F
:1058B00022F0200222601022002084F8430001E040
:1058C00049490A226568002DA56008DB206820F0A0
:1058D000040020602BB9002D7DD175460CE0002B13
:1058E00079D07546B3FBF2F002FB1033CB5C05F8C0
:1058F000013D03460028F5D1082A0BD12368DA07B9
:1059000008D5236962689A42DEBF302305F8013C5E
:1059100005F1FF35C5EB0E0323612EE008681A6818
:1059200010F0800F496903D0101D1860136808E05B
:1059300010F0400F02F104001860136801D01980C4
:1059400000E0196000232361754616E01A68111DF6
:105950001960156800216268284600F0F3F808B164
:10596000401B6060636804E004F1420584F8422053
:1059700001232361002384F84330CDF800803B46A7
:1059800003AA21463046FFF797FE013002D14FF0BF
:10599000FF3026E023692A4639463046C0470130A9
:1059A000F5D023689B0710D5002504F1190907E0FD
:1059B00001234A4639463046C0470130E7D0013519
:1059C000E368039A9B1A9D42F2DBE068039B9842CE
:1059D000B8BF184605E00B7804F1420584F8423060
:1059E0008AE705B0BDE8F083695F00087A5F0008C8
:1059F00038B5064C0023054608462360FCF7C4FA78
:105A0000431C02D1236803B12B6038BDEC09002090
:105A100010B50C46B1F90E1000F0E6F80028ABBF47
:105A2000636DA3891B1823F48053ACBF6365A38106
:105A300010BD2DE9F0411F468B890546DB050C465C
:105A4000164605D502230022B1F90E1000F068F8C1
:105A5000A389324623F48053A381B4F90E103B4648
:105A60002846BDE8F04100F017B810B50C46B1F972
:105A70000E1000F055F8431CA38915BF606523F490
:105A8000805343F48053A38118BFA38110BDB1F9A3
:105A90000E1000F013B8000038B5074C0546084654
:105AA0001146002222601A46FEF7A8F8431C02D1D4
:105AB000236803B12B6038BDEC09002038B5064CD3
:105AC0000023054608462360FCF788FA431C02D1F0
:105AD000236803B12B6038BDEC09002038B5074CB2
